{
	"TradeEscrow.sol": {
		"TradeEscrow": {
			"abi": [
				{
					"inputs": [
						{
							"internalType": "address",
							"name": "_arbiter",
							"type": "address"
						}
					],
					"stateMutability": "nonpayable",
					"type": "constructor"
				},
				{
					"anonymous": false,
					"inputs": [
						{
							"indexed": true,
							"internalType": "uint256",
							"name": "id",
							"type": "uint256"
						}
					],
					"name": "Delivered",
					"type": "event"
				},
				{
					"anonymous": false,
					"inputs": [
						{
							"indexed": true,
							"internalType": "uint256",
							"name": "id",
							"type": "uint256"
						},
						{
							"indexed": false,
							"internalType": "uint256",
							"name": "amount",
							"type": "uint256"
						}
					],
					"name": "Deposited",
					"type": "event"
				},
				{
					"anonymous": false,
					"inputs": [
						{
							"indexed": true,
							"internalType": "uint256",
							"name": "id",
							"type": "uint256"
						},
						{
							"indexed": false,
							"internalType": "address",
							"name": "by",
							"type": "address"
						},
						{
							"indexed": false,
							"internalType": "string",
							"name": "reason",
							"type": "string"
						}
					],
					"name": "DisputeRaised",
					"type": "event"
				},
				{
					"anonymous": false,
					"inputs": [
						{
							"indexed": true,
							"internalType": "uint256",
							"name": "id",
							"type": "uint256"
						},
						{
							"indexed": false,
							"internalType": "bool",
							"name": "releasedToSeller",
							"type": "bool"
						}
					],
					"name": "DisputeResolved",
					"type": "event"
				},
				{
					"anonymous": false,
					"inputs": [
						{
							"indexed": true,
							"internalType": "uint256",
							"name": "id",
							"type": "uint256"
						},
						{
							"indexed": false,
							"internalType": "bytes32",
							"name": "expectedDocHash",
							"type": "bytes32"
						}
					],
					"name": "DocumentHashSet",
					"type": "event"
				},
				{
					"anonymous": false,
					"inputs": [
						{
							"indexed": true,
							"internalType": "uint256",
							"name": "id",
							"type": "uint256"
						},
						{
							"indexed": false,
							"internalType": "bytes32",
							"name": "providedHash",
							"type": "bytes32"
						}
					],
					"name": "DocumentVerified",
					"type": "event"
				},
				{
					"anonymous": false,
					"inputs": [
						{
							"indexed": true,
							"internalType": "uint256",
							"name": "id",
							"type": "uint256"
						},
						{
							"indexed": false,
							"internalType": "address",
							"name": "to",
							"type": "address"
						},
						{
							"indexed": false,
							"internalType": "uint256",
							"name": "amount",
							"type": "uint256"
						}
					],
					"name": "PaymentReleased",
					"type": "event"
				},
				{
					"anonymous": false,
					"inputs": [
						{
							"indexed": true,
							"internalType": "uint256",
							"name": "id",
							"type": "uint256"
						},
						{
							"indexed": false,
							"internalType": "address",
							"name": "to",
							"type": "address"
						},
						{
							"indexed": false,
							"internalType": "uint256",
							"name": "amount",
							"type": "uint256"
						}
					],
					"name": "Refunded",
					"type": "event"
				},
				{
					"anonymous": false,
					"inputs": [
						{
							"indexed": true,
							"internalType": "uint256",
							"name": "id",
							"type": "uint256"
						}
					],
					"name": "Shipped",
					"type": "event"
				},
				{
					"anonymous": false,
					"inputs": [
						{
							"indexed": true,
							"internalType": "uint256",
							"name": "id",
							"type": "uint256"
						},
						{
							"indexed": true,
							"internalType": "address",
							"name": "buyer",
							"type": "address"
						},
						{
							"indexed": true,
							"internalType": "address",
							"name": "seller",
							"type": "address"
						},
						{
							"indexed": false,
							"internalType": "address",
							"name": "verifier",
							"type": "address"
						},
						{
							"indexed": false,
							"internalType": "uint256",
							"name": "amount",
							"type": "uint256"
						}
					],
					"name": "TradeCreated",
					"type": "event"
				},
				{
					"inputs": [],
					"name": "arbiter",
					"outputs": [
						{
							"internalType": "address",
							"name": "",
							"type": "address"
						}
					],
					"stateMutability": "view",
					"type": "function"
				},
				{
					"inputs": [
						{
							"internalType": "uint256",
							"name": "id",
							"type": "uint256"
						}
					],
					"name": "cancelBeforeShipment",
					"outputs": [],
					"stateMutability": "nonpayable",
					"type": "function"
				},
				{
					"inputs": [
						{
							"internalType": "uint256",
							"name": "id",
							"type": "uint256"
						}
					],
					"name": "confirmDelivered",
					"outputs": [],
					"stateMutability": "nonpayable",
					"type": "function"
				},
				{
					"inputs": [
						{
							"internalType": "address",
							"name": "seller",
							"type": "address"
						},
						{
							"internalType": "address",
							"name": "verifier",
							"type": "address"
						},
						{
							"internalType": "string",
							"name": "details",
							"type": "string"
						}
					],
					"name": "createTrade",
					"outputs": [
						{
							"internalType": "uint256",
							"name": "id",
							"type": "uint256"
						}
					],
					"stateMutability": "payable",
					"type": "function"
				},
				{
					"inputs": [
						{
							"internalType": "uint256",
							"name": "id",
							"type": "uint256"
						}
					],
					"name": "getTrade",
					"outputs": [
						{
							"internalType": "address",
							"name": "buyer",
							"type": "address"
						},
						{
							"internalType": "address",
							"name": "seller",
							"type": "address"
						},
						{
							"internalType": "address",
							"name": "verifier",
							"type": "address"
						},
						{
							"internalType": "uint256",
							"name": "amount",
							"type": "uint256"
						},
						{
							"internalType": "bytes32",
							"name": "expectedDocHash",
							"type": "bytes32"
						},
						{
							"internalType": "bool",
							"name": "docVerified",
							"type": "bool"
						},
						{
							"internalType": "enum TradeEscrow.State",
							"name": "state",
							"type": "uint8"
						}
					],
					"stateMutability": "view",
					"type": "function"
				},
				{
					"inputs": [
						{
							"internalType": "string",
							"name": "s",
							"type": "string"
						}
					],
					"name": "hashString",
					"outputs": [
						{
							"internalType": "bytes32",
							"name": "",
							"type": "bytes32"
						}
					],
					"stateMutability": "pure",
					"type": "function"
				},
				{
					"inputs": [
						{
							"internalType": "uint256",
							"name": "id",
							"type": "uint256"
						}
					],
					"name": "markShipped",
					"outputs": [],
					"stateMutability": "nonpayable",
					"type": "function"
				},
				{
					"inputs": [],
					"name": "nextId",
					"outputs": [
						{
							"internalType": "uint256",
							"name": "",
							"type": "uint256"
						}
					],
					"stateMutability": "view",
					"type": "function"
				},
				{
					"inputs": [
						{
							"internalType": "uint256",
							"name": "id",
							"type": "uint256"
						},
						{
							"internalType": "string",
							"name": "reason",
							"type": "string"
						}
					],
					"name": "raiseDispute",
					"outputs": [],
					"stateMutability": "nonpayable",
					"type": "function"
				},
				{
					"inputs": [
						{
							"internalType": "uint256",
							"name": "id",
							"type": "uint256"
						},
						{
							"internalType": "bool",
							"name": "releaseToSeller",
							"type": "bool"
						}
					],
					"name": "resolveDispute",
					"outputs": [],
					"stateMutability": "nonpayable",
					"type": "function"
				},
				{
					"inputs": [
						{
							"internalType": "uint256",
							"name": "id",
							"type": "uint256"
						},
						{
							"internalType": "bytes32",
							"name": "expectedDocHash",
							"type": "bytes32"
						}
					],
					"name": "setExpectedDocumentHash",
					"outputs": [],
					"stateMutability": "nonpayable",
					"type": "function"
				},
				{
					"inputs": [
						{
							"internalType": "uint256",
							"name": "",
							"type": "uint256"
						}
					],
					"name": "trades",
					"outputs": [
						{
							"internalType": "address",
							"name": "buyer",
							"type": "address"
						},
						{
							"internalType": "address",
							"name": "seller",
							"type": "address"
						},
						{
							"internalType": "address",
							"name": "verifier",
							"type": "address"
						},
						{
							"internalType": "uint256",
							"name": "amount",
							"type": "uint256"
						},
						{
							"internalType": "bytes32",
							"name": "expectedDocHash",
							"type": "bytes32"
						},
						{
							"internalType": "bool",
							"name": "docSet",
							"type": "bool"
						},
						{
							"internalType": "bool",
							"name": "docVerified",
							"type": "bool"
						},
						{
							"internalType": "enum TradeEscrow.State",
							"name": "state",
							"type": "uint8"
						}
					],
					"stateMutability": "view",
					"type": "function"
				},
				{
					"inputs": [
						{
							"internalType": "uint256",
							"name": "id",
							"type": "uint256"
						},
						{
							"internalType": "bytes32",
							"name": "providedHash",
							"type": "bytes32"
						}
					],
					"name": "verifyDocument",
					"outputs": [],
					"stateMutability": "nonpayable",
					"type": "function"
				},
				{
					"stateMutability": "payable",
					"type": "receive"
				}
			],
			"devdoc": {
				"kind": "dev",
				"methods": {},
				"version": 1
			},
			"evm": {
				"assembly": "    /* \"TradeEscrow.sol\":61:7638  contract TradeEscrow {... */\n  mstore(0x40, 0xa0)\n    /* \"TradeEscrow.sol\":1969:2067  constructor(address _arbiter){ require(_arbiter != address(0), \"arbiter=0\"); arbiter = _arbiter; } */\n  callvalue\n  dup1\n  iszero\n  tag_1\n  jumpi\n  revert(0x00, 0x00)\ntag_1:\n  pop\n  mload(0x40)\n  sub(codesize, bytecodeSize)\n  dup1\n  bytecodeSize\n  dup4\n  codecopy\n  dup2\n  dup2\n  add\n  0x40\n  mstore\n  dup2\n  add\n  swap1\n  tag_2\n  swap2\n  swap1\n  tag_3\n  jump\t// in\ntag_2:\n    /* \"TradeEscrow.sol\":2028:2029  0 */\n  0x00\n    /* \"TradeEscrow.sol\":2008:2030  _arbiter != address(0) */\n  0xffffffffffffffffffffffffffffffffffffffff\n  and\n    /* \"TradeEscrow.sol\":2008:2016  _arbiter */\n  dup2\n    /* \"TradeEscrow.sol\":2008:2030  _arbiter != address(0) */\n  0xffffffffffffffffffffffffffffffffffffffff\n  and\n  sub\n    /* \"TradeEscrow.sol\":2000:2044  require(_arbiter != address(0), \"arbiter=0\") */\n  tag_6\n  jumpi\n  mload(0x40)\n  0x08c379a000000000000000000000000000000000000000000000000000000000\n  dup2\n  mstore\n  0x04\n  add\n  tag_7\n  swap1\n  tag_8\n  jump\t// in\ntag_7:\n  mload(0x40)\n  dup1\n  swap2\n  sub\n  swap1\n  revert\ntag_6:\n    /* \"TradeEscrow.sol\":2056:2064  _arbiter */\n  dup1\n    /* \"TradeEscrow.sol\":2046:2064  arbiter = _arbiter */\n  0xffffffffffffffffffffffffffffffffffffffff\n  and\n  0x80\n  dup2\n  0xffffffffffffffffffffffffffffffffffffffff\n  and\n  dup2\n  mstore\n  pop\n  pop\n    /* \"TradeEscrow.sol\":1969:2067  constructor(address _arbiter){ require(_arbiter != address(0), \"arbiter=0\"); arbiter = _arbiter; } */\n  pop\n    /* \"TradeEscrow.sol\":61:7638  contract TradeEscrow {... */\n  jump(tag_9)\n    /* \"#utility.yul\":88:205   */\ntag_11:\n    /* \"#utility.yul\":197:198   */\n  0x00\n    /* \"#utility.yul\":194:195   */\n  0x00\n    /* \"#utility.yul\":187:199   */\n  revert\n    /* \"#utility.yul\":334:460   */\ntag_13:\n    /* \"#utility.yul\":371:378   */\n  0x00\n    /* \"#utility.yul\":411:453   */\n  0xffffffffffffffffffffffffffffffffffffffff\n    /* \"#utility.yul\":404:409   */\n  dup3\n    /* \"#utility.yul\":400:454   */\n  and\n    /* \"#utility.yul\":389:454   */\n  swap1\n  pop\n    /* \"#utility.yul\":334:460   */\n  swap2\n  swap1\n  pop\n  jump\t// out\n    /* \"#utility.yul\":466:562   */\ntag_14:\n    /* \"#utility.yul\":503:510   */\n  0x00\n    /* \"#utility.yul\":532:556   */\n  tag_26\n    /* \"#utility.yul\":550:555   */\n  dup3\n    /* \"#utility.yul\":532:556   */\n  tag_13\n  jump\t// in\ntag_26:\n    /* \"#utility.yul\":521:556   */\n  swap1\n  pop\n    /* \"#utility.yul\":466:562   */\n  swap2\n  swap1\n  pop\n  jump\t// out\n    /* \"#utility.yul\":568:690   */\ntag_15:\n    /* \"#utility.yul\":641:665   */\n  tag_28\n    /* \"#utility.yul\":659:664   */\n  dup2\n    /* \"#utility.yul\":641:665   */\n  tag_14\n  jump\t// in\ntag_28:\n    /* \"#utility.yul\":634:639   */\n  dup2\n    /* \"#utility.yul\":631:666   */\n  eq\n    /* \"#utility.yul\":621:684   */\n  tag_29\n  jumpi\n    /* \"#utility.yul\":680:681   */\n  0x00\n    /* \"#utility.yul\":677:678   */\n  0x00\n    /* \"#utility.yul\":670:682   */\n  revert\n    /* \"#utility.yul\":621:684   */\ntag_29:\n    /* \"#utility.yul\":568:690   */\n  pop\n  jump\t// out\n    /* \"#utility.yul\":696:839   */\ntag_16:\n    /* \"#utility.yul\":753:758   */\n  0x00\n    /* \"#utility.yul\":784:790   */\n  dup2\n    /* \"#utility.yul\":778:791   */\n  mload\n    /* \"#utility.yul\":769:791   */\n  swap1\n  pop\n    /* \"#utility.yul\":800:833   */\n  tag_31\n    /* \"#utility.yul\":827:832   */\n  dup2\n    /* \"#utility.yul\":800:833   */\n  tag_15\n  jump\t// in\ntag_31:\n    /* \"#utility.yul\":696:839   */\n  swap3\n  swap2\n  pop\n  pop\n  jump\t// out\n    /* \"#utility.yul\":845:1196   */\ntag_3:\n    /* \"#utility.yul\":915:921   */\n  0x00\n    /* \"#utility.yul\":964:966   */\n  0x20\n    /* \"#utility.yul\":952:961   */\n  dup3\n    /* \"#utility.yul\":943:950   */\n  dup5\n    /* \"#utility.yul\":939:962   */\n  sub\n    /* \"#utility.yul\":935:967   */\n  slt\n    /* \"#utility.yul\":932:1051   */\n  iszero\n  tag_33\n  jumpi\n    /* \"#utility.yul\":970:1049   */\n  tag_34\n  tag_11\n  jump\t// in\ntag_34:\n    /* \"#utility.yul\":932:1051   */\ntag_33:\n    /* \"#utility.yul\":1090:1091   */\n  0x00\n    /* \"#utility.yul\":1115:1179   */\n  tag_35\n    /* \"#utility.yul\":1171:1178   */\n  dup5\n    /* \"#utility.yul\":1162:1168   */\n  dup3\n    /* \"#utility.yul\":1151:1160   */\n  dup6\n    /* \"#utility.yul\":1147:1169   */\n  add\n    /* \"#utility.yul\":1115:1179   */\n  tag_16\n  jump\t// in\ntag_35:\n    /* \"#utility.yul\":1105:1179   */\n  swap2\n  pop\n    /* \"#utility.yul\":1061:1189   */\n  pop\n    /* \"#utility.yul\":845:1196   */\n  swap3\n  swap2\n  pop\n  pop\n  jump\t// out\n    /* \"#utility.yul\":1202:1371   */\ntag_17:\n    /* \"#utility.yul\":1286:1297   */\n  0x00\n    /* \"#utility.yul\":1320:1326   */\n  dup3\n    /* \"#utility.yul\":1315:1318   */\n  dup3\n    /* \"#utility.yul\":1308:1327   */\n  mstore\n    /* \"#utility.yul\":1360:1364   */\n  0x20\n    /* \"#utility.yul\":1355:1358   */\n  dup3\n    /* \"#utility.yul\":1351:1365   */\n  add\n    /* \"#utility.yul\":1336:1365   */\n  swap1\n  pop\n    /* \"#utility.yul\":1202:1371   */\n  swap3\n  swap2\n  pop\n  pop\n  jump\t// out\n    /* \"#utility.yul\":1377:1536   */\ntag_18:\n    /* \"#utility.yul\":1517:1528   */\n  0x617262697465723d300000000000000000000000000000000000000000000000\n    /* \"#utility.yul\":1513:1514   */\n  0x00\n    /* \"#utility.yul\":1505:1511   */\n  dup3\n    /* \"#utility.yul\":1501:1515   */\n  add\n    /* \"#utility.yul\":1494:1529   */\n  mstore\n    /* \"#utility.yul\":1377:1536   */\n  pop\n  jump\t// out\n    /* \"#utility.yul\":1542:1907   */\ntag_19:\n    /* \"#utility.yul\":1684:1687   */\n  0x00\n    /* \"#utility.yul\":1705:1771   */\n  tag_39\n    /* \"#utility.yul\":1769:1770   */\n  0x09\n    /* \"#utility.yul\":1764:1767   */\n  dup4\n    /* \"#utility.yul\":1705:1771   */\n  tag_17\n  jump\t// in\ntag_39:\n    /* \"#utility.yul\":1698:1771   */\n  swap2\n  pop\n    /* \"#utility.yul\":1780:1873   */\n  tag_40\n    /* \"#utility.yul\":1869:1872   */\n  dup3\n    /* \"#utility.yul\":1780:1873   */\n  tag_18\n  jump\t// in\ntag_40:\n    /* \"#utility.yul\":1898:1900   */\n  0x20\n    /* \"#utility.yul\":1893:1896   */\n  dup3\n    /* \"#utility.yul\":1889:1901   */\n  add\n    /* \"#utility.yul\":1882:1901   */\n  swap1\n  pop\n    /* \"#utility.yul\":1542:1907   */\n  swap2\n  swap1\n  pop\n  jump\t// out\n    /* \"#utility.yul\":1913:2332   */\ntag_8:\n    /* \"#utility.yul\":2079:2083   */\n  0x00\n    /* \"#utility.yul\":2117:2119   */\n  0x20\n    /* \"#utility.yul\":2106:2115   */\n  dup3\n    /* \"#utility.yul\":2102:2120   */\n  add\n    /* \"#utility.yul\":2094:2120   */\n  swap1\n  pop\n    /* \"#utility.yul\":2166:2175   */\n  dup2\n    /* \"#utility.yul\":2160:2164   */\n  dup2\n    /* \"#utility.yul\":2156:2176   */\n  sub\n    /* \"#utility.yul\":2152:2153   */\n  0x00\n    /* \"#utility.yul\":2141:2150   */\n  dup4\n    /* \"#utility.yul\":2137:2154   */\n  add\n    /* \"#utility.yul\":2130:2177   */\n  mstore\n    /* \"#utility.yul\":2194:2325   */\n  tag_42\n    /* \"#utility.yul\":2320:2324   */\n  dup2\n    /* \"#utility.yul\":2194:2325   */\n  tag_19\n  jump\t// in\ntag_42:\n    /* \"#utility.yul\":2186:2325   */\n  swap1\n  pop\n    /* \"#utility.yul\":1913:2332   */\n  swap2\n  swap1\n  pop\n  jump\t// out\n    /* \"TradeEscrow.sol\":61:7638  contract TradeEscrow {... */\ntag_9:\n  mload(0x80)\n  codecopy(0x00, dataOffset(sub_0), dataSize(sub_0))\n  0x00\n  assignImmutable(\"0x7749cc8014201da2069c21d93ba99c584b6f62d393fde534ed47eac227e31561\")\n  return(0x00, dataSize(sub_0))\nstop\n\nsub_0: assembly {\n        /* \"TradeEscrow.sol\":61:7638  contract TradeEscrow {... */\n      mstore(0x40, 0x80)\n      jumpi(tag_1, lt(calldatasize, 0x04))\n      shr(0xe0, calldataload(0x00))\n      dup1\n      0x766954b4\n      gt\n      tag_16\n      jumpi\n      dup1\n      0xeed90d6b\n      gt\n      tag_17\n      jumpi\n      dup1\n      0xeed90d6b\n      eq\n      tag_12\n      jumpi\n      dup1\n      0xf71edf3b\n      eq\n      tag_13\n      jumpi\n      dup1\n      0xfaf08906\n      eq\n      tag_14\n      jumpi\n      dup1\n      0xfe25e00a\n      eq\n      tag_15\n      jumpi\n      jump(tag_2)\n    tag_17:\n      dup1\n      0x766954b4\n      eq\n      tag_9\n      jumpi\n      dup1\n      0xc6df189d\n      eq\n      tag_10\n      jumpi\n      dup1\n      0xe59b0c5b\n      eq\n      tag_11\n      jumpi\n      jump(tag_2)\n    tag_16:\n      dup1\n      0x052548c8\n      eq\n      tag_3\n      jumpi\n      dup1\n      0x1e6c598e\n      eq\n      tag_4\n      jumpi\n      dup1\n      0x2db25e05\n      eq\n      tag_5\n      jumpi\n      dup1\n      0x34b25ee2\n      eq\n      tag_6\n      jumpi\n      dup1\n      0x5aef573c\n      eq\n      tag_7\n      jumpi\n      dup1\n      0x61b8ce8c\n      eq\n      tag_8\n      jumpi\n      jump(tag_2)\n    tag_1:\n      jumpi(tag_2, calldatasize)\n      stop\n    tag_2:\n      revert(0x00, 0x00)\n        /* \"TradeEscrow.sol\":3497:3910  function verifyDocument(uint256 id, bytes32 providedHash)... */\n    tag_3:\n      callvalue\n      dup1\n      iszero\n      tag_20\n      jumpi\n      revert(0x00, 0x00)\n    tag_20:\n      pop\n      tag_21\n      0x04\n      dup1\n      calldatasize\n      sub\n      dup2\n      add\n      swap1\n      tag_22\n      swap2\n      swap1\n      tag_23\n      jump\t// in\n    tag_22:\n      tag_24\n      jump\t// in\n    tag_21:\n      stop\n        /* \"TradeEscrow.sol\":575:614  mapping(uint256 => Trade) public trades */\n    tag_4:\n      callvalue\n      dup1\n      iszero\n      tag_25\n      jumpi\n      revert(0x00, 0x00)\n    tag_25:\n      pop\n      tag_26\n      0x04\n      dup1\n      calldatasize\n      sub\n      dup2\n      add\n      swap1\n      tag_27\n      swap2\n      swap1\n      tag_28\n      jump\t// in\n    tag_27:\n      tag_29\n      jump\t// in\n    tag_26:\n      mload(0x40)\n      tag_30\n      swap9\n      swap8\n      swap7\n      swap6\n      swap5\n      swap4\n      swap3\n      swap2\n      swap1\n      tag_31\n      jump\t// in\n    tag_30:\n      mload(0x40)\n      dup1\n      swap2\n      sub\n      swap1\n      return\n        /* \"TradeEscrow.sol\":7250:7598  function getTrade(uint256 id) external view returns (... */\n    tag_5:\n      callvalue\n      dup1\n      iszero\n      tag_32\n      jumpi\n      revert(0x00, 0x00)\n    tag_32:\n      pop\n      tag_33\n      0x04\n      dup1\n      calldatasize\n      sub\n      dup2\n      add\n      swap1\n      tag_34\n      swap2\n      swap1\n      tag_28\n      jump\t// in\n    tag_34:\n      tag_35\n      jump\t// in\n    tag_33:\n      mload(0x40)\n      tag_36\n      swap8\n      swap7\n      swap6\n      swap5\n      swap4\n      swap3\n      swap2\n      swap1\n      tag_37\n      jump\t// in\n    tag_36:\n      mload(0x40)\n      dup1\n      swap2\n      sub\n      swap1\n      return\n        /* \"TradeEscrow.sol\":5029:5935  function resolveDispute(uint256 id, bool releaseToSeller)... */\n    tag_6:\n      callvalue\n      dup1\n      iszero\n      tag_38\n      jumpi\n      revert(0x00, 0x00)\n    tag_38:\n      pop\n      tag_39\n      0x04\n      dup1\n      calldatasize\n      sub\n      dup2\n      add\n      swap1\n      tag_40\n      swap2\n      swap1\n      tag_41\n      jump\t// in\n    tag_40:\n      tag_42\n      jump\t// in\n    tag_39:\n      stop\n        /* \"TradeEscrow.sol\":4582:4953  function raiseDispute(uint256 id, string calldata reason) external {... */\n    tag_7:\n      callvalue\n      dup1\n      iszero\n      tag_43\n      jumpi\n      revert(0x00, 0x00)\n    tag_43:\n      pop\n      tag_44\n      0x04\n      dup1\n      calldatasize\n      sub\n      dup2\n      add\n      swap1\n      tag_45\n      swap2\n      swap1\n      tag_46\n      jump\t// in\n    tag_45:\n      tag_47\n      jump\t// in\n    tag_44:\n      stop\n        /* \"TradeEscrow.sol\":547:568  uint256 public nextId */\n    tag_8:\n      callvalue\n      dup1\n      iszero\n      tag_48\n      jumpi\n      revert(0x00, 0x00)\n    tag_48:\n      pop\n      tag_49\n      tag_50\n      jump\t// in\n    tag_49:\n      mload(0x40)\n      tag_51\n      swap2\n      swap1\n      tag_52\n      jump\t// in\n    tag_51:\n      mload(0x40)\n      dup1\n      swap2\n      sub\n      swap1\n      return\n        /* \"TradeEscrow.sol\":7078:7205  function hashString(string calldata s) external pure returns (bytes32) {... */\n    tag_9:\n      callvalue\n      dup1\n      iszero\n      tag_53\n      jumpi\n      revert(0x00, 0x00)\n    tag_53:\n      pop\n      tag_54\n      0x04\n      dup1\n      calldatasize\n      sub\n      dup2\n      add\n      swap1\n      tag_55\n      swap2\n      swap1\n      tag_56\n      jump\t// in\n    tag_55:\n      tag_57\n      jump\t// in\n    tag_54:\n      mload(0x40)\n      tag_58\n      swap2\n      swap1\n      tag_59\n      jump\t// in\n    tag_58:\n      mload(0x40)\n      dup1\n      swap2\n      sub\n      swap1\n      return\n        /* \"TradeEscrow.sol\":6027:6456  function cancelBeforeShipment(uint256 id)... */\n    tag_10:\n      callvalue\n      dup1\n      iszero\n      tag_60\n      jumpi\n      revert(0x00, 0x00)\n    tag_60:\n      pop\n      tag_61\n      0x04\n      dup1\n      calldatasize\n      sub\n      dup2\n      add\n      swap1\n      tag_62\n      swap2\n      swap1\n      tag_28\n      jump\t// in\n    tag_62:\n      tag_63\n      jump\t// in\n    tag_61:\n      stop\n        /* \"TradeEscrow.sol\":2139:2986  function createTrade(address seller, address verifier, string calldata details)... */\n    tag_11:\n      tag_64\n      0x04\n      dup1\n      calldatasize\n      sub\n      dup2\n      add\n      swap1\n      tag_65\n      swap2\n      swap1\n      tag_66\n      jump\t// in\n    tag_65:\n      tag_67\n      jump\t// in\n    tag_64:\n      mload(0x40)\n      tag_68\n      swap2\n      swap1\n      tag_52\n      jump\t// in\n    tag_68:\n      mload(0x40)\n      dup1\n      swap2\n      sub\n      swap1\n      return\n        /* \"TradeEscrow.sol\":3960:4158  function markShipped(uint256 id)... */\n    tag_12:\n      callvalue\n      dup1\n      iszero\n      tag_69\n      jumpi\n      revert(0x00, 0x00)\n    tag_69:\n      pop\n      tag_70\n      0x04\n      dup1\n      calldatasize\n      sub\n      dup2\n      add\n      swap1\n      tag_71\n      swap2\n      swap1\n      tag_28\n      jump\t// in\n    tag_71:\n      tag_72\n      jump\t// in\n    tag_70:\n      stop\n        /* \"TradeEscrow.sol\":3088:3395  function setExpectedDocumentHash(uint256 id, bytes32 expectedDocHash)... */\n    tag_13:\n      callvalue\n      dup1\n      iszero\n      tag_73\n      jumpi\n      revert(0x00, 0x00)\n    tag_73:\n      pop\n      tag_74\n      0x04\n      dup1\n      calldatasize\n      sub\n      dup2\n      add\n      swap1\n      tag_75\n      swap2\n      swap1\n      tag_23\n      jump\t// in\n    tag_75:\n      tag_76\n      jump\t// in\n    tag_74:\n      stop\n        /* \"TradeEscrow.sol\":4199:4509  function confirmDelivered(uint256 id)... */\n    tag_14:\n      callvalue\n      dup1\n      iszero\n      tag_77\n      jumpi\n      revert(0x00, 0x00)\n    tag_77:\n      pop\n      tag_78\n      0x04\n      dup1\n      calldatasize\n      sub\n      dup2\n      add\n      swap1\n      tag_79\n      swap2\n      swap1\n      tag_28\n      jump\t// in\n    tag_79:\n      tag_80\n      jump\t// in\n    tag_78:\n      stop\n        /* \"TradeEscrow.sol\":472:504  address public immutable arbiter */\n    tag_15:\n      callvalue\n      dup1\n      iszero\n      tag_81\n      jumpi\n      revert(0x00, 0x00)\n    tag_81:\n      pop\n      tag_82\n      tag_83\n      jump\t// in\n    tag_82:\n      mload(0x40)\n      tag_84\n      swap2\n      swap1\n      tag_85\n      jump\t// in\n    tag_84:\n      mload(0x40)\n      dup1\n      swap2\n      sub\n      swap1\n      return\n        /* \"TradeEscrow.sol\":3497:3910  function verifyDocument(uint256 id, bytes32 providedHash)... */\n    tag_24:\n        /* \"TradeEscrow.sol\":3595:3597  id */\n      dup2\n        /* \"TradeEscrow.sol\":1043:1049  trades */\n      0x01\n        /* \"TradeEscrow.sol\":1043:1053  trades[id] */\n      0x00\n        /* \"TradeEscrow.sol\":1050:1052  id */\n      dup3\n        /* \"TradeEscrow.sol\":1043:1053  trades[id] */\n      dup2\n      mstore\n      0x20\n      add\n      swap1\n      dup2\n      mstore\n      0x20\n      add\n      0x00\n      keccak256\n        /* \"TradeEscrow.sol\":1043:1062  trades[id].verifier */\n      0x02\n      add\n      0x00\n      swap1\n      sload\n      swap1\n      0x0100\n      exp\n      swap1\n      div\n      0xffffffffffffffffffffffffffffffffffffffff\n      and\n        /* \"TradeEscrow.sol\":1029:1062  msg.sender == trades[id].verifier */\n      0xffffffffffffffffffffffffffffffffffffffff\n      and\n        /* \"TradeEscrow.sol\":1029:1039  msg.sender */\n      caller\n        /* \"TradeEscrow.sol\":1029:1062  msg.sender == trades[id].verifier */\n      0xffffffffffffffffffffffffffffffffffffffff\n      and\n      eq\n        /* \"TradeEscrow.sol\":1021:1079  require(msg.sender == trades[id].verifier, \"Not verifier\") */\n      tag_87\n      jumpi\n      mload(0x40)\n      0x08c379a000000000000000000000000000000000000000000000000000000000\n      dup2\n      mstore\n      0x04\n      add\n      tag_88\n      swap1\n      tag_89\n      jump\t// in\n    tag_88:\n      mload(0x40)\n      dup1\n      swap2\n      sub\n      swap1\n      revert\n    tag_87:\n        /* \"TradeEscrow.sol\":3616:3618  id */\n      dup3\n        /* \"TradeEscrow.sol\":3620:3637  State.PaymentHeld */\n      0x01\n        /* \"TradeEscrow.sol\":1239:1240  s */\n      dup1\n        /* \"TradeEscrow.sol\":1219:1240  trades[id].state == s */\n      0x06\n      dup2\n      gt\n      iszero\n      tag_91\n      jumpi\n      tag_92\n      tag_93\n      jump\t// in\n    tag_92:\n    tag_91:\n        /* \"TradeEscrow.sol\":1219:1225  trades */\n      0x01\n        /* \"TradeEscrow.sol\":1219:1229  trades[id] */\n      0x00\n        /* \"TradeEscrow.sol\":1226:1228  id */\n      dup5\n        /* \"TradeEscrow.sol\":1219:1229  trades[id] */\n      dup2\n      mstore\n      0x20\n      add\n      swap1\n      dup2\n      mstore\n      0x20\n      add\n      0x00\n      keccak256\n        /* \"TradeEscrow.sol\":1219:1235  trades[id].state */\n      0x05\n      add\n      0x02\n      swap1\n      sload\n      swap1\n      0x0100\n      exp\n      swap1\n      div\n      0xff\n      and\n        /* \"TradeEscrow.sol\":1219:1240  trades[id].state == s */\n      0x06\n      dup2\n      gt\n      iszero\n      tag_94\n      jumpi\n      tag_95\n      tag_93\n      jump\t// in\n    tag_95:\n    tag_94:\n      eq\n        /* \"TradeEscrow.sol\":1211:1254  require(trades[id].state == s, \"Bad state\") */\n      tag_96\n      jumpi\n      mload(0x40)\n      0x08c379a000000000000000000000000000000000000000000000000000000000\n      dup2\n      mstore\n      0x04\n      add\n      tag_97\n      swap1\n      tag_98\n      jump\t// in\n    tag_97:\n      mload(0x40)\n      dup1\n      swap2\n      sub\n      swap1\n      revert\n    tag_96:\n        /* \"TradeEscrow.sol\":3655:3670  Trade storage t */\n      0x00\n        /* \"TradeEscrow.sol\":3673:3679  trades */\n      0x01\n        /* \"TradeEscrow.sol\":3673:3683  trades[id] */\n      0x00\n        /* \"TradeEscrow.sol\":3680:3682  id */\n      dup8\n        /* \"TradeEscrow.sol\":3673:3683  trades[id] */\n      dup2\n      mstore\n      0x20\n      add\n      swap1\n      dup2\n      mstore\n      0x20\n      add\n      0x00\n      keccak256\n        /* \"TradeEscrow.sol\":3655:3683  Trade storage t = trades[id] */\n      swap1\n      pop\n        /* \"TradeEscrow.sol\":3702:3703  t */\n      dup1\n        /* \"TradeEscrow.sol\":3702:3710  t.docSet */\n      0x05\n      add\n      0x00\n      swap1\n      sload\n      swap1\n      0x0100\n      exp\n      swap1\n      div\n      0xff\n      and\n        /* \"TradeEscrow.sol\":3694:3726  require(t.docSet, \"doc not set\") */\n      tag_100\n      jumpi\n      mload(0x40)\n      0x08c379a000000000000000000000000000000000000000000000000000000000\n      dup2\n      mstore\n      0x04\n      add\n      tag_101\n      swap1\n      tag_102\n      jump\t// in\n    tag_101:\n      mload(0x40)\n      dup1\n      swap2\n      sub\n      swap1\n      revert\n    tag_100:\n        /* \"TradeEscrow.sol\":3761:3762  t */\n      dup1\n        /* \"TradeEscrow.sol\":3761:3778  t.expectedDocHash */\n      0x04\n      add\n      sload\n        /* \"TradeEscrow.sol\":3745:3757  providedHash */\n      dup6\n        /* \"TradeEscrow.sol\":3745:3778  providedHash == t.expectedDocHash */\n      eq\n        /* \"TradeEscrow.sol\":3737:3796  require(providedHash == t.expectedDocHash, \"hash mismatch\") */\n      tag_103\n      jumpi\n      mload(0x40)\n      0x08c379a000000000000000000000000000000000000000000000000000000000\n      dup2\n      mstore\n      0x04\n      add\n      tag_104\n      swap1\n      tag_105\n      jump\t// in\n    tag_104:\n      mload(0x40)\n      dup1\n      swap2\n      sub\n      swap1\n      revert\n    tag_103:\n        /* \"TradeEscrow.sol\":3823:3827  true */\n      0x01\n        /* \"TradeEscrow.sol\":3807:3808  t */\n      dup2\n        /* \"TradeEscrow.sol\":3807:3820  t.docVerified */\n      0x05\n      add\n      0x01\n        /* \"TradeEscrow.sol\":3807:3827  t.docVerified = true */\n      0x0100\n      exp\n      dup2\n      sload\n      dup2\n      0xff\n      mul\n      not\n      and\n      swap1\n      dup4\n      iszero\n      iszero\n      mul\n      or\n      swap1\n      sstore\n      pop\n        /* \"TradeEscrow.sol\":3860:3862  id */\n      dup6\n        /* \"TradeEscrow.sol\":3843:3877  DocumentVerified(id, providedHash) */\n      0x6460c7b22727aa661cf23c166059400511ecae1285793c3456c535a4dbbe4e4e\n        /* \"TradeEscrow.sol\":3864:3876  providedHash */\n      dup7\n        /* \"TradeEscrow.sol\":3843:3877  DocumentVerified(id, providedHash) */\n      mload(0x40)\n      tag_106\n      swap2\n      swap1\n      tag_59\n      jump\t// in\n    tag_106:\n      mload(0x40)\n      dup1\n      swap2\n      sub\n      swap1\n      log2\n        /* \"TradeEscrow.sol\":3888:3902  _trySettle(id) */\n      tag_107\n        /* \"TradeEscrow.sol\":3899:3901  id */\n      dup7\n        /* \"TradeEscrow.sol\":3888:3898  _trySettle */\n      tag_108\n        /* \"TradeEscrow.sol\":3888:3902  _trySettle(id) */\n      jump\t// in\n    tag_107:\n        /* \"TradeEscrow.sol\":3644:3910  {... */\n      pop\n        /* \"TradeEscrow.sol\":1081:1082  _ */\n      pop\n      pop\n        /* \"TradeEscrow.sol\":3497:3910  function verifyDocument(uint256 id, bytes32 providedHash)... */\n      pop\n      pop\n      pop\n      jump\t// out\n        /* \"TradeEscrow.sol\":575:614  mapping(uint256 => Trade) public trades */\n    tag_29:\n      mstore(0x20, 0x01)\n      dup1\n      0x00\n      mstore\n      keccak256(0x00, 0x40)\n      0x00\n      swap2\n      pop\n      swap1\n      pop\n      dup1\n      0x00\n      add\n      0x00\n      swap1\n      sload\n      swap1\n      0x0100\n      exp\n      swap1\n      div\n      0xffffffffffffffffffffffffffffffffffffffff\n      and\n      swap1\n      dup1\n      0x01\n      add\n      0x00\n      swap1\n      sload\n      swap1\n      0x0100\n      exp\n      swap1\n      div\n      0xffffffffffffffffffffffffffffffffffffffff\n      and\n      swap1\n      dup1\n      0x02\n      add\n      0x00\n      swap1\n      sload\n      swap1\n      0x0100\n      exp\n      swap1\n      div\n      0xffffffffffffffffffffffffffffffffffffffff\n      and\n      swap1\n      dup1\n      0x03\n      add\n      sload\n      swap1\n      dup1\n      0x04\n      add\n      sload\n      swap1\n      dup1\n      0x05\n      add\n      0x00\n      swap1\n      sload\n      swap1\n      0x0100\n      exp\n      swap1\n      div\n      0xff\n      and\n      swap1\n      dup1\n      0x05\n      add\n      0x01\n      swap1\n      sload\n      swap1\n      0x0100\n      exp\n      swap1\n      div\n      0xff\n      and\n      swap1\n      dup1\n      0x05\n      add\n      0x02\n      swap1\n      sload\n      swap1\n      0x0100\n      exp\n      swap1\n      div\n      0xff\n      and\n      swap1\n      pop\n      dup9\n      jump\t// out\n        /* \"TradeEscrow.sol\":7250:7598  function getTrade(uint256 id) external view returns (... */\n    tag_35:\n        /* \"TradeEscrow.sol\":7313:7326  address buyer */\n      0x00\n        /* \"TradeEscrow.sol\":7328:7342  address seller */\n      0x00\n        /* \"TradeEscrow.sol\":7344:7360  address verifier */\n      0x00\n        /* \"TradeEscrow.sol\":7362:7376  uint256 amount */\n      0x00\n        /* \"TradeEscrow.sol\":7387:7410  bytes32 expectedDocHash */\n      0x00\n        /* \"TradeEscrow.sol\":7412:7428  bool docVerified */\n      0x00\n        /* \"TradeEscrow.sol\":7430:7441  State state */\n      0x00\n        /* \"TradeEscrow.sol\":7460:7475  Trade storage t */\n      0x00\n        /* \"TradeEscrow.sol\":7478:7484  trades */\n      0x01\n        /* \"TradeEscrow.sol\":7478:7488  trades[id] */\n      0x00\n        /* \"TradeEscrow.sol\":7485:7487  id */\n      dup11\n        /* \"TradeEscrow.sol\":7478:7488  trades[id] */\n      dup2\n      mstore\n      0x20\n      add\n      swap1\n      dup2\n      mstore\n      0x20\n      add\n      0x00\n      keccak256\n        /* \"TradeEscrow.sol\":7460:7488  Trade storage t = trades[id] */\n      swap1\n      pop\n        /* \"TradeEscrow.sol\":7507:7508  t */\n      dup1\n        /* \"TradeEscrow.sol\":7507:7514  t.buyer */\n      0x00\n      add\n      0x00\n      swap1\n      sload\n      swap1\n      0x0100\n      exp\n      swap1\n      div\n      0xffffffffffffffffffffffffffffffffffffffff\n      and\n        /* \"TradeEscrow.sol\":7516:7517  t */\n      dup2\n        /* \"TradeEscrow.sol\":7516:7524  t.seller */\n      0x01\n      add\n      0x00\n      swap1\n      sload\n      swap1\n      0x0100\n      exp\n      swap1\n      div\n      0xffffffffffffffffffffffffffffffffffffffff\n      and\n        /* \"TradeEscrow.sol\":7526:7527  t */\n      dup3\n        /* \"TradeEscrow.sol\":7526:7536  t.verifier */\n      0x02\n      add\n      0x00\n      swap1\n      sload\n      swap1\n      0x0100\n      exp\n      swap1\n      div\n      0xffffffffffffffffffffffffffffffffffffffff\n      and\n        /* \"TradeEscrow.sol\":7538:7539  t */\n      dup4\n        /* \"TradeEscrow.sol\":7538:7546  t.amount */\n      0x03\n      add\n      sload\n        /* \"TradeEscrow.sol\":7548:7549  t */\n      dup5\n        /* \"TradeEscrow.sol\":7548:7565  t.expectedDocHash */\n      0x04\n      add\n      sload\n        /* \"TradeEscrow.sol\":7567:7568  t */\n      dup6\n        /* \"TradeEscrow.sol\":7567:7580  t.docVerified */\n      0x05\n      add\n      0x01\n      swap1\n      sload\n      swap1\n      0x0100\n      exp\n      swap1\n      div\n      0xff\n      and\n        /* \"TradeEscrow.sol\":7582:7583  t */\n      dup7\n        /* \"TradeEscrow.sol\":7582:7589  t.state */\n      0x05\n      add\n      0x02\n      swap1\n      sload\n      swap1\n      0x0100\n      exp\n      swap1\n      div\n      0xff\n      and\n        /* \"TradeEscrow.sol\":7499:7590  return (t.buyer, t.seller, t.verifier, t.amount, t.expectedDocHash, t.docVerified, t.state) */\n      swap8\n      pop\n      swap8\n      pop\n      swap8\n      pop\n      swap8\n      pop\n      swap8\n      pop\n      swap8\n      pop\n      swap8\n      pop\n      pop\n        /* \"TradeEscrow.sol\":7250:7598  function getTrade(uint256 id) external view returns (... */\n      swap2\n      swap4\n      swap6\n      swap8\n      swap1\n      swap3\n      swap5\n      swap7\n      pop\n      jump\t// out\n        /* \"TradeEscrow.sol\":5029:5935  function resolveDispute(uint256 id, bool releaseToSeller)... */\n    tag_42:\n        /* \"TradeEscrow.sol\":1137:1144  arbiter */\n      immutable(\"0x7749cc8014201da2069c21d93ba99c584b6f62d393fde534ed47eac227e31561\")\n        /* \"TradeEscrow.sol\":1123:1144  msg.sender == arbiter */\n      0xffffffffffffffffffffffffffffffffffffffff\n      and\n        /* \"TradeEscrow.sol\":1123:1133  msg.sender */\n      caller\n        /* \"TradeEscrow.sol\":1123:1144  msg.sender == arbiter */\n      0xffffffffffffffffffffffffffffffffffffffff\n      and\n      eq\n        /* \"TradeEscrow.sol\":1115:1160  require(msg.sender == arbiter, \"Not arbiter\") */\n      tag_111\n      jumpi\n      mload(0x40)\n      0x08c379a000000000000000000000000000000000000000000000000000000000\n      dup2\n      mstore\n      0x04\n      add\n      tag_112\n      swap1\n      tag_113\n      jump\t// in\n    tag_112:\n      mload(0x40)\n      dup1\n      swap2\n      sub\n      swap1\n      revert\n    tag_111:\n        /* \"TradeEscrow.sol\":693:699  locked */\n      0x02\n      0x00\n      swap1\n      sload\n      swap1\n      0x0100\n      exp\n      swap1\n      div\n      0xff\n      and\n        /* \"TradeEscrow.sol\":692:699  !locked */\n      iszero\n        /* \"TradeEscrow.sol\":684:714  require(!locked, \"Reentrancy\") */\n      tag_115\n      jumpi\n      mload(0x40)\n      0x08c379a000000000000000000000000000000000000000000000000000000000\n      dup2\n      mstore\n      0x04\n      add\n      tag_116\n      swap1\n      tag_117\n      jump\t// in\n    tag_116:\n      mload(0x40)\n      dup1\n      swap2\n      sub\n      swap1\n      revert\n    tag_115:\n        /* \"TradeEscrow.sol\":734:738  true */\n      0x01\n        /* \"TradeEscrow.sol\":725:731  locked */\n      0x02\n      0x00\n        /* \"TradeEscrow.sol\":725:738  locked = true */\n      0x0100\n      exp\n      dup2\n      sload\n      dup2\n      0xff\n      mul\n      not\n      and\n      swap1\n      dup4\n      iszero\n      iszero\n      mul\n      or\n      swap1\n      sstore\n      pop\n        /* \"TradeEscrow.sol\":5164:5179  Trade storage t */\n      0x00\n        /* \"TradeEscrow.sol\":5182:5188  trades */\n      0x01\n        /* \"TradeEscrow.sol\":5182:5192  trades[id] */\n      0x00\n        /* \"TradeEscrow.sol\":5189:5191  id */\n      dup5\n        /* \"TradeEscrow.sol\":5182:5192  trades[id] */\n      dup2\n      mstore\n      0x20\n      add\n      swap1\n      dup2\n      mstore\n      0x20\n      add\n      0x00\n      keccak256\n        /* \"TradeEscrow.sol\":5164:5192  Trade storage t = trades[id] */\n      swap1\n      pop\n        /* \"TradeEscrow.sol\":5236:5250  State.Disputed */\n      0x05\n        /* \"TradeEscrow.sol\":5225:5250  t.state == State.Disputed */\n      0x06\n      dup2\n      gt\n      iszero\n      tag_119\n      jumpi\n      tag_120\n      tag_93\n      jump\t// in\n    tag_120:\n    tag_119:\n        /* \"TradeEscrow.sol\":5225:5226  t */\n      dup2\n        /* \"TradeEscrow.sol\":5225:5232  t.state */\n      0x05\n      add\n      0x02\n      swap1\n      sload\n      swap1\n      0x0100\n      exp\n      swap1\n      div\n      0xff\n      and\n        /* \"TradeEscrow.sol\":5225:5250  t.state == State.Disputed */\n      0x06\n      dup2\n      gt\n      iszero\n      tag_121\n      jumpi\n      tag_122\n      tag_93\n      jump\t// in\n    tag_122:\n    tag_121:\n      eq\n        /* \"TradeEscrow.sol\":5225:5282  t.state == State.Disputed || t.state == State.PaymentHeld */\n      dup1\n      tag_123\n      jumpi\n      pop\n        /* \"TradeEscrow.sol\":5265:5282  State.PaymentHeld */\n      0x01\n        /* \"TradeEscrow.sol\":5254:5282  t.state == State.PaymentHeld */\n      0x06\n      dup2\n      gt\n      iszero\n      tag_124\n      jumpi\n      tag_125\n      tag_93\n      jump\t// in\n    tag_125:\n    tag_124:\n        /* \"TradeEscrow.sol\":5254:5255  t */\n      dup2\n        /* \"TradeEscrow.sol\":5254:5261  t.state */\n      0x05\n      add\n      0x02\n      swap1\n      sload\n      swap1\n      0x0100\n      exp\n      swap1\n      div\n      0xff\n      and\n        /* \"TradeEscrow.sol\":5254:5282  t.state == State.PaymentHeld */\n      0x06\n      dup2\n      gt\n      iszero\n      tag_126\n      jumpi\n      tag_127\n      tag_93\n      jump\t// in\n    tag_127:\n    tag_126:\n      eq\n        /* \"TradeEscrow.sol\":5225:5282  t.state == State.Disputed || t.state == State.PaymentHeld */\n    tag_123:\n        /* \"TradeEscrow.sol\":5225:5310  t.state == State.Disputed || t.state == State.PaymentHeld || t.state == State.Shipped */\n      dup1\n      tag_128\n      jumpi\n      pop\n        /* \"TradeEscrow.sol\":5297:5310  State.Shipped */\n      0x02\n        /* \"TradeEscrow.sol\":5286:5310  t.state == State.Shipped */\n      0x06\n      dup2\n      gt\n      iszero\n      tag_129\n      jumpi\n      tag_130\n      tag_93\n      jump\t// in\n    tag_130:\n    tag_129:\n        /* \"TradeEscrow.sol\":5286:5287  t */\n      dup2\n        /* \"TradeEscrow.sol\":5286:5293  t.state */\n      0x05\n      add\n      0x02\n      swap1\n      sload\n      swap1\n      0x0100\n      exp\n      swap1\n      div\n      0xff\n      and\n        /* \"TradeEscrow.sol\":5286:5310  t.state == State.Shipped */\n      0x06\n      dup2\n      gt\n      iszero\n      tag_131\n      jumpi\n      tag_132\n      tag_93\n      jump\t// in\n    tag_132:\n    tag_131:\n      eq\n        /* \"TradeEscrow.sol\":5225:5310  t.state == State.Disputed || t.state == State.PaymentHeld || t.state == State.Shipped */\n    tag_128:\n        /* \"TradeEscrow.sol\":5225:5340  t.state == State.Disputed || t.state == State.PaymentHeld || t.state == State.Shipped || t.state == State.Delivered */\n      dup1\n      tag_133\n      jumpi\n      pop\n        /* \"TradeEscrow.sol\":5325:5340  State.Delivered */\n      0x03\n        /* \"TradeEscrow.sol\":5314:5340  t.state == State.Delivered */\n      0x06\n      dup2\n      gt\n      iszero\n      tag_134\n      jumpi\n      tag_135\n      tag_93\n      jump\t// in\n    tag_135:\n    tag_134:\n        /* \"TradeEscrow.sol\":5314:5315  t */\n      dup2\n        /* \"TradeEscrow.sol\":5314:5321  t.state */\n      0x05\n      add\n      0x02\n      swap1\n      sload\n      swap1\n      0x0100\n      exp\n      swap1\n      div\n      0xff\n      and\n        /* \"TradeEscrow.sol\":5314:5340  t.state == State.Delivered */\n      0x06\n      dup2\n      gt\n      iszero\n      tag_136\n      jumpi\n      tag_137\n      tag_93\n      jump\t// in\n    tag_137:\n    tag_136:\n      eq\n        /* \"TradeEscrow.sol\":5225:5340  t.state == State.Disputed || t.state == State.PaymentHeld || t.state == State.Shipped || t.state == State.Delivered */\n    tag_133:\n        /* \"TradeEscrow.sol\":5203:5377  require(... */\n      tag_138\n      jumpi\n      mload(0x40)\n      0x08c379a000000000000000000000000000000000000000000000000000000000\n      dup2\n      mstore\n      0x04\n      add\n      tag_139\n      swap1\n      tag_140\n      jump\t// in\n    tag_139:\n      mload(0x40)\n      dup1\n      swap2\n      sub\n      swap1\n      revert\n    tag_138:\n        /* \"TradeEscrow.sol\":5388:5402  uint256 amount */\n      0x00\n        /* \"TradeEscrow.sol\":5405:5406  t */\n      dup2\n        /* \"TradeEscrow.sol\":5405:5413  t.amount */\n      0x03\n      add\n      sload\n        /* \"TradeEscrow.sol\":5388:5413  uint256 amount = t.amount */\n      swap1\n      pop\n        /* \"TradeEscrow.sol\":5435:5436  0 */\n      0x00\n        /* \"TradeEscrow.sol\":5424:5425  t */\n      dup3\n        /* \"TradeEscrow.sol\":5424:5432  t.amount */\n      0x03\n      add\n        /* \"TradeEscrow.sol\":5424:5436  t.amount = 0 */\n      dup2\n      swap1\n      sstore\n      pop\n        /* \"TradeEscrow.sol\":5457:5472  State.Completed */\n      0x04\n        /* \"TradeEscrow.sol\":5447:5448  t */\n      dup3\n        /* \"TradeEscrow.sol\":5447:5454  t.state */\n      0x05\n      add\n      0x02\n        /* \"TradeEscrow.sol\":5447:5472  t.state = State.Completed */\n      0x0100\n      exp\n      dup2\n      sload\n      dup2\n      0xff\n      mul\n      not\n      and\n      swap1\n      dup4\n      0x06\n      dup2\n      gt\n      iszero\n      tag_141\n      jumpi\n      tag_142\n      tag_93\n      jump\t// in\n    tag_142:\n    tag_141:\n      mul\n      or\n      swap1\n      sstore\n      pop\n        /* \"TradeEscrow.sol\":5487:5502  releaseToSeller */\n      dup3\n        /* \"TradeEscrow.sol\":5483:5928  if (releaseToSeller) {... */\n      iszero\n      tag_143\n      jumpi\n        /* \"TradeEscrow.sol\":5520:5527  bool ok */\n      0x00\n        /* \"TradeEscrow.sol\":5532:5533  t */\n      dup3\n        /* \"TradeEscrow.sol\":5532:5540  t.seller */\n      0x01\n      add\n      0x00\n      swap1\n      sload\n      swap1\n      0x0100\n      exp\n      swap1\n      div\n      0xffffffffffffffffffffffffffffffffffffffff\n      and\n        /* \"TradeEscrow.sol\":5532:5545  t.seller.call */\n      0xffffffffffffffffffffffffffffffffffffffff\n      and\n        /* \"TradeEscrow.sol\":5553:5559  amount */\n      dup3\n        /* \"TradeEscrow.sol\":5532:5564  t.seller.call{value: amount}(\"\") */\n      mload(0x40)\n      tag_144\n      swap1\n      tag_145\n      jump\t// in\n    tag_144:\n      0x00\n      mload(0x40)\n      dup1\n      dup4\n      sub\n      dup2\n      dup6\n      dup8\n      gas\n      call\n      swap3\n      pop\n      pop\n      pop\n      returndatasize\n      dup1\n      0x00\n      dup2\n      eq\n      tag_148\n      jumpi\n      mload(0x40)\n      swap2\n      pop\n      and(add(returndatasize, 0x3f), not(0x1f))\n      dup3\n      add\n      0x40\n      mstore\n      returndatasize\n      dup3\n      mstore\n      returndatasize\n      0x00\n      0x20\n      dup5\n      add\n      returndatacopy\n      jump(tag_147)\n    tag_148:\n      0x60\n      swap2\n      pop\n    tag_147:\n      pop\n        /* \"TradeEscrow.sol\":5519:5564  (bool ok,) = t.seller.call{value: amount}(\"\") */\n      pop\n      swap1\n      pop\n        /* \"TradeEscrow.sol\":5587:5589  ok */\n      dup1\n        /* \"TradeEscrow.sol\":5579:5603  require(ok, \"send fail\") */\n      tag_149\n      jumpi\n      mload(0x40)\n      0x08c379a000000000000000000000000000000000000000000000000000000000\n      dup2\n      mstore\n      0x04\n      add\n      tag_150\n      swap1\n      tag_151\n      jump\t// in\n    tag_150:\n      mload(0x40)\n      dup1\n      swap2\n      sub\n      swap1\n      revert\n    tag_149:\n        /* \"TradeEscrow.sol\":5639:5641  id */\n      dup5\n        /* \"TradeEscrow.sol\":5623:5660  PaymentReleased(id, t.seller, amount) */\n      0x21d71db5be59bb9fa133895586b7404307dd33fb93b16db09dc6f1d9d7d231b0\n        /* \"TradeEscrow.sol\":5643:5644  t */\n      dup5\n        /* \"TradeEscrow.sol\":5643:5651  t.seller */\n      0x01\n      add\n      0x00\n      swap1\n      sload\n      swap1\n      0x0100\n      exp\n      swap1\n      div\n      0xffffffffffffffffffffffffffffffffffffffff\n      and\n        /* \"TradeEscrow.sol\":5653:5659  amount */\n      dup5\n        /* \"TradeEscrow.sol\":5623:5660  PaymentReleased(id, t.seller, amount) */\n      mload(0x40)\n      tag_152\n      swap3\n      swap2\n      swap1\n      tag_153\n      jump\t// in\n    tag_152:\n      mload(0x40)\n      dup1\n      swap2\n      sub\n      swap1\n      log2\n        /* \"TradeEscrow.sol\":5696:5698  id */\n      dup5\n        /* \"TradeEscrow.sol\":5680:5705  DisputeResolved(id, true) */\n      0x5a87909bff68caaaaf0b3fd9c74eeccc928832f879315e5c6fb7a73612f26c0c\n        /* \"TradeEscrow.sol\":5700:5704  true */\n      0x01\n        /* \"TradeEscrow.sol\":5680:5705  DisputeResolved(id, true) */\n      mload(0x40)\n      tag_154\n      swap2\n      swap1\n      tag_155\n      jump\t// in\n    tag_154:\n      mload(0x40)\n      dup1\n      swap2\n      sub\n      swap1\n      log2\n        /* \"TradeEscrow.sol\":5504:5717  {... */\n      pop\n        /* \"TradeEscrow.sol\":5483:5928  if (releaseToSeller) {... */\n      jump(tag_156)\n    tag_143:\n        /* \"TradeEscrow.sol\":5739:5746  bool ok */\n      0x00\n        /* \"TradeEscrow.sol\":5751:5752  t */\n      dup3\n        /* \"TradeEscrow.sol\":5751:5758  t.buyer */\n      0x00\n      add\n      0x00\n      swap1\n      sload\n      swap1\n      0x0100\n      exp\n      swap1\n      div\n      0xffffffffffffffffffffffffffffffffffffffff\n      and\n        /* \"TradeEscrow.sol\":5751:5763  t.buyer.call */\n      0xffffffffffffffffffffffffffffffffffffffff\n      and\n        /* \"TradeEscrow.sol\":5771:5777  amount */\n      dup3\n        /* \"TradeEscrow.sol\":5751:5782  t.buyer.call{value: amount}(\"\") */\n      mload(0x40)\n      tag_157\n      swap1\n      tag_145\n      jump\t// in\n    tag_157:\n      0x00\n      mload(0x40)\n      dup1\n      dup4\n      sub\n      dup2\n      dup6\n      dup8\n      gas\n      call\n      swap3\n      pop\n      pop\n      pop\n      returndatasize\n      dup1\n      0x00\n      dup2\n      eq\n      tag_160\n      jumpi\n      mload(0x40)\n      swap2\n      pop\n      and(add(returndatasize, 0x3f), not(0x1f))\n      dup3\n      add\n      0x40\n      mstore\n      returndatasize\n      dup3\n      mstore\n      returndatasize\n      0x00\n      0x20\n      dup5\n      add\n      returndatacopy\n      jump(tag_159)\n    tag_160:\n      0x60\n      swap2\n      pop\n    tag_159:\n      pop\n        /* \"TradeEscrow.sol\":5738:5782  (bool ok,) = t.buyer.call{value: amount}(\"\") */\n      pop\n      swap1\n      pop\n        /* \"TradeEscrow.sol\":5805:5807  ok */\n      dup1\n        /* \"TradeEscrow.sol\":5797:5821  require(ok, \"send fail\") */\n      tag_161\n      jumpi\n      mload(0x40)\n      0x08c379a000000000000000000000000000000000000000000000000000000000\n      dup2\n      mstore\n      0x04\n      add\n      tag_162\n      swap1\n      tag_151\n      jump\t// in\n    tag_162:\n      mload(0x40)\n      dup1\n      swap2\n      sub\n      swap1\n      revert\n    tag_161:\n        /* \"TradeEscrow.sol\":5850:5852  id */\n      dup5\n        /* \"TradeEscrow.sol\":5841:5870  Refunded(id, t.buyer, amount) */\n      0x7ca5472b7ea78c2c0141c5a12ee6d170cf4ce8ed06be3d22c8252ddfc7a6a2c4\n        /* \"TradeEscrow.sol\":5854:5855  t */\n      dup5\n        /* \"TradeEscrow.sol\":5854:5861  t.buyer */\n      0x00\n      add\n      0x00\n      swap1\n      sload\n      swap1\n      0x0100\n      exp\n      swap1\n      div\n      0xffffffffffffffffffffffffffffffffffffffff\n      and\n        /* \"TradeEscrow.sol\":5863:5869  amount */\n      dup5\n        /* \"TradeEscrow.sol\":5841:5870  Refunded(id, t.buyer, amount) */\n      mload(0x40)\n      tag_163\n      swap3\n      swap2\n      swap1\n      tag_153\n      jump\t// in\n    tag_163:\n      mload(0x40)\n      dup1\n      swap2\n      sub\n      swap1\n      log2\n        /* \"TradeEscrow.sol\":5906:5908  id */\n      dup5\n        /* \"TradeEscrow.sol\":5890:5916  DisputeResolved(id, false) */\n      0x5a87909bff68caaaaf0b3fd9c74eeccc928832f879315e5c6fb7a73612f26c0c\n        /* \"TradeEscrow.sol\":5910:5915  false */\n      0x00\n        /* \"TradeEscrow.sol\":5890:5916  DisputeResolved(id, false) */\n      mload(0x40)\n      tag_164\n      swap2\n      swap1\n      tag_155\n      jump\t// in\n    tag_164:\n      mload(0x40)\n      dup1\n      swap2\n      sub\n      swap1\n      log2\n        /* \"TradeEscrow.sol\":5723:5928  {... */\n      pop\n        /* \"TradeEscrow.sol\":5483:5928  if (releaseToSeller) {... */\n    tag_156:\n        /* \"TradeEscrow.sol\":5153:5935  {... */\n      pop\n      pop\n        /* \"TradeEscrow.sol\":770:775  false */\n      0x00\n        /* \"TradeEscrow.sol\":761:767  locked */\n      0x02\n      0x00\n        /* \"TradeEscrow.sol\":761:775  locked = false */\n      0x0100\n      exp\n      dup2\n      sload\n      dup2\n      0xff\n      mul\n      not\n      and\n      swap1\n      dup4\n      iszero\n      iszero\n      mul\n      or\n      swap1\n      sstore\n      pop\n        /* \"TradeEscrow.sol\":5029:5935  function resolveDispute(uint256 id, bool releaseToSeller)... */\n      pop\n      pop\n      jump\t// out\n        /* \"TradeEscrow.sol\":4582:4953  function raiseDispute(uint256 id, string calldata reason) external {... */\n    tag_47:\n        /* \"TradeEscrow.sol\":4660:4675  Trade storage t */\n      0x00\n        /* \"TradeEscrow.sol\":4678:4684  trades */\n      0x01\n        /* \"TradeEscrow.sol\":4678:4688  trades[id] */\n      0x00\n        /* \"TradeEscrow.sol\":4685:4687  id */\n      dup6\n        /* \"TradeEscrow.sol\":4678:4688  trades[id] */\n      dup2\n      mstore\n      0x20\n      add\n      swap1\n      dup2\n      mstore\n      0x20\n      add\n      0x00\n      keccak256\n        /* \"TradeEscrow.sol\":4660:4688  Trade storage t = trades[id] */\n      swap1\n      pop\n        /* \"TradeEscrow.sol\":4721:4722  t */\n      dup1\n        /* \"TradeEscrow.sol\":4721:4728  t.buyer */\n      0x00\n      add\n      0x00\n      swap1\n      sload\n      swap1\n      0x0100\n      exp\n      swap1\n      div\n      0xffffffffffffffffffffffffffffffffffffffff\n      and\n        /* \"TradeEscrow.sol\":4707:4728  msg.sender == t.buyer */\n      0xffffffffffffffffffffffffffffffffffffffff\n      and\n        /* \"TradeEscrow.sol\":4707:4717  msg.sender */\n      caller\n        /* \"TradeEscrow.sol\":4707:4728  msg.sender == t.buyer */\n      0xffffffffffffffffffffffffffffffffffffffff\n      and\n      eq\n        /* \"TradeEscrow.sol\":4707:4754  msg.sender == t.buyer || msg.sender == t.seller */\n      dup1\n      tag_166\n      jumpi\n      pop\n        /* \"TradeEscrow.sol\":4746:4747  t */\n      dup1\n        /* \"TradeEscrow.sol\":4746:4754  t.seller */\n      0x01\n      add\n      0x00\n      swap1\n      sload\n      swap1\n      0x0100\n      exp\n      swap1\n      div\n      0xffffffffffffffffffffffffffffffffffffffff\n      and\n        /* \"TradeEscrow.sol\":4732:4754  msg.sender == t.seller */\n      0xffffffffffffffffffffffffffffffffffffffff\n      and\n        /* \"TradeEscrow.sol\":4732:4742  msg.sender */\n      caller\n        /* \"TradeEscrow.sol\":4732:4754  msg.sender == t.seller */\n      0xffffffffffffffffffffffffffffffffffffffff\n      and\n      eq\n        /* \"TradeEscrow.sol\":4707:4754  msg.sender == t.buyer || msg.sender == t.seller */\n    tag_166:\n        /* \"TradeEscrow.sol\":4699:4768  require(msg.sender == t.buyer || msg.sender == t.seller, \"not party\") */\n      tag_167\n      jumpi\n      mload(0x40)\n      0x08c379a000000000000000000000000000000000000000000000000000000000\n      dup2\n      mstore\n      0x04\n      add\n      tag_168\n      swap1\n      tag_169\n      jump\t// in\n    tag_168:\n      mload(0x40)\n      dup1\n      swap2\n      sub\n      swap1\n      revert\n    tag_167:\n        /* \"TradeEscrow.sol\":4798:4813  State.Completed */\n      0x04\n        /* \"TradeEscrow.sol\":4787:4813  t.state != State.Completed */\n      0x06\n      dup2\n      gt\n      iszero\n      tag_170\n      jumpi\n      tag_171\n      tag_93\n      jump\t// in\n    tag_171:\n    tag_170:\n        /* \"TradeEscrow.sol\":4787:4788  t */\n      dup2\n        /* \"TradeEscrow.sol\":4787:4794  t.state */\n      0x05\n      add\n      0x02\n      swap1\n      sload\n      swap1\n      0x0100\n      exp\n      swap1\n      div\n      0xff\n      and\n        /* \"TradeEscrow.sol\":4787:4813  t.state != State.Completed */\n      0x06\n      dup2\n      gt\n      iszero\n      tag_172\n      jumpi\n      tag_173\n      tag_93\n      jump\t// in\n    tag_173:\n    tag_172:\n      eq\n      iszero\n        /* \"TradeEscrow.sol\":4787:4843  t.state != State.Completed && t.state != State.Cancelled */\n      dup1\n      iszero\n      tag_174\n      jumpi\n      pop\n        /* \"TradeEscrow.sol\":4828:4843  State.Cancelled */\n      0x06\n        /* \"TradeEscrow.sol\":4817:4843  t.state != State.Cancelled */\n      dup1\n      dup2\n      gt\n      iszero\n      tag_175\n      jumpi\n      tag_176\n      tag_93\n      jump\t// in\n    tag_176:\n    tag_175:\n        /* \"TradeEscrow.sol\":4817:4818  t */\n      dup2\n        /* \"TradeEscrow.sol\":4817:4824  t.state */\n      0x05\n      add\n      0x02\n      swap1\n      sload\n      swap1\n      0x0100\n      exp\n      swap1\n      div\n      0xff\n      and\n        /* \"TradeEscrow.sol\":4817:4843  t.state != State.Cancelled */\n      0x06\n      dup2\n      gt\n      iszero\n      tag_177\n      jumpi\n      tag_178\n      tag_93\n      jump\t// in\n    tag_178:\n    tag_177:\n      eq\n      iszero\n        /* \"TradeEscrow.sol\":4787:4843  t.state != State.Completed && t.state != State.Cancelled */\n    tag_174:\n        /* \"TradeEscrow.sol\":4779:4857  require(t.state != State.Completed && t.state != State.Cancelled, \"finalized\") */\n      tag_179\n      jumpi\n      mload(0x40)\n      0x08c379a000000000000000000000000000000000000000000000000000000000\n      dup2\n      mstore\n      0x04\n      add\n      tag_180\n      swap1\n      tag_181\n      jump\t// in\n    tag_180:\n      mload(0x40)\n      dup1\n      swap2\n      sub\n      swap1\n      revert\n    tag_179:\n        /* \"TradeEscrow.sol\":4878:4892  State.Disputed */\n      0x05\n        /* \"TradeEscrow.sol\":4868:4869  t */\n      dup2\n        /* \"TradeEscrow.sol\":4868:4875  t.state */\n      0x05\n      add\n      0x02\n        /* \"TradeEscrow.sol\":4868:4892  t.state = State.Disputed */\n      0x0100\n      exp\n      dup2\n      sload\n      dup2\n      0xff\n      mul\n      not\n      and\n      swap1\n      dup4\n      0x06\n      dup2\n      gt\n      iszero\n      tag_182\n      jumpi\n      tag_183\n      tag_93\n      jump\t// in\n    tag_183:\n    tag_182:\n      mul\n      or\n      swap1\n      sstore\n      pop\n        /* \"TradeEscrow.sol\":4922:4924  id */\n      dup4\n        /* \"TradeEscrow.sol\":4908:4945  DisputeRaised(id, msg.sender, reason) */\n      0x1b84372106d77c6daea0dda35bbc0229d10a83f58ec899092884925193682341\n        /* \"TradeEscrow.sol\":4926:4936  msg.sender */\n      caller\n        /* \"TradeEscrow.sol\":4938:4944  reason */\n      dup6\n      dup6\n        /* \"TradeEscrow.sol\":4908:4945  DisputeRaised(id, msg.sender, reason) */\n      mload(0x40)\n      tag_184\n      swap4\n      swap3\n      swap2\n      swap1\n      tag_185\n      jump\t// in\n    tag_184:\n      mload(0x40)\n      dup1\n      swap2\n      sub\n      swap1\n      log2\n        /* \"TradeEscrow.sol\":4649:4953  {... */\n      pop\n        /* \"TradeEscrow.sol\":4582:4953  function raiseDispute(uint256 id, string calldata reason) external {... */\n      pop\n      pop\n      pop\n      jump\t// out\n        /* \"TradeEscrow.sol\":547:568  uint256 public nextId */\n    tag_50:\n      sload(0x00)\n      dup2\n      jump\t// out\n        /* \"TradeEscrow.sol\":7078:7205  function hashString(string calldata s) external pure returns (bytes32) {... */\n    tag_57:\n        /* \"TradeEscrow.sol\":7140:7147  bytes32 */\n      0x00\n        /* \"TradeEscrow.sol\":7194:7195  s */\n      dup3\n      dup3\n        /* \"TradeEscrow.sol\":7177:7196  abi.encodePacked(s) */\n      add(0x20, mload(0x40))\n      tag_187\n      swap3\n      swap2\n      swap1\n      tag_188\n      jump\t// in\n    tag_187:\n      mload(0x40)\n      0x20\n      dup2\n      dup4\n      sub\n      sub\n      dup2\n      mstore\n      swap1\n      0x40\n      mstore\n        /* \"TradeEscrow.sol\":7167:7197  keccak256(abi.encodePacked(s)) */\n      dup1\n      mload\n      swap1\n      0x20\n      add\n      keccak256\n        /* \"TradeEscrow.sol\":7160:7197  return keccak256(abi.encodePacked(s)) */\n      swap1\n      pop\n        /* \"TradeEscrow.sol\":7078:7205  function hashString(string calldata s) external pure returns (bytes32) {... */\n      swap3\n      swap2\n      pop\n      pop\n      jump\t// out\n        /* \"TradeEscrow.sol\":6027:6456  function cancelBeforeShipment(uint256 id)... */\n    tag_63:\n        /* \"TradeEscrow.sol\":6106:6108  id */\n      dup1\n        /* \"TradeEscrow.sol\":845:851  trades */\n      0x01\n        /* \"TradeEscrow.sol\":845:855  trades[id] */\n      0x00\n        /* \"TradeEscrow.sol\":852:854  id */\n      dup3\n        /* \"TradeEscrow.sol\":845:855  trades[id] */\n      dup2\n      mstore\n      0x20\n      add\n      swap1\n      dup2\n      mstore\n      0x20\n      add\n      0x00\n      keccak256\n        /* \"TradeEscrow.sol\":845:861  trades[id].buyer */\n      0x00\n      add\n      0x00\n      swap1\n      sload\n      swap1\n      0x0100\n      exp\n      swap1\n      div\n      0xffffffffffffffffffffffffffffffffffffffff\n      and\n        /* \"TradeEscrow.sol\":831:861  msg.sender == trades[id].buyer */\n      0xffffffffffffffffffffffffffffffffffffffff\n      and\n        /* \"TradeEscrow.sol\":831:841  msg.sender */\n      caller\n        /* \"TradeEscrow.sol\":831:861  msg.sender == trades[id].buyer */\n      0xffffffffffffffffffffffffffffffffffffffff\n      and\n      eq\n        /* \"TradeEscrow.sol\":823:875  require(msg.sender == trades[id].buyer, \"Not buyer\") */\n      tag_190\n      jumpi\n      mload(0x40)\n      0x08c379a000000000000000000000000000000000000000000000000000000000\n      dup2\n      mstore\n      0x04\n      add\n      tag_191\n      swap1\n      tag_192\n      jump\t// in\n    tag_191:\n      mload(0x40)\n      dup1\n      swap2\n      sub\n      swap1\n      revert\n    tag_190:\n        /* \"TradeEscrow.sol\":6127:6129  id */\n      dup2\n        /* \"TradeEscrow.sol\":6131:6148  State.PaymentHeld */\n      0x01\n        /* \"TradeEscrow.sol\":1239:1240  s */\n      dup1\n        /* \"TradeEscrow.sol\":1219:1240  trades[id].state == s */\n      0x06\n      dup2\n      gt\n      iszero\n      tag_194\n      jumpi\n      tag_195\n      tag_93\n      jump\t// in\n    tag_195:\n    tag_194:\n        /* \"TradeEscrow.sol\":1219:1225  trades */\n      0x01\n        /* \"TradeEscrow.sol\":1219:1229  trades[id] */\n      0x00\n        /* \"TradeEscrow.sol\":1226:1228  id */\n      dup5\n        /* \"TradeEscrow.sol\":1219:1229  trades[id] */\n      dup2\n      mstore\n      0x20\n      add\n      swap1\n      dup2\n      mstore\n      0x20\n      add\n      0x00\n      keccak256\n        /* \"TradeEscrow.sol\":1219:1235  trades[id].state */\n      0x05\n      add\n      0x02\n      swap1\n      sload\n      swap1\n      0x0100\n      exp\n      swap1\n      div\n      0xff\n      and\n        /* \"TradeEscrow.sol\":1219:1240  trades[id].state == s */\n      0x06\n      dup2\n      gt\n      iszero\n      tag_196\n      jumpi\n      tag_197\n      tag_93\n      jump\t// in\n    tag_197:\n    tag_196:\n      eq\n        /* \"TradeEscrow.sol\":1211:1254  require(trades[id].state == s, \"Bad state\") */\n      tag_198\n      jumpi\n      mload(0x40)\n      0x08c379a000000000000000000000000000000000000000000000000000000000\n      dup2\n      mstore\n      0x04\n      add\n      tag_199\n      swap1\n      tag_98\n      jump\t// in\n    tag_199:\n      mload(0x40)\n      dup1\n      swap2\n      sub\n      swap1\n      revert\n    tag_198:\n        /* \"TradeEscrow.sol\":693:699  locked */\n      0x02\n      0x00\n      swap1\n      sload\n      swap1\n      0x0100\n      exp\n      swap1\n      div\n      0xff\n      and\n        /* \"TradeEscrow.sol\":692:699  !locked */\n      iszero\n        /* \"TradeEscrow.sol\":684:714  require(!locked, \"Reentrancy\") */\n      tag_201\n      jumpi\n      mload(0x40)\n      0x08c379a000000000000000000000000000000000000000000000000000000000\n      dup2\n      mstore\n      0x04\n      add\n      tag_202\n      swap1\n      tag_117\n      jump\t// in\n    tag_202:\n      mload(0x40)\n      dup1\n      swap2\n      sub\n      swap1\n      revert\n    tag_201:\n        /* \"TradeEscrow.sol\":734:738  true */\n      0x01\n        /* \"TradeEscrow.sol\":725:731  locked */\n      0x02\n      0x00\n        /* \"TradeEscrow.sol\":725:738  locked = true */\n      0x0100\n      exp\n      dup2\n      sload\n      dup2\n      0xff\n      mul\n      not\n      and\n      swap1\n      dup4\n      iszero\n      iszero\n      mul\n      or\n      swap1\n      sstore\n      pop\n        /* \"TradeEscrow.sol\":6188:6203  Trade storage t */\n      0x00\n        /* \"TradeEscrow.sol\":6206:6212  trades */\n      0x01\n        /* \"TradeEscrow.sol\":6206:6216  trades[id] */\n      0x00\n        /* \"TradeEscrow.sol\":6213:6215  id */\n      dup7\n        /* \"TradeEscrow.sol\":6206:6216  trades[id] */\n      dup2\n      mstore\n      0x20\n      add\n      swap1\n      dup2\n      mstore\n      0x20\n      add\n      0x00\n      keccak256\n        /* \"TradeEscrow.sol\":6188:6216  Trade storage t = trades[id] */\n      swap1\n      pop\n        /* \"TradeEscrow.sol\":6227:6241  uint256 amount */\n      0x00\n        /* \"TradeEscrow.sol\":6244:6245  t */\n      dup2\n        /* \"TradeEscrow.sol\":6244:6252  t.amount */\n      0x03\n      add\n      sload\n        /* \"TradeEscrow.sol\":6227:6252  uint256 amount = t.amount */\n      swap1\n      pop\n        /* \"TradeEscrow.sol\":6274:6275  0 */\n      0x00\n        /* \"TradeEscrow.sol\":6263:6264  t */\n      dup3\n        /* \"TradeEscrow.sol\":6263:6271  t.amount */\n      0x03\n      add\n        /* \"TradeEscrow.sol\":6263:6275  t.amount = 0 */\n      dup2\n      swap1\n      sstore\n      pop\n        /* \"TradeEscrow.sol\":6296:6311  State.Cancelled */\n      0x06\n        /* \"TradeEscrow.sol\":6286:6287  t */\n      dup3\n        /* \"TradeEscrow.sol\":6286:6293  t.state */\n      0x05\n      add\n      0x02\n        /* \"TradeEscrow.sol\":6286:6311  t.state = State.Cancelled */\n      0x0100\n      exp\n      dup2\n      sload\n      dup2\n      0xff\n      mul\n      not\n      and\n      swap1\n      dup4\n      0x06\n      dup2\n      gt\n      iszero\n      tag_204\n      jumpi\n      tag_205\n      tag_93\n      jump\t// in\n    tag_205:\n    tag_204:\n      mul\n      or\n      swap1\n      sstore\n      pop\n        /* \"TradeEscrow.sol\":6323:6330  bool ok */\n      0x00\n        /* \"TradeEscrow.sol\":6335:6336  t */\n      dup3\n        /* \"TradeEscrow.sol\":6335:6342  t.buyer */\n      0x00\n      add\n      0x00\n      swap1\n      sload\n      swap1\n      0x0100\n      exp\n      swap1\n      div\n      0xffffffffffffffffffffffffffffffffffffffff\n      and\n        /* \"TradeEscrow.sol\":6335:6347  t.buyer.call */\n      0xffffffffffffffffffffffffffffffffffffffff\n      and\n        /* \"TradeEscrow.sol\":6355:6361  amount */\n      dup3\n        /* \"TradeEscrow.sol\":6335:6366  t.buyer.call{value: amount}(\"\") */\n      mload(0x40)\n      tag_206\n      swap1\n      tag_145\n      jump\t// in\n    tag_206:\n      0x00\n      mload(0x40)\n      dup1\n      dup4\n      sub\n      dup2\n      dup6\n      dup8\n      gas\n      call\n      swap3\n      pop\n      pop\n      pop\n      returndatasize\n      dup1\n      0x00\n      dup2\n      eq\n      tag_209\n      jumpi\n      mload(0x40)\n      swap2\n      pop\n      and(add(returndatasize, 0x3f), not(0x1f))\n      dup3\n      add\n      0x40\n      mstore\n      returndatasize\n      dup3\n      mstore\n      returndatasize\n      0x00\n      0x20\n      dup5\n      add\n      returndatacopy\n      jump(tag_208)\n    tag_209:\n      0x60\n      swap2\n      pop\n    tag_208:\n      pop\n        /* \"TradeEscrow.sol\":6322:6366  (bool ok,) = t.buyer.call{value: amount}(\"\") */\n      pop\n      swap1\n      pop\n        /* \"TradeEscrow.sol\":6385:6387  ok */\n      dup1\n        /* \"TradeEscrow.sol\":6377:6403  require(ok, \"refund fail\") */\n      tag_210\n      jumpi\n      mload(0x40)\n      0x08c379a000000000000000000000000000000000000000000000000000000000\n      dup2\n      mstore\n      0x04\n      add\n      tag_211\n      swap1\n      tag_212\n      jump\t// in\n    tag_211:\n      mload(0x40)\n      dup1\n      swap2\n      sub\n      swap1\n      revert\n    tag_210:\n        /* \"TradeEscrow.sol\":6428:6430  id */\n      dup7\n        /* \"TradeEscrow.sol\":6419:6448  Refunded(id, t.buyer, amount) */\n      0x7ca5472b7ea78c2c0141c5a12ee6d170cf4ce8ed06be3d22c8252ddfc7a6a2c4\n        /* \"TradeEscrow.sol\":6432:6433  t */\n      dup5\n        /* \"TradeEscrow.sol\":6432:6439  t.buyer */\n      0x00\n      add\n      0x00\n      swap1\n      sload\n      swap1\n      0x0100\n      exp\n      swap1\n      div\n      0xffffffffffffffffffffffffffffffffffffffff\n      and\n        /* \"TradeEscrow.sol\":6441:6447  amount */\n      dup5\n        /* \"TradeEscrow.sol\":6419:6448  Refunded(id, t.buyer, amount) */\n      mload(0x40)\n      tag_213\n      swap3\n      swap2\n      swap1\n      tag_153\n      jump\t// in\n    tag_213:\n      mload(0x40)\n      dup1\n      swap2\n      sub\n      swap1\n      log2\n        /* \"TradeEscrow.sol\":6177:6456  {... */\n      pop\n      pop\n      pop\n        /* \"TradeEscrow.sol\":770:775  false */\n      0x00\n        /* \"TradeEscrow.sol\":761:767  locked */\n      0x02\n      0x00\n        /* \"TradeEscrow.sol\":761:775  locked = false */\n      0x0100\n      exp\n      dup2\n      sload\n      dup2\n      0xff\n      mul\n      not\n      and\n      swap1\n      dup4\n      iszero\n      iszero\n      mul\n      or\n      swap1\n      sstore\n      pop\n        /* \"TradeEscrow.sol\":877:878  _ */\n      pop\n      pop\n        /* \"TradeEscrow.sol\":6027:6456  function cancelBeforeShipment(uint256 id)... */\n      pop\n      pop\n      jump\t// out\n        /* \"TradeEscrow.sol\":2139:2986  function createTrade(address seller, address verifier, string calldata details)... */\n    tag_67:\n        /* \"TradeEscrow.sol\":2272:2282  uint256 id */\n      0x00\n        /* \"TradeEscrow.sol\":2326:2327  0 */\n      0x00\n        /* \"TradeEscrow.sol\":2308:2328  seller != address(0) */\n      0xffffffffffffffffffffffffffffffffffffffff\n      and\n        /* \"TradeEscrow.sol\":2308:2314  seller */\n      dup6\n        /* \"TradeEscrow.sol\":2308:2328  seller != address(0) */\n      0xffffffffffffffffffffffffffffffffffffffff\n      and\n      sub\n        /* \"TradeEscrow.sol\":2300:2341  require(seller != address(0), \"seller=0\") */\n      tag_215\n      jumpi\n      mload(0x40)\n      0x08c379a000000000000000000000000000000000000000000000000000000000\n      dup2\n      mstore\n      0x04\n      add\n      tag_216\n      swap1\n      tag_217\n      jump\t// in\n    tag_216:\n      mload(0x40)\n      dup1\n      swap2\n      sub\n      swap1\n      revert\n    tag_215:\n        /* \"TradeEscrow.sol\":2380:2381  0 */\n      0x00\n        /* \"TradeEscrow.sol\":2360:2382  verifier != address(0) */\n      0xffffffffffffffffffffffffffffffffffffffff\n      and\n        /* \"TradeEscrow.sol\":2360:2368  verifier */\n      dup5\n        /* \"TradeEscrow.sol\":2360:2382  verifier != address(0) */\n      0xffffffffffffffffffffffffffffffffffffffff\n      and\n      sub\n        /* \"TradeEscrow.sol\":2352:2397  require(verifier != address(0), \"verifier=0\") */\n      tag_218\n      jumpi\n      mload(0x40)\n      0x08c379a000000000000000000000000000000000000000000000000000000000\n      dup2\n      mstore\n      0x04\n      add\n      tag_219\n      swap1\n      tag_220\n      jump\t// in\n    tag_219:\n      mload(0x40)\n      dup1\n      swap2\n      sub\n      swap1\n      revert\n    tag_218:\n        /* \"TradeEscrow.sol\":2428:2429  0 */\n      0x00\n        /* \"TradeEscrow.sol\":2416:2425  msg.value */\n      callvalue\n        /* \"TradeEscrow.sol\":2416:2429  msg.value > 0 */\n      gt\n        /* \"TradeEscrow.sol\":2408:2442  require(msg.value > 0, \"no funds\") */\n      tag_221\n      jumpi\n      mload(0x40)\n      0x08c379a000000000000000000000000000000000000000000000000000000000\n      dup2\n      mstore\n      0x04\n      add\n      tag_222\n      swap1\n      tag_223\n      jump\t// in\n    tag_222:\n      mload(0x40)\n      dup1\n      swap2\n      sub\n      swap1\n      revert\n    tag_221:\n        /* \"TradeEscrow.sol\":2458:2464  nextId */\n      0x00\n      0x00\n        /* \"TradeEscrow.sol\":2458:2466  nextId++ */\n      dup2\n      sload\n      dup1\n      swap3\n      swap2\n      swap1\n      tag_224\n      swap1\n      tag_225\n      jump\t// in\n    tag_224:\n      swap2\n      swap1\n      pop\n      sstore\n        /* \"TradeEscrow.sol\":2453:2466  id = nextId++ */\n      swap1\n      pop\n        /* \"TradeEscrow.sol\":2490:2776  Trade({... */\n      mload(0x40)\n      dup1\n      0x0100\n      add\n      0x40\n      mstore\n      dup1\n        /* \"TradeEscrow.sol\":2518:2528  msg.sender */\n      caller\n        /* \"TradeEscrow.sol\":2490:2776  Trade({... */\n      0xffffffffffffffffffffffffffffffffffffffff\n      and\n      dup2\n      mstore\n      0x20\n      add\n        /* \"TradeEscrow.sol\":2551:2557  seller */\n      dup7\n        /* \"TradeEscrow.sol\":2490:2776  Trade({... */\n      0xffffffffffffffffffffffffffffffffffffffff\n      and\n      dup2\n      mstore\n      0x20\n      add\n        /* \"TradeEscrow.sol\":2582:2590  verifier */\n      dup6\n        /* \"TradeEscrow.sol\":2490:2776  Trade({... */\n      0xffffffffffffffffffffffffffffffffffffffff\n      and\n      dup2\n      mstore\n      0x20\n      add\n        /* \"TradeEscrow.sol\":2613:2622  msg.value */\n      callvalue\n        /* \"TradeEscrow.sol\":2490:2776  Trade({... */\n      dup2\n      mstore\n      0x20\n      add\n        /* \"TradeEscrow.sol\":2662:2663  0 */\n      0x00\n        /* \"TradeEscrow.sol\":2654:2664  bytes32(0) */\n      0x00\n      shl\n        /* \"TradeEscrow.sol\":2490:2776  Trade({... */\n      dup2\n      mstore\n      0x20\n      add\n        /* \"TradeEscrow.sol\":2687:2692  false */\n      0x00\n        /* \"TradeEscrow.sol\":2490:2776  Trade({... */\n      iszero\n      iszero\n      dup2\n      mstore\n      0x20\n      add\n        /* \"TradeEscrow.sol\":2720:2725  false */\n      0x00\n        /* \"TradeEscrow.sol\":2490:2776  Trade({... */\n      iszero\n      iszero\n      dup2\n      mstore\n      0x20\n      add\n        /* \"TradeEscrow.sol\":2747:2764  State.PaymentHeld */\n      0x01\n        /* \"TradeEscrow.sol\":2490:2776  Trade({... */\n      0x06\n      dup2\n      gt\n      iszero\n      tag_226\n      jumpi\n      tag_227\n      tag_93\n      jump\t// in\n    tag_227:\n    tag_226:\n      dup2\n      mstore\n      pop\n        /* \"TradeEscrow.sol\":2477:2483  trades */\n      0x01\n        /* \"TradeEscrow.sol\":2477:2487  trades[id] */\n      0x00\n        /* \"TradeEscrow.sol\":2484:2486  id */\n      dup4\n        /* \"TradeEscrow.sol\":2477:2487  trades[id] */\n      dup2\n      mstore\n      0x20\n      add\n      swap1\n      dup2\n      mstore\n      0x20\n      add\n      0x00\n      keccak256\n        /* \"TradeEscrow.sol\":2477:2776  trades[id] = Trade({... */\n      0x00\n      dup3\n      add\n      mload\n      dup2\n      0x00\n      add\n      exp(0x0100, 0x00)\n      dup2\n      sload\n      dup2\n      0xffffffffffffffffffffffffffffffffffffffff\n      mul\n      not\n      and\n      swap1\n      dup4\n      0xffffffffffffffffffffffffffffffffffffffff\n      and\n      mul\n      or\n      swap1\n      sstore\n      pop\n      0x20\n      dup3\n      add\n      mload\n      dup2\n      0x01\n      add\n      exp(0x0100, 0x00)\n      dup2\n      sload\n      dup2\n      0xffffffffffffffffffffffffffffffffffffffff\n      mul\n      not\n      and\n      swap1\n      dup4\n      0xffffffffffffffffffffffffffffffffffffffff\n      and\n      mul\n      or\n      swap1\n      sstore\n      pop\n      0x40\n      dup3\n      add\n      mload\n      dup2\n      0x02\n      add\n      exp(0x0100, 0x00)\n      dup2\n      sload\n      dup2\n      0xffffffffffffffffffffffffffffffffffffffff\n      mul\n      not\n      and\n      swap1\n      dup4\n      0xffffffffffffffffffffffffffffffffffffffff\n      and\n      mul\n      or\n      swap1\n      sstore\n      pop\n      0x60\n      dup3\n      add\n      mload\n      dup2\n      0x03\n      add\n      sstore\n      0x80\n      dup3\n      add\n      mload\n      dup2\n      0x04\n      add\n      sstore\n      0xa0\n      dup3\n      add\n      mload\n      dup2\n      0x05\n      add\n      exp(0x0100, 0x00)\n      dup2\n      sload\n      dup2\n      0xff\n      mul\n      not\n      and\n      swap1\n      dup4\n      iszero\n      iszero\n      mul\n      or\n      swap1\n      sstore\n      pop\n      0xc0\n      dup3\n      add\n      mload\n      dup2\n      0x05\n      add\n      exp(0x0100, 0x01)\n      dup2\n      sload\n      dup2\n      0xff\n      mul\n      not\n      and\n      swap1\n      dup4\n      iszero\n      iszero\n      mul\n      or\n      swap1\n      sstore\n      pop\n      0xe0\n      dup3\n      add\n      mload\n      dup2\n      0x05\n      add\n      exp(0x0100, 0x02)\n      dup2\n      sload\n      dup2\n      0xff\n      mul\n      not\n      and\n      swap1\n      dup4\n      0x06\n      dup2\n      gt\n      iszero\n      tag_228\n      jumpi\n      tag_229\n      tag_93\n      jump\t// in\n    tag_229:\n    tag_228:\n      mul\n      or\n      swap1\n      sstore\n      pop\n      swap1\n      pop\n      pop\n        /* \"TradeEscrow.sol\":2821:2827  seller */\n      dup5\n        /* \"TradeEscrow.sol\":2792:2849  TradeCreated(id, msg.sender, seller, verifier, msg.value) */\n      0xffffffffffffffffffffffffffffffffffffffff\n      and\n        /* \"TradeEscrow.sol\":2809:2819  msg.sender */\n      caller\n        /* \"TradeEscrow.sol\":2792:2849  TradeCreated(id, msg.sender, seller, verifier, msg.value) */\n      0xffffffffffffffffffffffffffffffffffffffff\n      and\n        /* \"TradeEscrow.sol\":2805:2807  id */\n      dup3\n        /* \"TradeEscrow.sol\":2792:2849  TradeCreated(id, msg.sender, seller, verifier, msg.value) */\n      0x90846260728abf36a9983412ea7d8b6a892838e7ab2ba6113c00fa97f056117f\n        /* \"TradeEscrow.sol\":2829:2837  verifier */\n      dup8\n        /* \"TradeEscrow.sol\":2839:2848  msg.value */\n      callvalue\n        /* \"TradeEscrow.sol\":2792:2849  TradeCreated(id, msg.sender, seller, verifier, msg.value) */\n      mload(0x40)\n      tag_230\n      swap3\n      swap2\n      swap1\n      tag_153\n      jump\t// in\n    tag_230:\n      mload(0x40)\n      dup1\n      swap2\n      sub\n      swap1\n      log4\n        /* \"TradeEscrow.sol\":2875:2877  id */\n      dup1\n        /* \"TradeEscrow.sol\":2865:2889  Deposited(id, msg.value) */\n      0x06da3309189fa49284f335d2c2bcb4cb0b8ad2a59ad92a9bdebeeb8f1ceba511\n        /* \"TradeEscrow.sol\":2879:2888  msg.value */\n      callvalue\n        /* \"TradeEscrow.sol\":2865:2889  Deposited(id, msg.value) */\n      mload(0x40)\n      tag_231\n      swap2\n      swap1\n      tag_52\n      jump\t// in\n    tag_231:\n      mload(0x40)\n      dup1\n      swap2\n      sub\n      swap1\n      log2\n        /* \"TradeEscrow.sol\":2139:2986  function createTrade(address seller, address verifier, string calldata details)... */\n      swap5\n      swap4\n      pop\n      pop\n      pop\n      pop\n      jump\t// out\n        /* \"TradeEscrow.sol\":3960:4158  function markShipped(uint256 id)... */\n    tag_72:\n        /* \"TradeEscrow.sol\":4031:4033  id */\n      dup1\n        /* \"TradeEscrow.sol\":942:948  trades */\n      0x01\n        /* \"TradeEscrow.sol\":942:952  trades[id] */\n      0x00\n        /* \"TradeEscrow.sol\":949:951  id */\n      dup3\n        /* \"TradeEscrow.sol\":942:952  trades[id] */\n      dup2\n      mstore\n      0x20\n      add\n      swap1\n      dup2\n      mstore\n      0x20\n      add\n      0x00\n      keccak256\n        /* \"TradeEscrow.sol\":942:959  trades[id].seller */\n      0x01\n      add\n      0x00\n      swap1\n      sload\n      swap1\n      0x0100\n      exp\n      swap1\n      div\n      0xffffffffffffffffffffffffffffffffffffffff\n      and\n        /* \"TradeEscrow.sol\":928:959  msg.sender == trades[id].seller */\n      0xffffffffffffffffffffffffffffffffffffffff\n      and\n        /* \"TradeEscrow.sol\":928:938  msg.sender */\n      caller\n        /* \"TradeEscrow.sol\":928:959  msg.sender == trades[id].seller */\n      0xffffffffffffffffffffffffffffffffffffffff\n      and\n      eq\n        /* \"TradeEscrow.sol\":920:974  require(msg.sender == trades[id].seller, \"Not seller\") */\n      tag_233\n      jumpi\n      mload(0x40)\n      0x08c379a000000000000000000000000000000000000000000000000000000000\n      dup2\n      mstore\n      0x04\n      add\n      tag_234\n      swap1\n      tag_235\n      jump\t// in\n    tag_234:\n      mload(0x40)\n      dup1\n      swap2\n      sub\n      swap1\n      revert\n    tag_233:\n        /* \"TradeEscrow.sol\":4052:4054  id */\n      dup2\n        /* \"TradeEscrow.sol\":4056:4073  State.PaymentHeld */\n      0x01\n        /* \"TradeEscrow.sol\":1239:1240  s */\n      dup1\n        /* \"TradeEscrow.sol\":1219:1240  trades[id].state == s */\n      0x06\n      dup2\n      gt\n      iszero\n      tag_237\n      jumpi\n      tag_238\n      tag_93\n      jump\t// in\n    tag_238:\n    tag_237:\n        /* \"TradeEscrow.sol\":1219:1225  trades */\n      0x01\n        /* \"TradeEscrow.sol\":1219:1229  trades[id] */\n      0x00\n        /* \"TradeEscrow.sol\":1226:1228  id */\n      dup5\n        /* \"TradeEscrow.sol\":1219:1229  trades[id] */\n      dup2\n      mstore\n      0x20\n      add\n      swap1\n      dup2\n      mstore\n      0x20\n      add\n      0x00\n      keccak256\n        /* \"TradeEscrow.sol\":1219:1235  trades[id].state */\n      0x05\n      add\n      0x02\n      swap1\n      sload\n      swap1\n      0x0100\n      exp\n      swap1\n      div\n      0xff\n      and\n        /* \"TradeEscrow.sol\":1219:1240  trades[id].state == s */\n      0x06\n      dup2\n      gt\n      iszero\n      tag_239\n      jumpi\n      tag_240\n      tag_93\n      jump\t// in\n    tag_240:\n    tag_239:\n      eq\n        /* \"TradeEscrow.sol\":1211:1254  require(trades[id].state == s, \"Bad state\") */\n      tag_241\n      jumpi\n      mload(0x40)\n      0x08c379a000000000000000000000000000000000000000000000000000000000\n      dup2\n      mstore\n      0x04\n      add\n      tag_242\n      swap1\n      tag_98\n      jump\t// in\n    tag_242:\n      mload(0x40)\n      dup1\n      swap2\n      sub\n      swap1\n      revert\n    tag_241:\n        /* \"TradeEscrow.sol\":4110:4123  State.Shipped */\n      0x02\n        /* \"TradeEscrow.sol\":4091:4097  trades */\n      0x01\n        /* \"TradeEscrow.sol\":4091:4101  trades[id] */\n      0x00\n        /* \"TradeEscrow.sol\":4098:4100  id */\n      dup7\n        /* \"TradeEscrow.sol\":4091:4101  trades[id] */\n      dup2\n      mstore\n      0x20\n      add\n      swap1\n      dup2\n      mstore\n      0x20\n      add\n      0x00\n      keccak256\n        /* \"TradeEscrow.sol\":4091:4107  trades[id].state */\n      0x05\n      add\n      0x02\n        /* \"TradeEscrow.sol\":4091:4123  trades[id].state = State.Shipped */\n      0x0100\n      exp\n      dup2\n      sload\n      dup2\n      0xff\n      mul\n      not\n      and\n      swap1\n      dup4\n      0x06\n      dup2\n      gt\n      iszero\n      tag_244\n      jumpi\n      tag_245\n      tag_93\n      jump\t// in\n    tag_245:\n    tag_244:\n      mul\n      or\n      swap1\n      sstore\n      pop\n        /* \"TradeEscrow.sol\":4147:4149  id */\n      dup4\n        /* \"TradeEscrow.sol\":4139:4150  Shipped(id) */\n      0xf00b9a5725b80c54016f42114f6ed7792d22eecb116011c4afac29c57bef6c95\n      mload(0x40)\n      mload(0x40)\n      dup1\n      swap2\n      sub\n      swap1\n      log2\n        /* \"TradeEscrow.sol\":976:977  _ */\n      pop\n      pop\n        /* \"TradeEscrow.sol\":3960:4158  function markShipped(uint256 id)... */\n      pop\n      pop\n      jump\t// out\n        /* \"TradeEscrow.sol\":3088:3395  function setExpectedDocumentHash(uint256 id, bytes32 expectedDocHash)... */\n    tag_76:\n        /* \"TradeEscrow.sol\":3196:3198  id */\n      dup2\n        /* \"TradeEscrow.sol\":942:948  trades */\n      0x01\n        /* \"TradeEscrow.sol\":942:952  trades[id] */\n      0x00\n        /* \"TradeEscrow.sol\":949:951  id */\n      dup3\n        /* \"TradeEscrow.sol\":942:952  trades[id] */\n      dup2\n      mstore\n      0x20\n      add\n      swap1\n      dup2\n      mstore\n      0x20\n      add\n      0x00\n      keccak256\n        /* \"TradeEscrow.sol\":942:959  trades[id].seller */\n      0x01\n      add\n      0x00\n      swap1\n      sload\n      swap1\n      0x0100\n      exp\n      swap1\n      div\n      0xffffffffffffffffffffffffffffffffffffffff\n      and\n        /* \"TradeEscrow.sol\":928:959  msg.sender == trades[id].seller */\n      0xffffffffffffffffffffffffffffffffffffffff\n      and\n        /* \"TradeEscrow.sol\":928:938  msg.sender */\n      caller\n        /* \"TradeEscrow.sol\":928:959  msg.sender == trades[id].seller */\n      0xffffffffffffffffffffffffffffffffffffffff\n      and\n      eq\n        /* \"TradeEscrow.sol\":920:974  require(msg.sender == trades[id].seller, \"Not seller\") */\n      tag_247\n      jumpi\n      mload(0x40)\n      0x08c379a000000000000000000000000000000000000000000000000000000000\n      dup2\n      mstore\n      0x04\n      add\n      tag_248\n      swap1\n      tag_235\n      jump\t// in\n    tag_248:\n      mload(0x40)\n      dup1\n      swap2\n      sub\n      swap1\n      revert\n    tag_247:\n        /* \"TradeEscrow.sol\":3217:3219  id */\n      dup3\n        /* \"TradeEscrow.sol\":3221:3238  State.PaymentHeld */\n      0x01\n        /* \"TradeEscrow.sol\":1239:1240  s */\n      dup1\n        /* \"TradeEscrow.sol\":1219:1240  trades[id].state == s */\n      0x06\n      dup2\n      gt\n      iszero\n      tag_250\n      jumpi\n      tag_251\n      tag_93\n      jump\t// in\n    tag_251:\n    tag_250:\n        /* \"TradeEscrow.sol\":1219:1225  trades */\n      0x01\n        /* \"TradeEscrow.sol\":1219:1229  trades[id] */\n      0x00\n        /* \"TradeEscrow.sol\":1226:1228  id */\n      dup5\n        /* \"TradeEscrow.sol\":1219:1229  trades[id] */\n      dup2\n      mstore\n      0x20\n      add\n      swap1\n      dup2\n      mstore\n      0x20\n      add\n      0x00\n      keccak256\n        /* \"TradeEscrow.sol\":1219:1235  trades[id].state */\n      0x05\n      add\n      0x02\n      swap1\n      sload\n      swap1\n      0x0100\n      exp\n      swap1\n      div\n      0xff\n      and\n        /* \"TradeEscrow.sol\":1219:1240  trades[id].state == s */\n      0x06\n      dup2\n      gt\n      iszero\n      tag_252\n      jumpi\n      tag_253\n      tag_93\n      jump\t// in\n    tag_253:\n    tag_252:\n      eq\n        /* \"TradeEscrow.sol\":1211:1254  require(trades[id].state == s, \"Bad state\") */\n      tag_254\n      jumpi\n      mload(0x40)\n      0x08c379a000000000000000000000000000000000000000000000000000000000\n      dup2\n      mstore\n      0x04\n      add\n      tag_255\n      swap1\n      tag_98\n      jump\t// in\n    tag_255:\n      mload(0x40)\n      dup1\n      swap2\n      sub\n      swap1\n      revert\n    tag_254:\n        /* \"TradeEscrow.sol\":3285:3300  expectedDocHash */\n      dup4\n        /* \"TradeEscrow.sol\":3256:3262  trades */\n      0x01\n        /* \"TradeEscrow.sol\":3256:3266  trades[id] */\n      0x00\n        /* \"TradeEscrow.sol\":3263:3265  id */\n      dup8\n        /* \"TradeEscrow.sol\":3256:3266  trades[id] */\n      dup2\n      mstore\n      0x20\n      add\n      swap1\n      dup2\n      mstore\n      0x20\n      add\n      0x00\n      keccak256\n        /* \"TradeEscrow.sol\":3256:3282  trades[id].expectedDocHash */\n      0x04\n      add\n        /* \"TradeEscrow.sol\":3256:3300  trades[id].expectedDocHash = expectedDocHash */\n      dup2\n      swap1\n      sstore\n      pop\n        /* \"TradeEscrow.sol\":3331:3335  true */\n      0x01\n        /* \"TradeEscrow.sol\":3311:3317  trades */\n      dup1\n        /* \"TradeEscrow.sol\":3311:3321  trades[id] */\n      0x00\n        /* \"TradeEscrow.sol\":3318:3320  id */\n      dup8\n        /* \"TradeEscrow.sol\":3311:3321  trades[id] */\n      dup2\n      mstore\n      0x20\n      add\n      swap1\n      dup2\n      mstore\n      0x20\n      add\n      0x00\n      keccak256\n        /* \"TradeEscrow.sol\":3311:3328  trades[id].docSet */\n      0x05\n      add\n      0x00\n        /* \"TradeEscrow.sol\":3311:3335  trades[id].docSet = true */\n      0x0100\n      exp\n      dup2\n      sload\n      dup2\n      0xff\n      mul\n      not\n      and\n      swap1\n      dup4\n      iszero\n      iszero\n      mul\n      or\n      swap1\n      sstore\n      pop\n        /* \"TradeEscrow.sol\":3367:3369  id */\n      dup5\n        /* \"TradeEscrow.sol\":3351:3387  DocumentHashSet(id, expectedDocHash) */\n      0xd6494bedb357dffd9e25f00de1d75ae98e06fb208d2a7f9830ebb2a628be23dd\n        /* \"TradeEscrow.sol\":3371:3386  expectedDocHash */\n      dup6\n        /* \"TradeEscrow.sol\":3351:3387  DocumentHashSet(id, expectedDocHash) */\n      mload(0x40)\n      tag_257\n      swap2\n      swap1\n      tag_59\n      jump\t// in\n    tag_257:\n      mload(0x40)\n      dup1\n      swap2\n      sub\n      swap1\n      log2\n        /* \"TradeEscrow.sol\":976:977  _ */\n      pop\n      pop\n        /* \"TradeEscrow.sol\":3088:3395  function setExpectedDocumentHash(uint256 id, bytes32 expectedDocHash)... */\n      pop\n      pop\n      pop\n      jump\t// out\n        /* \"TradeEscrow.sol\":4199:4509  function confirmDelivered(uint256 id)... */\n    tag_80:\n        /* \"TradeEscrow.sol\":4274:4276  id */\n      dup1\n        /* \"TradeEscrow.sol\":845:851  trades */\n      0x01\n        /* \"TradeEscrow.sol\":845:855  trades[id] */\n      0x00\n        /* \"TradeEscrow.sol\":852:854  id */\n      dup3\n        /* \"TradeEscrow.sol\":845:855  trades[id] */\n      dup2\n      mstore\n      0x20\n      add\n      swap1\n      dup2\n      mstore\n      0x20\n      add\n      0x00\n      keccak256\n        /* \"TradeEscrow.sol\":845:861  trades[id].buyer */\n      0x00\n      add\n      0x00\n      swap1\n      sload\n      swap1\n      0x0100\n      exp\n      swap1\n      div\n      0xffffffffffffffffffffffffffffffffffffffff\n      and\n        /* \"TradeEscrow.sol\":831:861  msg.sender == trades[id].buyer */\n      0xffffffffffffffffffffffffffffffffffffffff\n      and\n        /* \"TradeEscrow.sol\":831:841  msg.sender */\n      caller\n        /* \"TradeEscrow.sol\":831:861  msg.sender == trades[id].buyer */\n      0xffffffffffffffffffffffffffffffffffffffff\n      and\n      eq\n        /* \"TradeEscrow.sol\":823:875  require(msg.sender == trades[id].buyer, \"Not buyer\") */\n      tag_259\n      jumpi\n      mload(0x40)\n      0x08c379a000000000000000000000000000000000000000000000000000000000\n      dup2\n      mstore\n      0x04\n      add\n      tag_260\n      swap1\n      tag_192\n      jump\t// in\n    tag_260:\n      mload(0x40)\n      dup1\n      swap2\n      sub\n      swap1\n      revert\n    tag_259:\n        /* \"TradeEscrow.sol\":4294:4309  Trade storage t */\n      0x00\n        /* \"TradeEscrow.sol\":4312:4318  trades */\n      0x01\n        /* \"TradeEscrow.sol\":4312:4322  trades[id] */\n      0x00\n        /* \"TradeEscrow.sol\":4319:4321  id */\n      dup5\n        /* \"TradeEscrow.sol\":4312:4322  trades[id] */\n      dup2\n      mstore\n      0x20\n      add\n      swap1\n      dup2\n      mstore\n      0x20\n      add\n      0x00\n      keccak256\n        /* \"TradeEscrow.sol\":4294:4322  Trade storage t = trades[id] */\n      swap1\n      pop\n        /* \"TradeEscrow.sol\":4352:4365  State.Shipped */\n      0x02\n        /* \"TradeEscrow.sol\":4341:4365  t.state == State.Shipped */\n      0x06\n      dup2\n      gt\n      iszero\n      tag_262\n      jumpi\n      tag_263\n      tag_93\n      jump\t// in\n    tag_263:\n    tag_262:\n        /* \"TradeEscrow.sol\":4341:4342  t */\n      dup2\n        /* \"TradeEscrow.sol\":4341:4348  t.state */\n      0x05\n      add\n      0x02\n      swap1\n      sload\n      swap1\n      0x0100\n      exp\n      swap1\n      div\n      0xff\n      and\n        /* \"TradeEscrow.sol\":4341:4365  t.state == State.Shipped */\n      0x06\n      dup2\n      gt\n      iszero\n      tag_264\n      jumpi\n      tag_265\n      tag_93\n      jump\t// in\n    tag_265:\n    tag_264:\n      eq\n        /* \"TradeEscrow.sol\":4341:4397  t.state == State.Shipped || t.state == State.PaymentHeld */\n      dup1\n      tag_266\n      jumpi\n      pop\n        /* \"TradeEscrow.sol\":4380:4397  State.PaymentHeld */\n      0x01\n        /* \"TradeEscrow.sol\":4369:4397  t.state == State.PaymentHeld */\n      0x06\n      dup2\n      gt\n      iszero\n      tag_267\n      jumpi\n      tag_268\n      tag_93\n      jump\t// in\n    tag_268:\n    tag_267:\n        /* \"TradeEscrow.sol\":4369:4370  t */\n      dup2\n        /* \"TradeEscrow.sol\":4369:4376  t.state */\n      0x05\n      add\n      0x02\n      swap1\n      sload\n      swap1\n      0x0100\n      exp\n      swap1\n      div\n      0xff\n      and\n        /* \"TradeEscrow.sol\":4369:4397  t.state == State.PaymentHeld */\n      0x06\n      dup2\n      gt\n      iszero\n      tag_269\n      jumpi\n      tag_270\n      tag_93\n      jump\t// in\n    tag_270:\n    tag_269:\n      eq\n        /* \"TradeEscrow.sol\":4341:4397  t.state == State.Shipped || t.state == State.PaymentHeld */\n    tag_266:\n        /* \"TradeEscrow.sol\":4333:4411  require(t.state == State.Shipped || t.state == State.PaymentHeld, \"bad state\") */\n      tag_271\n      jumpi\n      mload(0x40)\n      0x08c379a000000000000000000000000000000000000000000000000000000000\n      dup2\n      mstore\n      0x04\n      add\n      tag_272\n      swap1\n      tag_140\n      jump\t// in\n    tag_272:\n      mload(0x40)\n      dup1\n      swap2\n      sub\n      swap1\n      revert\n    tag_271:\n        /* \"TradeEscrow.sol\":4432:4447  State.Delivered */\n      0x03\n        /* \"TradeEscrow.sol\":4422:4423  t */\n      dup2\n        /* \"TradeEscrow.sol\":4422:4429  t.state */\n      0x05\n      add\n      0x02\n        /* \"TradeEscrow.sol\":4422:4447  t.state = State.Delivered */\n      0x0100\n      exp\n      dup2\n      sload\n      dup2\n      0xff\n      mul\n      not\n      and\n      swap1\n      dup4\n      0x06\n      dup2\n      gt\n      iszero\n      tag_273\n      jumpi\n      tag_274\n      tag_93\n      jump\t// in\n    tag_274:\n    tag_273:\n      mul\n      or\n      swap1\n      sstore\n      pop\n        /* \"TradeEscrow.sol\":4473:4475  id */\n      dup3\n        /* \"TradeEscrow.sol\":4463:4476  Delivered(id) */\n      0xfcc296b8bdd64e3f1d1faadef50cb2d6550f645316330fe57cb1dd7e0612ead0\n      mload(0x40)\n      mload(0x40)\n      dup1\n      swap2\n      sub\n      swap1\n      log2\n        /* \"TradeEscrow.sol\":4487:4501  _trySettle(id) */\n      tag_275\n        /* \"TradeEscrow.sol\":4498:4500  id */\n      dup4\n        /* \"TradeEscrow.sol\":4487:4497  _trySettle */\n      tag_108\n        /* \"TradeEscrow.sol\":4487:4501  _trySettle(id) */\n      jump\t// in\n    tag_275:\n        /* \"TradeEscrow.sol\":4283:4509  {... */\n      pop\n        /* \"TradeEscrow.sol\":4199:4509  function confirmDelivered(uint256 id)... */\n      pop\n      pop\n      jump\t// out\n        /* \"TradeEscrow.sol\":472:504  address public immutable arbiter */\n    tag_83:\n      immutable(\"0x7749cc8014201da2069c21d93ba99c584b6f62d393fde534ed47eac227e31561\")\n      dup2\n      jump\t// out\n        /* \"TradeEscrow.sol\":6541:6981  function _trySettle(uint256 id) internal nonReentrant {... */\n    tag_108:\n        /* \"TradeEscrow.sol\":693:699  locked */\n      0x02\n      0x00\n      swap1\n      sload\n      swap1\n      0x0100\n      exp\n      swap1\n      div\n      0xff\n      and\n        /* \"TradeEscrow.sol\":692:699  !locked */\n      iszero\n        /* \"TradeEscrow.sol\":684:714  require(!locked, \"Reentrancy\") */\n      tag_277\n      jumpi\n      mload(0x40)\n      0x08c379a000000000000000000000000000000000000000000000000000000000\n      dup2\n      mstore\n      0x04\n      add\n      tag_278\n      swap1\n      tag_117\n      jump\t// in\n    tag_278:\n      mload(0x40)\n      dup1\n      swap2\n      sub\n      swap1\n      revert\n    tag_277:\n        /* \"TradeEscrow.sol\":734:738  true */\n      0x01\n        /* \"TradeEscrow.sol\":725:731  locked */\n      0x02\n      0x00\n        /* \"TradeEscrow.sol\":725:738  locked = true */\n      0x0100\n      exp\n      dup2\n      sload\n      dup2\n      0xff\n      mul\n      not\n      and\n      swap1\n      dup4\n      iszero\n      iszero\n      mul\n      or\n      swap1\n      sstore\n      pop\n        /* \"TradeEscrow.sol\":6606:6621  Trade storage t */\n      0x00\n        /* \"TradeEscrow.sol\":6624:6630  trades */\n      0x01\n        /* \"TradeEscrow.sol\":6624:6634  trades[id] */\n      0x00\n        /* \"TradeEscrow.sol\":6631:6633  id */\n      dup4\n        /* \"TradeEscrow.sol\":6624:6634  trades[id] */\n      dup2\n      mstore\n      0x20\n      add\n      swap1\n      dup2\n      mstore\n      0x20\n      add\n      0x00\n      keccak256\n        /* \"TradeEscrow.sol\":6606:6634  Trade storage t = trades[id] */\n      swap1\n      pop\n        /* \"TradeEscrow.sol\":6649:6650  t */\n      dup1\n        /* \"TradeEscrow.sol\":6649:6662  t.docVerified */\n      0x05\n      add\n      0x01\n      swap1\n      sload\n      swap1\n      0x0100\n      exp\n      swap1\n      div\n      0xff\n      and\n        /* \"TradeEscrow.sol\":6649:6694  t.docVerified && (t.state == State.Delivered) */\n      dup1\n      iszero\n      tag_280\n      jumpi\n      pop\n        /* \"TradeEscrow.sol\":6678:6693  State.Delivered */\n      0x03\n        /* \"TradeEscrow.sol\":6667:6693  t.state == State.Delivered */\n      0x06\n      dup2\n      gt\n      iszero\n      tag_281\n      jumpi\n      tag_282\n      tag_93\n      jump\t// in\n    tag_282:\n    tag_281:\n        /* \"TradeEscrow.sol\":6667:6668  t */\n      dup2\n        /* \"TradeEscrow.sol\":6667:6674  t.state */\n      0x05\n      add\n      0x02\n      swap1\n      sload\n      swap1\n      0x0100\n      exp\n      swap1\n      div\n      0xff\n      and\n        /* \"TradeEscrow.sol\":6667:6693  t.state == State.Delivered */\n      0x06\n      dup2\n      gt\n      iszero\n      tag_283\n      jumpi\n      tag_284\n      tag_93\n      jump\t// in\n    tag_284:\n    tag_283:\n      eq\n        /* \"TradeEscrow.sol\":6649:6694  t.docVerified && (t.state == State.Delivered) */\n    tag_280:\n        /* \"TradeEscrow.sol\":6645:6974  if (t.docVerified && (t.state == State.Delivered)) {... */\n      iszero\n      tag_285\n      jumpi\n        /* \"TradeEscrow.sol\":6711:6725  uint256 amount */\n      0x00\n        /* \"TradeEscrow.sol\":6728:6729  t */\n      dup2\n        /* \"TradeEscrow.sol\":6728:6736  t.amount */\n      0x03\n      add\n      sload\n        /* \"TradeEscrow.sol\":6711:6736  uint256 amount = t.amount */\n      swap1\n      pop\n        /* \"TradeEscrow.sol\":6762:6763  0 */\n      0x00\n        /* \"TradeEscrow.sol\":6751:6752  t */\n      dup3\n        /* \"TradeEscrow.sol\":6751:6759  t.amount */\n      0x03\n      add\n        /* \"TradeEscrow.sol\":6751:6763  t.amount = 0 */\n      dup2\n      swap1\n      sstore\n      pop\n        /* \"TradeEscrow.sol\":6788:6803  State.Completed */\n      0x04\n        /* \"TradeEscrow.sol\":6778:6779  t */\n      dup3\n        /* \"TradeEscrow.sol\":6778:6785  t.state */\n      0x05\n      add\n      0x02\n        /* \"TradeEscrow.sol\":6778:6803  t.state = State.Completed */\n      0x0100\n      exp\n      dup2\n      sload\n      dup2\n      0xff\n      mul\n      not\n      and\n      swap1\n      dup4\n      0x06\n      dup2\n      gt\n      iszero\n      tag_286\n      jumpi\n      tag_287\n      tag_93\n      jump\t// in\n    tag_287:\n    tag_286:\n      mul\n      or\n      swap1\n      sstore\n      pop\n        /* \"TradeEscrow.sol\":6819:6826  bool ok */\n      0x00\n        /* \"TradeEscrow.sol\":6831:6832  t */\n      dup3\n        /* \"TradeEscrow.sol\":6831:6839  t.seller */\n      0x01\n      add\n      0x00\n      swap1\n      sload\n      swap1\n      0x0100\n      exp\n      swap1\n      div\n      0xffffffffffffffffffffffffffffffffffffffff\n      and\n        /* \"TradeEscrow.sol\":6831:6844  t.seller.call */\n      0xffffffffffffffffffffffffffffffffffffffff\n      and\n        /* \"TradeEscrow.sol\":6852:6858  amount */\n      dup3\n        /* \"TradeEscrow.sol\":6831:6863  t.seller.call{value: amount}(\"\") */\n      mload(0x40)\n      tag_288\n      swap1\n      tag_145\n      jump\t// in\n    tag_288:\n      0x00\n      mload(0x40)\n      dup1\n      dup4\n      sub\n      dup2\n      dup6\n      dup8\n      gas\n      call\n      swap3\n      pop\n      pop\n      pop\n      returndatasize\n      dup1\n      0x00\n      dup2\n      eq\n      tag_291\n      jumpi\n      mload(0x40)\n      swap2\n      pop\n      and(add(returndatasize, 0x3f), not(0x1f))\n      dup3\n      add\n      0x40\n      mstore\n      returndatasize\n      dup3\n      mstore\n      returndatasize\n      0x00\n      0x20\n      dup5\n      add\n      returndatacopy\n      jump(tag_290)\n    tag_291:\n      0x60\n      swap2\n      pop\n    tag_290:\n      pop\n        /* \"TradeEscrow.sol\":6818:6863  (bool ok,) = t.seller.call{value: amount}(\"\") */\n      pop\n      swap1\n      pop\n        /* \"TradeEscrow.sol\":6886:6888  ok */\n      dup1\n        /* \"TradeEscrow.sol\":6878:6905  require(ok, \"release fail\") */\n      tag_292\n      jumpi\n      mload(0x40)\n      0x08c379a000000000000000000000000000000000000000000000000000000000\n      dup2\n      mstore\n      0x04\n      add\n      tag_293\n      swap1\n      tag_294\n      jump\t// in\n    tag_293:\n      mload(0x40)\n      dup1\n      swap2\n      sub\n      swap1\n      revert\n    tag_292:\n        /* \"TradeEscrow.sol\":6941:6943  id */\n      dup4\n        /* \"TradeEscrow.sol\":6925:6962  PaymentReleased(id, t.seller, amount) */\n      0x21d71db5be59bb9fa133895586b7404307dd33fb93b16db09dc6f1d9d7d231b0\n        /* \"TradeEscrow.sol\":6945:6946  t */\n      dup5\n        /* \"TradeEscrow.sol\":6945:6953  t.seller */\n      0x01\n      add\n      0x00\n      swap1\n      sload\n      swap1\n      0x0100\n      exp\n      swap1\n      div\n      0xffffffffffffffffffffffffffffffffffffffff\n      and\n        /* \"TradeEscrow.sol\":6955:6961  amount */\n      dup5\n        /* \"TradeEscrow.sol\":6925:6962  PaymentReleased(id, t.seller, amount) */\n      mload(0x40)\n      tag_295\n      swap3\n      swap2\n      swap1\n      tag_153\n      jump\t// in\n    tag_295:\n      mload(0x40)\n      dup1\n      swap2\n      sub\n      swap1\n      log2\n        /* \"TradeEscrow.sol\":6696:6974  {... */\n      pop\n      pop\n        /* \"TradeEscrow.sol\":6645:6974  if (t.docVerified && (t.state == State.Delivered)) {... */\n    tag_285:\n        /* \"TradeEscrow.sol\":6595:6981  {... */\n      pop\n        /* \"TradeEscrow.sol\":770:775  false */\n      0x00\n        /* \"TradeEscrow.sol\":761:767  locked */\n      0x02\n      0x00\n        /* \"TradeEscrow.sol\":761:775  locked = false */\n      0x0100\n      exp\n      dup2\n      sload\n      dup2\n      0xff\n      mul\n      not\n      and\n      swap1\n      dup4\n      iszero\n      iszero\n      mul\n      or\n      swap1\n      sstore\n      pop\n        /* \"TradeEscrow.sol\":6541:6981  function _trySettle(uint256 id) internal nonReentrant {... */\n      pop\n      jump\t// out\n        /* \"#utility.yul\":88:205   */\n    tag_297:\n        /* \"#utility.yul\":197:198   */\n      0x00\n        /* \"#utility.yul\":194:195   */\n      0x00\n        /* \"#utility.yul\":187:199   */\n      revert\n        /* \"#utility.yul\":211:328   */\n    tag_298:\n        /* \"#utility.yul\":320:321   */\n      0x00\n        /* \"#utility.yul\":317:318   */\n      0x00\n        /* \"#utility.yul\":310:322   */\n      revert\n        /* \"#utility.yul\":334:411   */\n    tag_299:\n        /* \"#utility.yul\":371:378   */\n      0x00\n        /* \"#utility.yul\":400:405   */\n      dup2\n        /* \"#utility.yul\":389:405   */\n      swap1\n      pop\n        /* \"#utility.yul\":334:411   */\n      swap2\n      swap1\n      pop\n      jump\t// out\n        /* \"#utility.yul\":417:539   */\n    tag_300:\n        /* \"#utility.yul\":490:514   */\n      tag_374\n        /* \"#utility.yul\":508:513   */\n      dup2\n        /* \"#utility.yul\":490:514   */\n      tag_299\n      jump\t// in\n    tag_374:\n        /* \"#utility.yul\":483:488   */\n      dup2\n        /* \"#utility.yul\":480:515   */\n      eq\n        /* \"#utility.yul\":470:533   */\n      tag_375\n      jumpi\n        /* \"#utility.yul\":529:530   */\n      0x00\n        /* \"#utility.yul\":526:527   */\n      0x00\n        /* \"#utility.yul\":519:531   */\n      revert\n        /* \"#utility.yul\":470:533   */\n    tag_375:\n        /* \"#utility.yul\":417:539   */\n      pop\n      jump\t// out\n        /* \"#utility.yul\":545:684   */\n    tag_301:\n        /* \"#utility.yul\":591:596   */\n      0x00\n        /* \"#utility.yul\":629:635   */\n      dup2\n        /* \"#utility.yul\":616:636   */\n      calldataload\n        /* \"#utility.yul\":607:636   */\n      swap1\n      pop\n        /* \"#utility.yul\":645:678   */\n      tag_377\n        /* \"#utility.yul\":672:677   */\n      dup2\n        /* \"#utility.yul\":645:678   */\n      tag_300\n      jump\t// in\n    tag_377:\n        /* \"#utility.yul\":545:684   */\n      swap3\n      swap2\n      pop\n      pop\n      jump\t// out\n        /* \"#utility.yul\":690:767   */\n    tag_302:\n        /* \"#utility.yul\":727:734   */\n      0x00\n        /* \"#utility.yul\":756:761   */\n      dup2\n        /* \"#utility.yul\":745:761   */\n      swap1\n      pop\n        /* \"#utility.yul\":690:767   */\n      swap2\n      swap1\n      pop\n      jump\t// out\n        /* \"#utility.yul\":773:895   */\n    tag_303:\n        /* \"#utility.yul\":846:870   */\n      tag_380\n        /* \"#utility.yul\":864:869   */\n      dup2\n        /* \"#utility.yul\":846:870   */\n      tag_302\n      jump\t// in\n    tag_380:\n        /* \"#utility.yul\":839:844   */\n      dup2\n        /* \"#utility.yul\":836:871   */\n      eq\n        /* \"#utility.yul\":826:889   */\n      tag_381\n      jumpi\n        /* \"#utility.yul\":885:886   */\n      0x00\n        /* \"#utility.yul\":882:883   */\n      0x00\n        /* \"#utility.yul\":875:887   */\n      revert\n        /* \"#utility.yul\":826:889   */\n    tag_381:\n        /* \"#utility.yul\":773:895   */\n      pop\n      jump\t// out\n        /* \"#utility.yul\":901:1040   */\n    tag_304:\n        /* \"#utility.yul\":947:952   */\n      0x00\n        /* \"#utility.yul\":985:991   */\n      dup2\n        /* \"#utility.yul\":972:992   */\n      calldataload\n        /* \"#utility.yul\":963:992   */\n      swap1\n      pop\n        /* \"#utility.yul\":1001:1034   */\n      tag_383\n        /* \"#utility.yul\":1028:1033   */\n      dup2\n        /* \"#utility.yul\":1001:1034   */\n      tag_303\n      jump\t// in\n    tag_383:\n        /* \"#utility.yul\":901:1040   */\n      swap3\n      swap2\n      pop\n      pop\n      jump\t// out\n        /* \"#utility.yul\":1046:1520   */\n    tag_23:\n        /* \"#utility.yul\":1114:1120   */\n      0x00\n        /* \"#utility.yul\":1122:1128   */\n      0x00\n        /* \"#utility.yul\":1171:1173   */\n      0x40\n        /* \"#utility.yul\":1159:1168   */\n      dup4\n        /* \"#utility.yul\":1150:1157   */\n      dup6\n        /* \"#utility.yul\":1146:1169   */\n      sub\n        /* \"#utility.yul\":1142:1174   */\n      slt\n        /* \"#utility.yul\":1139:1258   */\n      iszero\n      tag_385\n      jumpi\n        /* \"#utility.yul\":1177:1256   */\n      tag_386\n      tag_297\n      jump\t// in\n    tag_386:\n        /* \"#utility.yul\":1139:1258   */\n    tag_385:\n        /* \"#utility.yul\":1297:1298   */\n      0x00\n        /* \"#utility.yul\":1322:1375   */\n      tag_387\n        /* \"#utility.yul\":1367:1374   */\n      dup6\n        /* \"#utility.yul\":1358:1364   */\n      dup3\n        /* \"#utility.yul\":1347:1356   */\n      dup7\n        /* \"#utility.yul\":1343:1365   */\n      add\n        /* \"#utility.yul\":1322:1375   */\n      tag_301\n      jump\t// in\n    tag_387:\n        /* \"#utility.yul\":1312:1375   */\n      swap3\n      pop\n        /* \"#utility.yul\":1268:1385   */\n      pop\n        /* \"#utility.yul\":1424:1426   */\n      0x20\n        /* \"#utility.yul\":1450:1503   */\n      tag_388\n        /* \"#utility.yul\":1495:1502   */\n      dup6\n        /* \"#utility.yul\":1486:1492   */\n      dup3\n        /* \"#utility.yul\":1475:1484   */\n      dup7\n        /* \"#utility.yul\":1471:1493   */\n      add\n        /* \"#utility.yul\":1450:1503   */\n      tag_304\n      jump\t// in\n    tag_388:\n        /* \"#utility.yul\":1440:1503   */\n      swap2\n      pop\n        /* \"#utility.yul\":1395:1513   */\n      pop\n        /* \"#utility.yul\":1046:1520   */\n      swap3\n      pop\n      swap3\n      swap1\n      pop\n      jump\t// out\n        /* \"#utility.yul\":1526:1855   */\n    tag_28:\n        /* \"#utility.yul\":1585:1591   */\n      0x00\n        /* \"#utility.yul\":1634:1636   */\n      0x20\n        /* \"#utility.yul\":1622:1631   */\n      dup3\n        /* \"#utility.yul\":1613:1620   */\n      dup5\n        /* \"#utility.yul\":1609:1632   */\n      sub\n        /* \"#utility.yul\":1605:1637   */\n      slt\n        /* \"#utility.yul\":1602:1721   */\n      iszero\n      tag_390\n      jumpi\n        /* \"#utility.yul\":1640:1719   */\n      tag_391\n      tag_297\n      jump\t// in\n    tag_391:\n        /* \"#utility.yul\":1602:1721   */\n    tag_390:\n        /* \"#utility.yul\":1760:1761   */\n      0x00\n        /* \"#utility.yul\":1785:1838   */\n      tag_392\n        /* \"#utility.yul\":1830:1837   */\n      dup5\n        /* \"#utility.yul\":1821:1827   */\n      dup3\n        /* \"#utility.yul\":1810:1819   */\n      dup6\n        /* \"#utility.yul\":1806:1828   */\n      add\n        /* \"#utility.yul\":1785:1838   */\n      tag_301\n      jump\t// in\n    tag_392:\n        /* \"#utility.yul\":1775:1838   */\n      swap2\n      pop\n        /* \"#utility.yul\":1731:1848   */\n      pop\n        /* \"#utility.yul\":1526:1855   */\n      swap3\n      swap2\n      pop\n      pop\n      jump\t// out\n        /* \"#utility.yul\":1861:1987   */\n    tag_305:\n        /* \"#utility.yul\":1898:1905   */\n      0x00\n        /* \"#utility.yul\":1938:1980   */\n      0xffffffffffffffffffffffffffffffffffffffff\n        /* \"#utility.yul\":1931:1936   */\n      dup3\n        /* \"#utility.yul\":1927:1981   */\n      and\n        /* \"#utility.yul\":1916:1981   */\n      swap1\n      pop\n        /* \"#utility.yul\":1861:1987   */\n      swap2\n      swap1\n      pop\n      jump\t// out\n        /* \"#utility.yul\":1993:2089   */\n    tag_306:\n        /* \"#utility.yul\":2030:2037   */\n      0x00\n        /* \"#utility.yul\":2059:2083   */\n      tag_395\n        /* \"#utility.yul\":2077:2082   */\n      dup3\n        /* \"#utility.yul\":2059:2083   */\n      tag_305\n      jump\t// in\n    tag_395:\n        /* \"#utility.yul\":2048:2083   */\n      swap1\n      pop\n        /* \"#utility.yul\":1993:2089   */\n      swap2\n      swap1\n      pop\n      jump\t// out\n        /* \"#utility.yul\":2095:2213   */\n    tag_307:\n        /* \"#utility.yul\":2182:2206   */\n      tag_397\n        /* \"#utility.yul\":2200:2205   */\n      dup2\n        /* \"#utility.yul\":2182:2206   */\n      tag_306\n      jump\t// in\n    tag_397:\n        /* \"#utility.yul\":2177:2180   */\n      dup3\n        /* \"#utility.yul\":2170:2207   */\n      mstore\n        /* \"#utility.yul\":2095:2213   */\n      pop\n      pop\n      jump\t// out\n        /* \"#utility.yul\":2219:2337   */\n    tag_308:\n        /* \"#utility.yul\":2306:2330   */\n      tag_399\n        /* \"#utility.yul\":2324:2329   */\n      dup2\n        /* \"#utility.yul\":2306:2330   */\n      tag_299\n      jump\t// in\n    tag_399:\n        /* \"#utility.yul\":2301:2304   */\n      dup3\n        /* \"#utility.yul\":2294:2331   */\n      mstore\n        /* \"#utility.yul\":2219:2337   */\n      pop\n      pop\n      jump\t// out\n        /* \"#utility.yul\":2343:2461   */\n    tag_309:\n        /* \"#utility.yul\":2430:2454   */\n      tag_401\n        /* \"#utility.yul\":2448:2453   */\n      dup2\n        /* \"#utility.yul\":2430:2454   */\n      tag_302\n      jump\t// in\n    tag_401:\n        /* \"#utility.yul\":2425:2428   */\n      dup3\n        /* \"#utility.yul\":2418:2455   */\n      mstore\n        /* \"#utility.yul\":2343:2461   */\n      pop\n      pop\n      jump\t// out\n        /* \"#utility.yul\":2467:2557   */\n    tag_310:\n        /* \"#utility.yul\":2501:2508   */\n      0x00\n        /* \"#utility.yul\":2544:2549   */\n      dup2\n        /* \"#utility.yul\":2537:2550   */\n      iszero\n        /* \"#utility.yul\":2530:2551   */\n      iszero\n        /* \"#utility.yul\":2519:2551   */\n      swap1\n      pop\n        /* \"#utility.yul\":2467:2557   */\n      swap2\n      swap1\n      pop\n      jump\t// out\n        /* \"#utility.yul\":2563:2672   */\n    tag_311:\n        /* \"#utility.yul\":2644:2665   */\n      tag_404\n        /* \"#utility.yul\":2659:2664   */\n      dup2\n        /* \"#utility.yul\":2644:2665   */\n      tag_310\n      jump\t// in\n    tag_404:\n        /* \"#utility.yul\":2639:2642   */\n      dup3\n        /* \"#utility.yul\":2632:2666   */\n      mstore\n        /* \"#utility.yul\":2563:2672   */\n      pop\n      pop\n      jump\t// out\n        /* \"#utility.yul\":2678:2858   */\n    tag_93:\n        /* \"#utility.yul\":2726:2803   */\n      0x4e487b7100000000000000000000000000000000000000000000000000000000\n        /* \"#utility.yul\":2723:2724   */\n      0x00\n        /* \"#utility.yul\":2716:2804   */\n      mstore\n        /* \"#utility.yul\":2823:2827   */\n      0x21\n        /* \"#utility.yul\":2820:2821   */\n      0x04\n        /* \"#utility.yul\":2813:2828   */\n      mstore\n        /* \"#utility.yul\":2847:2851   */\n      0x24\n        /* \"#utility.yul\":2844:2845   */\n      0x00\n        /* \"#utility.yul\":2837:2852   */\n      revert\n        /* \"#utility.yul\":2864:2976   */\n    tag_312:\n        /* \"#utility.yul\":2944:2945   */\n      0x07\n        /* \"#utility.yul\":2937:2942   */\n      dup2\n        /* \"#utility.yul\":2934:2946   */\n      lt\n        /* \"#utility.yul\":2924:2970   */\n      tag_407\n      jumpi\n        /* \"#utility.yul\":2950:2968   */\n      tag_408\n      tag_93\n      jump\t// in\n    tag_408:\n        /* \"#utility.yul\":2924:2970   */\n    tag_407:\n        /* \"#utility.yul\":2864:2976   */\n      pop\n      jump\t// out\n        /* \"#utility.yul\":2982:3107   */\n    tag_313:\n        /* \"#utility.yul\":3026:3033   */\n      0x00\n        /* \"#utility.yul\":3055:3060   */\n      dup2\n        /* \"#utility.yul\":3044:3060   */\n      swap1\n      pop\n        /* \"#utility.yul\":3061:3101   */\n      tag_410\n        /* \"#utility.yul\":3095:3100   */\n      dup3\n        /* \"#utility.yul\":3061:3101   */\n      tag_312\n      jump\t// in\n    tag_410:\n        /* \"#utility.yul\":2982:3107   */\n      swap2\n      swap1\n      pop\n      jump\t// out\n        /* \"#utility.yul\":3113:3238   */\n    tag_314:\n        /* \"#utility.yul\":3168:3177   */\n      0x00\n        /* \"#utility.yul\":3201:3232   */\n      tag_412\n        /* \"#utility.yul\":3226:3231   */\n      dup3\n        /* \"#utility.yul\":3201:3232   */\n      tag_313\n      jump\t// in\n    tag_412:\n        /* \"#utility.yul\":3188:3232   */\n      swap1\n      pop\n        /* \"#utility.yul\":3113:3238   */\n      swap2\n      swap1\n      pop\n      jump\t// out\n        /* \"#utility.yul\":3244:3385   */\n    tag_315:\n        /* \"#utility.yul\":3336:3378   */\n      tag_414\n        /* \"#utility.yul\":3372:3377   */\n      dup2\n        /* \"#utility.yul\":3336:3378   */\n      tag_314\n      jump\t// in\n    tag_414:\n        /* \"#utility.yul\":3331:3334   */\n      dup3\n        /* \"#utility.yul\":3324:3379   */\n      mstore\n        /* \"#utility.yul\":3244:3385   */\n      pop\n      pop\n      jump\t// out\n        /* \"#utility.yul\":3391:4374   */\n    tag_31:\n        /* \"#utility.yul\":3673:3677   */\n      0x00\n        /* \"#utility.yul\":3711:3714   */\n      0x0100\n        /* \"#utility.yul\":3700:3709   */\n      dup3\n        /* \"#utility.yul\":3696:3715   */\n      add\n        /* \"#utility.yul\":3688:3715   */\n      swap1\n      pop\n        /* \"#utility.yul\":3725:3796   */\n      tag_416\n        /* \"#utility.yul\":3793:3794   */\n      0x00\n        /* \"#utility.yul\":3782:3791   */\n      dup4\n        /* \"#utility.yul\":3778:3795   */\n      add\n        /* \"#utility.yul\":3769:3775   */\n      dup12\n        /* \"#utility.yul\":3725:3796   */\n      tag_307\n      jump\t// in\n    tag_416:\n        /* \"#utility.yul\":3806:3878   */\n      tag_417\n        /* \"#utility.yul\":3874:3876   */\n      0x20\n        /* \"#utility.yul\":3863:3872   */\n      dup4\n        /* \"#utility.yul\":3859:3877   */\n      add\n        /* \"#utility.yul\":3850:3856   */\n      dup11\n        /* \"#utility.yul\":3806:3878   */\n      tag_307\n      jump\t// in\n    tag_417:\n        /* \"#utility.yul\":3888:3960   */\n      tag_418\n        /* \"#utility.yul\":3956:3958   */\n      0x40\n        /* \"#utility.yul\":3945:3954   */\n      dup4\n        /* \"#utility.yul\":3941:3959   */\n      add\n        /* \"#utility.yul\":3932:3938   */\n      dup10\n        /* \"#utility.yul\":3888:3960   */\n      tag_307\n      jump\t// in\n    tag_418:\n        /* \"#utility.yul\":3970:4042   */\n      tag_419\n        /* \"#utility.yul\":4038:4040   */\n      0x60\n        /* \"#utility.yul\":4027:4036   */\n      dup4\n        /* \"#utility.yul\":4023:4041   */\n      add\n        /* \"#utility.yul\":4014:4020   */\n      dup9\n        /* \"#utility.yul\":3970:4042   */\n      tag_308\n      jump\t// in\n    tag_419:\n        /* \"#utility.yul\":4052:4125   */\n      tag_420\n        /* \"#utility.yul\":4120:4123   */\n      0x80\n        /* \"#utility.yul\":4109:4118   */\n      dup4\n        /* \"#utility.yul\":4105:4124   */\n      add\n        /* \"#utility.yul\":4096:4102   */\n      dup8\n        /* \"#utility.yul\":4052:4125   */\n      tag_309\n      jump\t// in\n    tag_420:\n        /* \"#utility.yul\":4135:4202   */\n      tag_421\n        /* \"#utility.yul\":4197:4200   */\n      0xa0\n        /* \"#utility.yul\":4186:4195   */\n      dup4\n        /* \"#utility.yul\":4182:4201   */\n      add\n        /* \"#utility.yul\":4173:4179   */\n      dup7\n        /* \"#utility.yul\":4135:4202   */\n      tag_311\n      jump\t// in\n    tag_421:\n        /* \"#utility.yul\":4212:4279   */\n      tag_422\n        /* \"#utility.yul\":4274:4277   */\n      0xc0\n        /* \"#utility.yul\":4263:4272   */\n      dup4\n        /* \"#utility.yul\":4259:4278   */\n      add\n        /* \"#utility.yul\":4250:4256   */\n      dup6\n        /* \"#utility.yul\":4212:4279   */\n      tag_311\n      jump\t// in\n    tag_422:\n        /* \"#utility.yul\":4289:4367   */\n      tag_423\n        /* \"#utility.yul\":4362:4365   */\n      0xe0\n        /* \"#utility.yul\":4351:4360   */\n      dup4\n        /* \"#utility.yul\":4347:4366   */\n      add\n        /* \"#utility.yul\":4338:4344   */\n      dup5\n        /* \"#utility.yul\":4289:4367   */\n      tag_315\n      jump\t// in\n    tag_423:\n        /* \"#utility.yul\":3391:4374   */\n      swap10\n      swap9\n      pop\n      pop\n      pop\n      pop\n      pop\n      pop\n      pop\n      pop\n      pop\n      jump\t// out\n        /* \"#utility.yul\":4380:5264   */\n    tag_37:\n        /* \"#utility.yul\":4640:4644   */\n      0x00\n        /* \"#utility.yul\":4678:4681   */\n      0xe0\n        /* \"#utility.yul\":4667:4676   */\n      dup3\n        /* \"#utility.yul\":4663:4682   */\n      add\n        /* \"#utility.yul\":4655:4682   */\n      swap1\n      pop\n        /* \"#utility.yul\":4692:4763   */\n      tag_425\n        /* \"#utility.yul\":4760:4761   */\n      0x00\n        /* \"#utility.yul\":4749:4758   */\n      dup4\n        /* \"#utility.yul\":4745:4762   */\n      add\n        /* \"#utility.yul\":4736:4742   */\n      dup11\n        /* \"#utility.yul\":4692:4763   */\n      tag_307\n      jump\t// in\n    tag_425:\n        /* \"#utility.yul\":4773:4845   */\n      tag_426\n        /* \"#utility.yul\":4841:4843   */\n      0x20\n        /* \"#utility.yul\":4830:4839   */\n      dup4\n        /* \"#utility.yul\":4826:4844   */\n      add\n        /* \"#utility.yul\":4817:4823   */\n      dup10\n        /* \"#utility.yul\":4773:4845   */\n      tag_307\n      jump\t// in\n    tag_426:\n        /* \"#utility.yul\":4855:4927   */\n      tag_427\n        /* \"#utility.yul\":4923:4925   */\n      0x40\n        /* \"#utility.yul\":4912:4921   */\n      dup4\n        /* \"#utility.yul\":4908:4926   */\n      add\n        /* \"#utility.yul\":4899:4905   */\n      dup9\n        /* \"#utility.yul\":4855:4927   */\n      tag_307\n      jump\t// in\n    tag_427:\n        /* \"#utility.yul\":4937:5009   */\n      tag_428\n        /* \"#utility.yul\":5005:5007   */\n      0x60\n        /* \"#utility.yul\":4994:5003   */\n      dup4\n        /* \"#utility.yul\":4990:5008   */\n      add\n        /* \"#utility.yul\":4981:4987   */\n      dup8\n        /* \"#utility.yul\":4937:5009   */\n      tag_308\n      jump\t// in\n    tag_428:\n        /* \"#utility.yul\":5019:5092   */\n      tag_429\n        /* \"#utility.yul\":5087:5090   */\n      0x80\n        /* \"#utility.yul\":5076:5085   */\n      dup4\n        /* \"#utility.yul\":5072:5091   */\n      add\n        /* \"#utility.yul\":5063:5069   */\n      dup7\n        /* \"#utility.yul\":5019:5092   */\n      tag_309\n      jump\t// in\n    tag_429:\n        /* \"#utility.yul\":5102:5169   */\n      tag_430\n        /* \"#utility.yul\":5164:5167   */\n      0xa0\n        /* \"#utility.yul\":5153:5162   */\n      dup4\n        /* \"#utility.yul\":5149:5168   */\n      add\n        /* \"#utility.yul\":5140:5146   */\n      dup6\n        /* \"#utility.yul\":5102:5169   */\n      tag_311\n      jump\t// in\n    tag_430:\n        /* \"#utility.yul\":5179:5257   */\n      tag_431\n        /* \"#utility.yul\":5252:5255   */\n      0xc0\n        /* \"#utility.yul\":5241:5250   */\n      dup4\n        /* \"#utility.yul\":5237:5256   */\n      add\n        /* \"#utility.yul\":5228:5234   */\n      dup5\n        /* \"#utility.yul\":5179:5257   */\n      tag_315\n      jump\t// in\n    tag_431:\n        /* \"#utility.yul\":4380:5264   */\n      swap9\n      swap8\n      pop\n      pop\n      pop\n      pop\n      pop\n      pop\n      pop\n      pop\n      jump\t// out\n        /* \"#utility.yul\":5270:5386   */\n    tag_316:\n        /* \"#utility.yul\":5340:5361   */\n      tag_433\n        /* \"#utility.yul\":5355:5360   */\n      dup2\n        /* \"#utility.yul\":5340:5361   */\n      tag_310\n      jump\t// in\n    tag_433:\n        /* \"#utility.yul\":5333:5338   */\n      dup2\n        /* \"#utility.yul\":5330:5362   */\n      eq\n        /* \"#utility.yul\":5320:5380   */\n      tag_434\n      jumpi\n        /* \"#utility.yul\":5376:5377   */\n      0x00\n        /* \"#utility.yul\":5373:5374   */\n      0x00\n        /* \"#utility.yul\":5366:5378   */\n      revert\n        /* \"#utility.yul\":5320:5380   */\n    tag_434:\n        /* \"#utility.yul\":5270:5386   */\n      pop\n      jump\t// out\n        /* \"#utility.yul\":5392:5525   */\n    tag_317:\n        /* \"#utility.yul\":5435:5440   */\n      0x00\n        /* \"#utility.yul\":5473:5479   */\n      dup2\n        /* \"#utility.yul\":5460:5480   */\n      calldataload\n        /* \"#utility.yul\":5451:5480   */\n      swap1\n      pop\n        /* \"#utility.yul\":5489:5519   */\n      tag_436\n        /* \"#utility.yul\":5513:5518   */\n      dup2\n        /* \"#utility.yul\":5489:5519   */\n      tag_316\n      jump\t// in\n    tag_436:\n        /* \"#utility.yul\":5392:5525   */\n      swap3\n      swap2\n      pop\n      pop\n      jump\t// out\n        /* \"#utility.yul\":5531:5999   */\n    tag_41:\n        /* \"#utility.yul\":5596:5602   */\n      0x00\n        /* \"#utility.yul\":5604:5610   */\n      0x00\n        /* \"#utility.yul\":5653:5655   */\n      0x40\n        /* \"#utility.yul\":5641:5650   */\n      dup4\n        /* \"#utility.yul\":5632:5639   */\n      dup6\n        /* \"#utility.yul\":5628:5651   */\n      sub\n        /* \"#utility.yul\":5624:5656   */\n      slt\n        /* \"#utility.yul\":5621:5740   */\n      iszero\n      tag_438\n      jumpi\n        /* \"#utility.yul\":5659:5738   */\n      tag_439\n      tag_297\n      jump\t// in\n    tag_439:\n        /* \"#utility.yul\":5621:5740   */\n    tag_438:\n        /* \"#utility.yul\":5779:5780   */\n      0x00\n        /* \"#utility.yul\":5804:5857   */\n      tag_440\n        /* \"#utility.yul\":5849:5856   */\n      dup6\n        /* \"#utility.yul\":5840:5846   */\n      dup3\n        /* \"#utility.yul\":5829:5838   */\n      dup7\n        /* \"#utility.yul\":5825:5847   */\n      add\n        /* \"#utility.yul\":5804:5857   */\n      tag_301\n      jump\t// in\n    tag_440:\n        /* \"#utility.yul\":5794:5857   */\n      swap3\n      pop\n        /* \"#utility.yul\":5750:5867   */\n      pop\n        /* \"#utility.yul\":5906:5908   */\n      0x20\n        /* \"#utility.yul\":5932:5982   */\n      tag_441\n        /* \"#utility.yul\":5974:5981   */\n      dup6\n        /* \"#utility.yul\":5965:5971   */\n      dup3\n        /* \"#utility.yul\":5954:5963   */\n      dup7\n        /* \"#utility.yul\":5950:5972   */\n      add\n        /* \"#utility.yul\":5932:5982   */\n      tag_317\n      jump\t// in\n    tag_441:\n        /* \"#utility.yul\":5922:5982   */\n      swap2\n      pop\n        /* \"#utility.yul\":5877:5992   */\n      pop\n        /* \"#utility.yul\":5531:5999   */\n      swap3\n      pop\n      swap3\n      swap1\n      pop\n      jump\t// out\n        /* \"#utility.yul\":6005:6122   */\n    tag_318:\n        /* \"#utility.yul\":6114:6115   */\n      0x00\n        /* \"#utility.yul\":6111:6112   */\n      0x00\n        /* \"#utility.yul\":6104:6116   */\n      revert\n        /* \"#utility.yul\":6128:6245   */\n    tag_319:\n        /* \"#utility.yul\":6237:6238   */\n      0x00\n        /* \"#utility.yul\":6234:6235   */\n      0x00\n        /* \"#utility.yul\":6227:6239   */\n      revert\n        /* \"#utility.yul\":6251:6368   */\n    tag_320:\n        /* \"#utility.yul\":6360:6361   */\n      0x00\n        /* \"#utility.yul\":6357:6358   */\n      0x00\n        /* \"#utility.yul\":6350:6362   */\n      revert\n        /* \"#utility.yul\":6388:6941   */\n    tag_321:\n        /* \"#utility.yul\":6446:6454   */\n      0x00\n        /* \"#utility.yul\":6456:6462   */\n      0x00\n        /* \"#utility.yul\":6506:6509   */\n      dup4\n        /* \"#utility.yul\":6499:6503   */\n      0x1f\n        /* \"#utility.yul\":6491:6497   */\n      dup5\n        /* \"#utility.yul\":6487:6504   */\n      add\n        /* \"#utility.yul\":6483:6510   */\n      slt\n        /* \"#utility.yul\":6473:6595   */\n      tag_446\n      jumpi\n        /* \"#utility.yul\":6514:6593   */\n      tag_447\n      tag_318\n      jump\t// in\n    tag_447:\n        /* \"#utility.yul\":6473:6595   */\n    tag_446:\n        /* \"#utility.yul\":6627:6633   */\n      dup3\n        /* \"#utility.yul\":6614:6634   */\n      calldataload\n        /* \"#utility.yul\":6604:6634   */\n      swap1\n      pop\n        /* \"#utility.yul\":6657:6675   */\n      0xffffffffffffffff\n        /* \"#utility.yul\":6649:6655   */\n      dup2\n        /* \"#utility.yul\":6646:6676   */\n      gt\n        /* \"#utility.yul\":6643:6760   */\n      iszero\n      tag_448\n      jumpi\n        /* \"#utility.yul\":6679:6758   */\n      tag_449\n      tag_319\n      jump\t// in\n    tag_449:\n        /* \"#utility.yul\":6643:6760   */\n    tag_448:\n        /* \"#utility.yul\":6793:6797   */\n      0x20\n        /* \"#utility.yul\":6785:6791   */\n      dup4\n        /* \"#utility.yul\":6781:6798   */\n      add\n        /* \"#utility.yul\":6769:6798   */\n      swap2\n      pop\n        /* \"#utility.yul\":6847:6850   */\n      dup4\n        /* \"#utility.yul\":6839:6843   */\n      0x01\n        /* \"#utility.yul\":6831:6837   */\n      dup3\n        /* \"#utility.yul\":6827:6844   */\n      mul\n        /* \"#utility.yul\":6817:6825   */\n      dup4\n        /* \"#utility.yul\":6813:6845   */\n      add\n        /* \"#utility.yul\":6810:6851   */\n      gt\n        /* \"#utility.yul\":6807:6935   */\n      iszero\n      tag_450\n      jumpi\n        /* \"#utility.yul\":6854:6933   */\n      tag_451\n      tag_320\n      jump\t// in\n    tag_451:\n        /* \"#utility.yul\":6807:6935   */\n    tag_450:\n        /* \"#utility.yul\":6388:6941   */\n      swap3\n      pop\n      swap3\n      swap1\n      pop\n      jump\t// out\n        /* \"#utility.yul\":6947:7621   */\n    tag_46:\n        /* \"#utility.yul\":7027:7033   */\n      0x00\n        /* \"#utility.yul\":7035:7041   */\n      0x00\n        /* \"#utility.yul\":7043:7049   */\n      0x00\n        /* \"#utility.yul\":7092:7094   */\n      0x40\n        /* \"#utility.yul\":7080:7089   */\n      dup5\n        /* \"#utility.yul\":7071:7078   */\n      dup7\n        /* \"#utility.yul\":7067:7090   */\n      sub\n        /* \"#utility.yul\":7063:7095   */\n      slt\n        /* \"#utility.yul\":7060:7179   */\n      iszero\n      tag_453\n      jumpi\n        /* \"#utility.yul\":7098:7177   */\n      tag_454\n      tag_297\n      jump\t// in\n    tag_454:\n        /* \"#utility.yul\":7060:7179   */\n    tag_453:\n        /* \"#utility.yul\":7218:7219   */\n      0x00\n        /* \"#utility.yul\":7243:7296   */\n      tag_455\n        /* \"#utility.yul\":7288:7295   */\n      dup7\n        /* \"#utility.yul\":7279:7285   */\n      dup3\n        /* \"#utility.yul\":7268:7277   */\n      dup8\n        /* \"#utility.yul\":7264:7286   */\n      add\n        /* \"#utility.yul\":7243:7296   */\n      tag_301\n      jump\t// in\n    tag_455:\n        /* \"#utility.yul\":7233:7296   */\n      swap4\n      pop\n        /* \"#utility.yul\":7189:7306   */\n      pop\n        /* \"#utility.yul\":7373:7375   */\n      0x20\n        /* \"#utility.yul\":7362:7371   */\n      dup5\n        /* \"#utility.yul\":7358:7376   */\n      add\n        /* \"#utility.yul\":7345:7377   */\n      calldataload\n        /* \"#utility.yul\":7404:7422   */\n      0xffffffffffffffff\n        /* \"#utility.yul\":7396:7402   */\n      dup2\n        /* \"#utility.yul\":7393:7423   */\n      gt\n        /* \"#utility.yul\":7390:7507   */\n      iszero\n      tag_456\n      jumpi\n        /* \"#utility.yul\":7426:7505   */\n      tag_457\n      tag_298\n      jump\t// in\n    tag_457:\n        /* \"#utility.yul\":7390:7507   */\n    tag_456:\n        /* \"#utility.yul\":7539:7604   */\n      tag_458\n        /* \"#utility.yul\":7596:7603   */\n      dup7\n        /* \"#utility.yul\":7587:7593   */\n      dup3\n        /* \"#utility.yul\":7576:7585   */\n      dup8\n        /* \"#utility.yul\":7572:7594   */\n      add\n        /* \"#utility.yul\":7539:7604   */\n      tag_321\n      jump\t// in\n    tag_458:\n        /* \"#utility.yul\":7521:7604   */\n      swap3\n      pop\n      swap3\n      pop\n        /* \"#utility.yul\":7316:7614   */\n      pop\n        /* \"#utility.yul\":6947:7621   */\n      swap3\n      pop\n      swap3\n      pop\n      swap3\n      jump\t// out\n        /* \"#utility.yul\":7627:7849   */\n    tag_52:\n        /* \"#utility.yul\":7720:7724   */\n      0x00\n        /* \"#utility.yul\":7758:7760   */\n      0x20\n        /* \"#utility.yul\":7747:7756   */\n      dup3\n        /* \"#utility.yul\":7743:7761   */\n      add\n        /* \"#utility.yul\":7735:7761   */\n      swap1\n      pop\n        /* \"#utility.yul\":7771:7842   */\n      tag_460\n        /* \"#utility.yul\":7839:7840   */\n      0x00\n        /* \"#utility.yul\":7828:7837   */\n      dup4\n        /* \"#utility.yul\":7824:7841   */\n      add\n        /* \"#utility.yul\":7815:7821   */\n      dup5\n        /* \"#utility.yul\":7771:7842   */\n      tag_308\n      jump\t// in\n    tag_460:\n        /* \"#utility.yul\":7627:7849   */\n      swap3\n      swap2\n      pop\n      pop\n      jump\t// out\n        /* \"#utility.yul\":7855:8384   */\n    tag_56:\n        /* \"#utility.yul\":7926:7932   */\n      0x00\n        /* \"#utility.yul\":7934:7940   */\n      0x00\n        /* \"#utility.yul\":7983:7985   */\n      0x20\n        /* \"#utility.yul\":7971:7980   */\n      dup4\n        /* \"#utility.yul\":7962:7969   */\n      dup6\n        /* \"#utility.yul\":7958:7981   */\n      sub\n        /* \"#utility.yul\":7954:7986   */\n      slt\n        /* \"#utility.yul\":7951:8070   */\n      iszero\n      tag_462\n      jumpi\n        /* \"#utility.yul\":7989:8068   */\n      tag_463\n      tag_297\n      jump\t// in\n    tag_463:\n        /* \"#utility.yul\":7951:8070   */\n    tag_462:\n        /* \"#utility.yul\":8137:8138   */\n      0x00\n        /* \"#utility.yul\":8126:8135   */\n      dup4\n        /* \"#utility.yul\":8122:8139   */\n      add\n        /* \"#utility.yul\":8109:8140   */\n      calldataload\n        /* \"#utility.yul\":8167:8185   */\n      0xffffffffffffffff\n        /* \"#utility.yul\":8159:8165   */\n      dup2\n        /* \"#utility.yul\":8156:8186   */\n      gt\n        /* \"#utility.yul\":8153:8270   */\n      iszero\n      tag_464\n      jumpi\n        /* \"#utility.yul\":8189:8268   */\n      tag_465\n      tag_298\n      jump\t// in\n    tag_465:\n        /* \"#utility.yul\":8153:8270   */\n    tag_464:\n        /* \"#utility.yul\":8302:8367   */\n      tag_466\n        /* \"#utility.yul\":8359:8366   */\n      dup6\n        /* \"#utility.yul\":8350:8356   */\n      dup3\n        /* \"#utility.yul\":8339:8348   */\n      dup7\n        /* \"#utility.yul\":8335:8357   */\n      add\n        /* \"#utility.yul\":8302:8367   */\n      tag_321\n      jump\t// in\n    tag_466:\n        /* \"#utility.yul\":8284:8367   */\n      swap3\n      pop\n      swap3\n      pop\n        /* \"#utility.yul\":8080:8377   */\n      pop\n        /* \"#utility.yul\":7855:8384   */\n      swap3\n      pop\n      swap3\n      swap1\n      pop\n      jump\t// out\n        /* \"#utility.yul\":8390:8612   */\n    tag_59:\n        /* \"#utility.yul\":8483:8487   */\n      0x00\n        /* \"#utility.yul\":8521:8523   */\n      0x20\n        /* \"#utility.yul\":8510:8519   */\n      dup3\n        /* \"#utility.yul\":8506:8524   */\n      add\n        /* \"#utility.yul\":8498:8524   */\n      swap1\n      pop\n        /* \"#utility.yul\":8534:8605   */\n      tag_468\n        /* \"#utility.yul\":8602:8603   */\n      0x00\n        /* \"#utility.yul\":8591:8600   */\n      dup4\n        /* \"#utility.yul\":8587:8604   */\n      add\n        /* \"#utility.yul\":8578:8584   */\n      dup5\n        /* \"#utility.yul\":8534:8605   */\n      tag_309\n      jump\t// in\n    tag_468:\n        /* \"#utility.yul\":8390:8612   */\n      swap3\n      swap2\n      pop\n      pop\n      jump\t// out\n        /* \"#utility.yul\":8618:8740   */\n    tag_322:\n        /* \"#utility.yul\":8691:8715   */\n      tag_470\n        /* \"#utility.yul\":8709:8714   */\n      dup2\n        /* \"#utility.yul\":8691:8715   */\n      tag_306\n      jump\t// in\n    tag_470:\n        /* \"#utility.yul\":8684:8689   */\n      dup2\n        /* \"#utility.yul\":8681:8716   */\n      eq\n        /* \"#utility.yul\":8671:8734   */\n      tag_471\n      jumpi\n        /* \"#utility.yul\":8730:8731   */\n      0x00\n        /* \"#utility.yul\":8727:8728   */\n      0x00\n        /* \"#utility.yul\":8720:8732   */\n      revert\n        /* \"#utility.yul\":8671:8734   */\n    tag_471:\n        /* \"#utility.yul\":8618:8740   */\n      pop\n      jump\t// out\n        /* \"#utility.yul\":8746:8885   */\n    tag_323:\n        /* \"#utility.yul\":8792:8797   */\n      0x00\n        /* \"#utility.yul\":8830:8836   */\n      dup2\n        /* \"#utility.yul\":8817:8837   */\n      calldataload\n        /* \"#utility.yul\":8808:8837   */\n      swap1\n      pop\n        /* \"#utility.yul\":8846:8879   */\n      tag_473\n        /* \"#utility.yul\":8873:8878   */\n      dup2\n        /* \"#utility.yul\":8846:8879   */\n      tag_322\n      jump\t// in\n    tag_473:\n        /* \"#utility.yul\":8746:8885   */\n      swap3\n      swap2\n      pop\n      pop\n      jump\t// out\n        /* \"#utility.yul\":8891:9710   */\n    tag_66:\n        /* \"#utility.yul\":8980:8986   */\n      0x00\n        /* \"#utility.yul\":8988:8994   */\n      0x00\n        /* \"#utility.yul\":8996:9002   */\n      0x00\n        /* \"#utility.yul\":9004:9010   */\n      0x00\n        /* \"#utility.yul\":9053:9055   */\n      0x60\n        /* \"#utility.yul\":9041:9050   */\n      dup6\n        /* \"#utility.yul\":9032:9039   */\n      dup8\n        /* \"#utility.yul\":9028:9051   */\n      sub\n        /* \"#utility.yul\":9024:9056   */\n      slt\n        /* \"#utility.yul\":9021:9140   */\n      iszero\n      tag_475\n      jumpi\n        /* \"#utility.yul\":9059:9138   */\n      tag_476\n      tag_297\n      jump\t// in\n    tag_476:\n        /* \"#utility.yul\":9021:9140   */\n    tag_475:\n        /* \"#utility.yul\":9179:9180   */\n      0x00\n        /* \"#utility.yul\":9204:9257   */\n      tag_477\n        /* \"#utility.yul\":9249:9256   */\n      dup8\n        /* \"#utility.yul\":9240:9246   */\n      dup3\n        /* \"#utility.yul\":9229:9238   */\n      dup9\n        /* \"#utility.yul\":9225:9247   */\n      add\n        /* \"#utility.yul\":9204:9257   */\n      tag_323\n      jump\t// in\n    tag_477:\n        /* \"#utility.yul\":9194:9257   */\n      swap5\n      pop\n        /* \"#utility.yul\":9150:9267   */\n      pop\n        /* \"#utility.yul\":9306:9308   */\n      0x20\n        /* \"#utility.yul\":9332:9385   */\n      tag_478\n        /* \"#utility.yul\":9377:9384   */\n      dup8\n        /* \"#utility.yul\":9368:9374   */\n      dup3\n        /* \"#utility.yul\":9357:9366   */\n      dup9\n        /* \"#utility.yul\":9353:9375   */\n      add\n        /* \"#utility.yul\":9332:9385   */\n      tag_323\n      jump\t// in\n    tag_478:\n        /* \"#utility.yul\":9322:9385   */\n      swap4\n      pop\n        /* \"#utility.yul\":9277:9395   */\n      pop\n        /* \"#utility.yul\":9462:9464   */\n      0x40\n        /* \"#utility.yul\":9451:9460   */\n      dup6\n        /* \"#utility.yul\":9447:9465   */\n      add\n        /* \"#utility.yul\":9434:9466   */\n      calldataload\n        /* \"#utility.yul\":9493:9511   */\n      0xffffffffffffffff\n        /* \"#utility.yul\":9485:9491   */\n      dup2\n        /* \"#utility.yul\":9482:9512   */\n      gt\n        /* \"#utility.yul\":9479:9596   */\n      iszero\n      tag_479\n      jumpi\n        /* \"#utility.yul\":9515:9594   */\n      tag_480\n      tag_298\n      jump\t// in\n    tag_480:\n        /* \"#utility.yul\":9479:9596   */\n    tag_479:\n        /* \"#utility.yul\":9628:9693   */\n      tag_481\n        /* \"#utility.yul\":9685:9692   */\n      dup8\n        /* \"#utility.yul\":9676:9682   */\n      dup3\n        /* \"#utility.yul\":9665:9674   */\n      dup9\n        /* \"#utility.yul\":9661:9683   */\n      add\n        /* \"#utility.yul\":9628:9693   */\n      tag_321\n      jump\t// in\n    tag_481:\n        /* \"#utility.yul\":9610:9693   */\n      swap3\n      pop\n      swap3\n      pop\n        /* \"#utility.yul\":9405:9703   */\n      pop\n        /* \"#utility.yul\":8891:9710   */\n      swap3\n      swap6\n      swap2\n      swap5\n      pop\n      swap3\n      pop\n      jump\t// out\n        /* \"#utility.yul\":9716:9938   */\n    tag_85:\n        /* \"#utility.yul\":9809:9813   */\n      0x00\n        /* \"#utility.yul\":9847:9849   */\n      0x20\n        /* \"#utility.yul\":9836:9845   */\n      dup3\n        /* \"#utility.yul\":9832:9850   */\n      add\n        /* \"#utility.yul\":9824:9850   */\n      swap1\n      pop\n        /* \"#utility.yul\":9860:9931   */\n      tag_483\n        /* \"#utility.yul\":9928:9929   */\n      0x00\n        /* \"#utility.yul\":9917:9926   */\n      dup4\n        /* \"#utility.yul\":9913:9930   */\n      add\n        /* \"#utility.yul\":9904:9910   */\n      dup5\n        /* \"#utility.yul\":9860:9931   */\n      tag_307\n      jump\t// in\n    tag_483:\n        /* \"#utility.yul\":9716:9938   */\n      swap3\n      swap2\n      pop\n      pop\n      jump\t// out\n        /* \"#utility.yul\":9944:10113   */\n    tag_324:\n        /* \"#utility.yul\":10028:10039   */\n      0x00\n        /* \"#utility.yul\":10062:10068   */\n      dup3\n        /* \"#utility.yul\":10057:10060   */\n      dup3\n        /* \"#utility.yul\":10050:10069   */\n      mstore\n        /* \"#utility.yul\":10102:10106   */\n      0x20\n        /* \"#utility.yul\":10097:10100   */\n      dup3\n        /* \"#utility.yul\":10093:10107   */\n      add\n        /* \"#utility.yul\":10078:10107   */\n      swap1\n      pop\n        /* \"#utility.yul\":9944:10113   */\n      swap3\n      swap2\n      pop\n      pop\n      jump\t// out\n        /* \"#utility.yul\":10119:10281   */\n    tag_325:\n        /* \"#utility.yul\":10259:10273   */\n      0x4e6f742076657269666965720000000000000000000000000000000000000000\n        /* \"#utility.yul\":10255:10256   */\n      0x00\n        /* \"#utility.yul\":10247:10253   */\n      dup3\n        /* \"#utility.yul\":10243:10257   */\n      add\n        /* \"#utility.yul\":10236:10274   */\n      mstore\n        /* \"#utility.yul\":10119:10281   */\n      pop\n      jump\t// out\n        /* \"#utility.yul\":10287:10653   */\n    tag_326:\n        /* \"#utility.yul\":10429:10432   */\n      0x00\n        /* \"#utility.yul\":10450:10517   */\n      tag_487\n        /* \"#utility.yul\":10514:10516   */\n      0x0c\n        /* \"#utility.yul\":10509:10512   */\n      dup4\n        /* \"#utility.yul\":10450:10517   */\n      tag_324\n      jump\t// in\n    tag_487:\n        /* \"#utility.yul\":10443:10517   */\n      swap2\n      pop\n        /* \"#utility.yul\":10526:10619   */\n      tag_488\n        /* \"#utility.yul\":10615:10618   */\n      dup3\n        /* \"#utility.yul\":10526:10619   */\n      tag_325\n      jump\t// in\n    tag_488:\n        /* \"#utility.yul\":10644:10646   */\n      0x20\n        /* \"#utility.yul\":10639:10642   */\n      dup3\n        /* \"#utility.yul\":10635:10647   */\n      add\n        /* \"#utility.yul\":10628:10647   */\n      swap1\n      pop\n        /* \"#utility.yul\":10287:10653   */\n      swap2\n      swap1\n      pop\n      jump\t// out\n        /* \"#utility.yul\":10659:11078   */\n    tag_89:\n        /* \"#utility.yul\":10825:10829   */\n      0x00\n        /* \"#utility.yul\":10863:10865   */\n      0x20\n        /* \"#utility.yul\":10852:10861   */\n      dup3\n        /* \"#utility.yul\":10848:10866   */\n      add\n        /* \"#utility.yul\":10840:10866   */\n      swap1\n      pop\n        /* \"#utility.yul\":10912:10921   */\n      dup2\n        /* \"#utility.yul\":10906:10910   */\n      dup2\n        /* \"#utility.yul\":10902:10922   */\n      sub\n        /* \"#utility.yul\":10898:10899   */\n      0x00\n        /* \"#utility.yul\":10887:10896   */\n      dup4\n        /* \"#utility.yul\":10883:10900   */\n      add\n        /* \"#utility.yul\":10876:10923   */\n      mstore\n        /* \"#utility.yul\":10940:11071   */\n      tag_490\n        /* \"#utility.yul\":11066:11070   */\n      dup2\n        /* \"#utility.yul\":10940:11071   */\n      tag_326\n      jump\t// in\n    tag_490:\n        /* \"#utility.yul\":10932:11071   */\n      swap1\n      pop\n        /* \"#utility.yul\":10659:11078   */\n      swap2\n      swap1\n      pop\n      jump\t// out\n        /* \"#utility.yul\":11084:11243   */\n    tag_327:\n        /* \"#utility.yul\":11224:11235   */\n      0x4261642073746174650000000000000000000000000000000000000000000000\n        /* \"#utility.yul\":11220:11221   */\n      0x00\n        /* \"#utility.yul\":11212:11218   */\n      dup3\n        /* \"#utility.yul\":11208:11222   */\n      add\n        /* \"#utility.yul\":11201:11236   */\n      mstore\n        /* \"#utility.yul\":11084:11243   */\n      pop\n      jump\t// out\n        /* \"#utility.yul\":11249:11614   */\n    tag_328:\n        /* \"#utility.yul\":11391:11394   */\n      0x00\n        /* \"#utility.yul\":11412:11478   */\n      tag_493\n        /* \"#utility.yul\":11476:11477   */\n      0x09\n        /* \"#utility.yul\":11471:11474   */\n      dup4\n        /* \"#utility.yul\":11412:11478   */\n      tag_324\n      jump\t// in\n    tag_493:\n        /* \"#utility.yul\":11405:11478   */\n      swap2\n      pop\n        /* \"#utility.yul\":11487:11580   */\n      tag_494\n        /* \"#utility.yul\":11576:11579   */\n      dup3\n        /* \"#utility.yul\":11487:11580   */\n      tag_327\n      jump\t// in\n    tag_494:\n        /* \"#utility.yul\":11605:11607   */\n      0x20\n        /* \"#utility.yul\":11600:11603   */\n      dup3\n        /* \"#utility.yul\":11596:11608   */\n      add\n        /* \"#utility.yul\":11589:11608   */\n      swap1\n      pop\n        /* \"#utility.yul\":11249:11614   */\n      swap2\n      swap1\n      pop\n      jump\t// out\n        /* \"#utility.yul\":11620:12039   */\n    tag_98:\n        /* \"#utility.yul\":11786:11790   */\n      0x00\n        /* \"#utility.yul\":11824:11826   */\n      0x20\n        /* \"#utility.yul\":11813:11822   */\n      dup3\n        /* \"#utility.yul\":11809:11827   */\n      add\n        /* \"#utility.yul\":11801:11827   */\n      swap1\n      pop\n        /* \"#utility.yul\":11873:11882   */\n      dup2\n        /* \"#utility.yul\":11867:11871   */\n      dup2\n        /* \"#utility.yul\":11863:11883   */\n      sub\n        /* \"#utility.yul\":11859:11860   */\n      0x00\n        /* \"#utility.yul\":11848:11857   */\n      dup4\n        /* \"#utility.yul\":11844:11861   */\n      add\n        /* \"#utility.yul\":11837:11884   */\n      mstore\n        /* \"#utility.yul\":11901:12032   */\n      tag_496\n        /* \"#utility.yul\":12027:12031   */\n      dup2\n        /* \"#utility.yul\":11901:12032   */\n      tag_328\n      jump\t// in\n    tag_496:\n        /* \"#utility.yul\":11893:12032   */\n      swap1\n      pop\n        /* \"#utility.yul\":11620:12039   */\n      swap2\n      swap1\n      pop\n      jump\t// out\n        /* \"#utility.yul\":12045:12206   */\n    tag_329:\n        /* \"#utility.yul\":12185:12198   */\n      0x646f63206e6f7420736574000000000000000000000000000000000000000000\n        /* \"#utility.yul\":12181:12182   */\n      0x00\n        /* \"#utility.yul\":12173:12179   */\n      dup3\n        /* \"#utility.yul\":12169:12183   */\n      add\n        /* \"#utility.yul\":12162:12199   */\n      mstore\n        /* \"#utility.yul\":12045:12206   */\n      pop\n      jump\t// out\n        /* \"#utility.yul\":12212:12578   */\n    tag_330:\n        /* \"#utility.yul\":12354:12357   */\n      0x00\n        /* \"#utility.yul\":12375:12442   */\n      tag_499\n        /* \"#utility.yul\":12439:12441   */\n      0x0b\n        /* \"#utility.yul\":12434:12437   */\n      dup4\n        /* \"#utility.yul\":12375:12442   */\n      tag_324\n      jump\t// in\n    tag_499:\n        /* \"#utility.yul\":12368:12442   */\n      swap2\n      pop\n        /* \"#utility.yul\":12451:12544   */\n      tag_500\n        /* \"#utility.yul\":12540:12543   */\n      dup3\n        /* \"#utility.yul\":12451:12544   */\n      tag_329\n      jump\t// in\n    tag_500:\n        /* \"#utility.yul\":12569:12571   */\n      0x20\n        /* \"#utility.yul\":12564:12567   */\n      dup3\n        /* \"#utility.yul\":12560:12572   */\n      add\n        /* \"#utility.yul\":12553:12572   */\n      swap1\n      pop\n        /* \"#utility.yul\":12212:12578   */\n      swap2\n      swap1\n      pop\n      jump\t// out\n        /* \"#utility.yul\":12584:13003   */\n    tag_102:\n        /* \"#utility.yul\":12750:12754   */\n      0x00\n        /* \"#utility.yul\":12788:12790   */\n      0x20\n        /* \"#utility.yul\":12777:12786   */\n      dup3\n        /* \"#utility.yul\":12773:12791   */\n      add\n        /* \"#utility.yul\":12765:12791   */\n      swap1\n      pop\n        /* \"#utility.yul\":12837:12846   */\n      dup2\n        /* \"#utility.yul\":12831:12835   */\n      dup2\n        /* \"#utility.yul\":12827:12847   */\n      sub\n        /* \"#utility.yul\":12823:12824   */\n      0x00\n        /* \"#utility.yul\":12812:12821   */\n      dup4\n        /* \"#utility.yul\":12808:12825   */\n      add\n        /* \"#utility.yul\":12801:12848   */\n      mstore\n        /* \"#utility.yul\":12865:12996   */\n      tag_502\n        /* \"#utility.yul\":12991:12995   */\n      dup2\n        /* \"#utility.yul\":12865:12996   */\n      tag_330\n      jump\t// in\n    tag_502:\n        /* \"#utility.yul\":12857:12996   */\n      swap1\n      pop\n        /* \"#utility.yul\":12584:13003   */\n      swap2\n      swap1\n      pop\n      jump\t// out\n        /* \"#utility.yul\":13009:13172   */\n    tag_331:\n        /* \"#utility.yul\":13149:13164   */\n      0x68617368206d69736d6174636800000000000000000000000000000000000000\n        /* \"#utility.yul\":13145:13146   */\n      0x00\n        /* \"#utility.yul\":13137:13143   */\n      dup3\n        /* \"#utility.yul\":13133:13147   */\n      add\n        /* \"#utility.yul\":13126:13165   */\n      mstore\n        /* \"#utility.yul\":13009:13172   */\n      pop\n      jump\t// out\n        /* \"#utility.yul\":13178:13544   */\n    tag_332:\n        /* \"#utility.yul\":13320:13323   */\n      0x00\n        /* \"#utility.yul\":13341:13408   */\n      tag_505\n        /* \"#utility.yul\":13405:13407   */\n      0x0d\n        /* \"#utility.yul\":13400:13403   */\n      dup4\n        /* \"#utility.yul\":13341:13408   */\n      tag_324\n      jump\t// in\n    tag_505:\n        /* \"#utility.yul\":13334:13408   */\n      swap2\n      pop\n        /* \"#utility.yul\":13417:13510   */\n      tag_506\n        /* \"#utility.yul\":13506:13509   */\n      dup3\n        /* \"#utility.yul\":13417:13510   */\n      tag_331\n      jump\t// in\n    tag_506:\n        /* \"#utility.yul\":13535:13537   */\n      0x20\n        /* \"#utility.yul\":13530:13533   */\n      dup3\n        /* \"#utility.yul\":13526:13538   */\n      add\n        /* \"#utility.yul\":13519:13538   */\n      swap1\n      pop\n        /* \"#utility.yul\":13178:13544   */\n      swap2\n      swap1\n      pop\n      jump\t// out\n        /* \"#utility.yul\":13550:13969   */\n    tag_105:\n        /* \"#utility.yul\":13716:13720   */\n      0x00\n        /* \"#utility.yul\":13754:13756   */\n      0x20\n        /* \"#utility.yul\":13743:13752   */\n      dup3\n        /* \"#utility.yul\":13739:13757   */\n      add\n        /* \"#utility.yul\":13731:13757   */\n      swap1\n      pop\n        /* \"#utility.yul\":13803:13812   */\n      dup2\n        /* \"#utility.yul\":13797:13801   */\n      dup2\n        /* \"#utility.yul\":13793:13813   */\n      sub\n        /* \"#utility.yul\":13789:13790   */\n      0x00\n        /* \"#utility.yul\":13778:13787   */\n      dup4\n        /* \"#utility.yul\":13774:13791   */\n      add\n        /* \"#utility.yul\":13767:13814   */\n      mstore\n        /* \"#utility.yul\":13831:13962   */\n      tag_508\n        /* \"#utility.yul\":13957:13961   */\n      dup2\n        /* \"#utility.yul\":13831:13962   */\n      tag_332\n      jump\t// in\n    tag_508:\n        /* \"#utility.yul\":13823:13962   */\n      swap1\n      pop\n        /* \"#utility.yul\":13550:13969   */\n      swap2\n      swap1\n      pop\n      jump\t// out\n        /* \"#utility.yul\":13975:14136   */\n    tag_333:\n        /* \"#utility.yul\":14115:14128   */\n      0x4e6f742061726269746572000000000000000000000000000000000000000000\n        /* \"#utility.yul\":14111:14112   */\n      0x00\n        /* \"#utility.yul\":14103:14109   */\n      dup3\n        /* \"#utility.yul\":14099:14113   */\n      add\n        /* \"#utility.yul\":14092:14129   */\n      mstore\n        /* \"#utility.yul\":13975:14136   */\n      pop\n      jump\t// out\n        /* \"#utility.yul\":14142:14508   */\n    tag_334:\n        /* \"#utility.yul\":14284:14287   */\n      0x00\n        /* \"#utility.yul\":14305:14372   */\n      tag_511\n        /* \"#utility.yul\":14369:14371   */\n      0x0b\n        /* \"#utility.yul\":14364:14367   */\n      dup4\n        /* \"#utility.yul\":14305:14372   */\n      tag_324\n      jump\t// in\n    tag_511:\n        /* \"#utility.yul\":14298:14372   */\n      swap2\n      pop\n        /* \"#utility.yul\":14381:14474   */\n      tag_512\n        /* \"#utility.yul\":14470:14473   */\n      dup3\n        /* \"#utility.yul\":14381:14474   */\n      tag_333\n      jump\t// in\n    tag_512:\n        /* \"#utility.yul\":14499:14501   */\n      0x20\n        /* \"#utility.yul\":14494:14497   */\n      dup3\n        /* \"#utility.yul\":14490:14502   */\n      add\n        /* \"#utility.yul\":14483:14502   */\n      swap1\n      pop\n        /* \"#utility.yul\":14142:14508   */\n      swap2\n      swap1\n      pop\n      jump\t// out\n        /* \"#utility.yul\":14514:14933   */\n    tag_113:\n        /* \"#utility.yul\":14680:14684   */\n      0x00\n        /* \"#utility.yul\":14718:14720   */\n      0x20\n        /* \"#utility.yul\":14707:14716   */\n      dup3\n        /* \"#utility.yul\":14703:14721   */\n      add\n        /* \"#utility.yul\":14695:14721   */\n      swap1\n      pop\n        /* \"#utility.yul\":14767:14776   */\n      dup2\n        /* \"#utility.yul\":14761:14765   */\n      dup2\n        /* \"#utility.yul\":14757:14777   */\n      sub\n        /* \"#utility.yul\":14753:14754   */\n      0x00\n        /* \"#utility.yul\":14742:14751   */\n      dup4\n        /* \"#utility.yul\":14738:14755   */\n      add\n        /* \"#utility.yul\":14731:14778   */\n      mstore\n        /* \"#utility.yul\":14795:14926   */\n      tag_514\n        /* \"#utility.yul\":14921:14925   */\n      dup2\n        /* \"#utility.yul\":14795:14926   */\n      tag_334\n      jump\t// in\n    tag_514:\n        /* \"#utility.yul\":14787:14926   */\n      swap1\n      pop\n        /* \"#utility.yul\":14514:14933   */\n      swap2\n      swap1\n      pop\n      jump\t// out\n        /* \"#utility.yul\":14939:15099   */\n    tag_335:\n        /* \"#utility.yul\":15079:15091   */\n      0x5265656e7472616e637900000000000000000000000000000000000000000000\n        /* \"#utility.yul\":15075:15076   */\n      0x00\n        /* \"#utility.yul\":15067:15073   */\n      dup3\n        /* \"#utility.yul\":15063:15077   */\n      add\n        /* \"#utility.yul\":15056:15092   */\n      mstore\n        /* \"#utility.yul\":14939:15099   */\n      pop\n      jump\t// out\n        /* \"#utility.yul\":15105:15471   */\n    tag_336:\n        /* \"#utility.yul\":15247:15250   */\n      0x00\n        /* \"#utility.yul\":15268:15335   */\n      tag_517\n        /* \"#utility.yul\":15332:15334   */\n      0x0a\n        /* \"#utility.yul\":15327:15330   */\n      dup4\n        /* \"#utility.yul\":15268:15335   */\n      tag_324\n      jump\t// in\n    tag_517:\n        /* \"#utility.yul\":15261:15335   */\n      swap2\n      pop\n        /* \"#utility.yul\":15344:15437   */\n      tag_518\n        /* \"#utility.yul\":15433:15436   */\n      dup3\n        /* \"#utility.yul\":15344:15437   */\n      tag_335\n      jump\t// in\n    tag_518:\n        /* \"#utility.yul\":15462:15464   */\n      0x20\n        /* \"#utility.yul\":15457:15460   */\n      dup3\n        /* \"#utility.yul\":15453:15465   */\n      add\n        /* \"#utility.yul\":15446:15465   */\n      swap1\n      pop\n        /* \"#utility.yul\":15105:15471   */\n      swap2\n      swap1\n      pop\n      jump\t// out\n        /* \"#utility.yul\":15477:15896   */\n    tag_117:\n        /* \"#utility.yul\":15643:15647   */\n      0x00\n        /* \"#utility.yul\":15681:15683   */\n      0x20\n        /* \"#utility.yul\":15670:15679   */\n      dup3\n        /* \"#utility.yul\":15666:15684   */\n      add\n        /* \"#utility.yul\":15658:15684   */\n      swap1\n      pop\n        /* \"#utility.yul\":15730:15739   */\n      dup2\n        /* \"#utility.yul\":15724:15728   */\n      dup2\n        /* \"#utility.yul\":15720:15740   */\n      sub\n        /* \"#utility.yul\":15716:15717   */\n      0x00\n        /* \"#utility.yul\":15705:15714   */\n      dup4\n        /* \"#utility.yul\":15701:15718   */\n      add\n        /* \"#utility.yul\":15694:15741   */\n      mstore\n        /* \"#utility.yul\":15758:15889   */\n      tag_520\n        /* \"#utility.yul\":15884:15888   */\n      dup2\n        /* \"#utility.yul\":15758:15889   */\n      tag_336\n      jump\t// in\n    tag_520:\n        /* \"#utility.yul\":15750:15889   */\n      swap1\n      pop\n        /* \"#utility.yul\":15477:15896   */\n      swap2\n      swap1\n      pop\n      jump\t// out\n        /* \"#utility.yul\":15902:16061   */\n    tag_337:\n        /* \"#utility.yul\":16042:16053   */\n      0x6261642073746174650000000000000000000000000000000000000000000000\n        /* \"#utility.yul\":16038:16039   */\n      0x00\n        /* \"#utility.yul\":16030:16036   */\n      dup3\n        /* \"#utility.yul\":16026:16040   */\n      add\n        /* \"#utility.yul\":16019:16054   */\n      mstore\n        /* \"#utility.yul\":15902:16061   */\n      pop\n      jump\t// out\n        /* \"#utility.yul\":16067:16432   */\n    tag_338:\n        /* \"#utility.yul\":16209:16212   */\n      0x00\n        /* \"#utility.yul\":16230:16296   */\n      tag_523\n        /* \"#utility.yul\":16294:16295   */\n      0x09\n        /* \"#utility.yul\":16289:16292   */\n      dup4\n        /* \"#utility.yul\":16230:16296   */\n      tag_324\n      jump\t// in\n    tag_523:\n        /* \"#utility.yul\":16223:16296   */\n      swap2\n      pop\n        /* \"#utility.yul\":16305:16398   */\n      tag_524\n        /* \"#utility.yul\":16394:16397   */\n      dup3\n        /* \"#utility.yul\":16305:16398   */\n      tag_337\n      jump\t// in\n    tag_524:\n        /* \"#utility.yul\":16423:16425   */\n      0x20\n        /* \"#utility.yul\":16418:16421   */\n      dup3\n        /* \"#utility.yul\":16414:16426   */\n      add\n        /* \"#utility.yul\":16407:16426   */\n      swap1\n      pop\n        /* \"#utility.yul\":16067:16432   */\n      swap2\n      swap1\n      pop\n      jump\t// out\n        /* \"#utility.yul\":16438:16857   */\n    tag_140:\n        /* \"#utility.yul\":16604:16608   */\n      0x00\n        /* \"#utility.yul\":16642:16644   */\n      0x20\n        /* \"#utility.yul\":16631:16640   */\n      dup3\n        /* \"#utility.yul\":16627:16645   */\n      add\n        /* \"#utility.yul\":16619:16645   */\n      swap1\n      pop\n        /* \"#utility.yul\":16691:16700   */\n      dup2\n        /* \"#utility.yul\":16685:16689   */\n      dup2\n        /* \"#utility.yul\":16681:16701   */\n      sub\n        /* \"#utility.yul\":16677:16678   */\n      0x00\n        /* \"#utility.yul\":16666:16675   */\n      dup4\n        /* \"#utility.yul\":16662:16679   */\n      add\n        /* \"#utility.yul\":16655:16702   */\n      mstore\n        /* \"#utility.yul\":16719:16850   */\n      tag_526\n        /* \"#utility.yul\":16845:16849   */\n      dup2\n        /* \"#utility.yul\":16719:16850   */\n      tag_338\n      jump\t// in\n    tag_526:\n        /* \"#utility.yul\":16711:16850   */\n      swap1\n      pop\n        /* \"#utility.yul\":16438:16857   */\n      swap2\n      swap1\n      pop\n      jump\t// out\n        /* \"#utility.yul\":16863:17010   */\n    tag_339:\n        /* \"#utility.yul\":16964:16975   */\n      0x00\n        /* \"#utility.yul\":17001:17004   */\n      dup2\n        /* \"#utility.yul\":16986:17004   */\n      swap1\n      pop\n        /* \"#utility.yul\":16863:17010   */\n      swap3\n      swap2\n      pop\n      pop\n      jump\t// out\n        /* \"#utility.yul\":17016:17130   */\n    tag_340:\n      pop\n      jump\t// out\n        /* \"#utility.yul\":17136:17534   */\n    tag_341:\n        /* \"#utility.yul\":17295:17298   */\n      0x00\n        /* \"#utility.yul\":17316:17399   */\n      tag_530\n        /* \"#utility.yul\":17397:17398   */\n      0x00\n        /* \"#utility.yul\":17392:17395   */\n      dup4\n        /* \"#utility.yul\":17316:17399   */\n      tag_339\n      jump\t// in\n    tag_530:\n        /* \"#utility.yul\":17309:17399   */\n      swap2\n      pop\n        /* \"#utility.yul\":17408:17501   */\n      tag_531\n        /* \"#utility.yul\":17497:17500   */\n      dup3\n        /* \"#utility.yul\":17408:17501   */\n      tag_340\n      jump\t// in\n    tag_531:\n        /* \"#utility.yul\":17526:17527   */\n      0x00\n        /* \"#utility.yul\":17521:17524   */\n      dup3\n        /* \"#utility.yul\":17517:17528   */\n      add\n        /* \"#utility.yul\":17510:17528   */\n      swap1\n      pop\n        /* \"#utility.yul\":17136:17534   */\n      swap2\n      swap1\n      pop\n      jump\t// out\n        /* \"#utility.yul\":17540:17919   */\n    tag_145:\n        /* \"#utility.yul\":17724:17727   */\n      0x00\n        /* \"#utility.yul\":17746:17893   */\n      tag_533\n        /* \"#utility.yul\":17889:17892   */\n      dup3\n        /* \"#utility.yul\":17746:17893   */\n      tag_341\n      jump\t// in\n    tag_533:\n        /* \"#utility.yul\":17739:17893   */\n      swap2\n      pop\n        /* \"#utility.yul\":17910:17913   */\n      dup2\n        /* \"#utility.yul\":17903:17913   */\n      swap1\n      pop\n        /* \"#utility.yul\":17540:17919   */\n      swap2\n      swap1\n      pop\n      jump\t// out\n        /* \"#utility.yul\":17925:18084   */\n    tag_342:\n        /* \"#utility.yul\":18065:18076   */\n      0x73656e64206661696c0000000000000000000000000000000000000000000000\n        /* \"#utility.yul\":18061:18062   */\n      0x00\n        /* \"#utility.yul\":18053:18059   */\n      dup3\n        /* \"#utility.yul\":18049:18063   */\n      add\n        /* \"#utility.yul\":18042:18077   */\n      mstore\n        /* \"#utility.yul\":17925:18084   */\n      pop\n      jump\t// out\n        /* \"#utility.yul\":18090:18455   */\n    tag_343:\n        /* \"#utility.yul\":18232:18235   */\n      0x00\n        /* \"#utility.yul\":18253:18319   */\n      tag_536\n        /* \"#utility.yul\":18317:18318   */\n      0x09\n        /* \"#utility.yul\":18312:18315   */\n      dup4\n        /* \"#utility.yul\":18253:18319   */\n      tag_324\n      jump\t// in\n    tag_536:\n        /* \"#utility.yul\":18246:18319   */\n      swap2\n      pop\n        /* \"#utility.yul\":18328:18421   */\n      tag_537\n        /* \"#utility.yul\":18417:18420   */\n      dup3\n        /* \"#utility.yul\":18328:18421   */\n      tag_342\n      jump\t// in\n    tag_537:\n        /* \"#utility.yul\":18446:18448   */\n      0x20\n        /* \"#utility.yul\":18441:18444   */\n      dup3\n        /* \"#utility.yul\":18437:18449   */\n      add\n        /* \"#utility.yul\":18430:18449   */\n      swap1\n      pop\n        /* \"#utility.yul\":18090:18455   */\n      swap2\n      swap1\n      pop\n      jump\t// out\n        /* \"#utility.yul\":18461:18880   */\n    tag_151:\n        /* \"#utility.yul\":18627:18631   */\n      0x00\n        /* \"#utility.yul\":18665:18667   */\n      0x20\n        /* \"#utility.yul\":18654:18663   */\n      dup3\n        /* \"#utility.yul\":18650:18668   */\n      add\n        /* \"#utility.yul\":18642:18668   */\n      swap1\n      pop\n        /* \"#utility.yul\":18714:18723   */\n      dup2\n        /* \"#utility.yul\":18708:18712   */\n      dup2\n        /* \"#utility.yul\":18704:18724   */\n      sub\n        /* \"#utility.yul\":18700:18701   */\n      0x00\n        /* \"#utility.yul\":18689:18698   */\n      dup4\n        /* \"#utility.yul\":18685:18702   */\n      add\n        /* \"#utility.yul\":18678:18725   */\n      mstore\n        /* \"#utility.yul\":18742:18873   */\n      tag_539\n        /* \"#utility.yul\":18868:18872   */\n      dup2\n        /* \"#utility.yul\":18742:18873   */\n      tag_343\n      jump\t// in\n    tag_539:\n        /* \"#utility.yul\":18734:18873   */\n      swap1\n      pop\n        /* \"#utility.yul\":18461:18880   */\n      swap2\n      swap1\n      pop\n      jump\t// out\n        /* \"#utility.yul\":18886:19218   */\n    tag_153:\n        /* \"#utility.yul\":19007:19011   */\n      0x00\n        /* \"#utility.yul\":19045:19047   */\n      0x40\n        /* \"#utility.yul\":19034:19043   */\n      dup3\n        /* \"#utility.yul\":19030:19048   */\n      add\n        /* \"#utility.yul\":19022:19048   */\n      swap1\n      pop\n        /* \"#utility.yul\":19058:19129   */\n      tag_541\n        /* \"#utility.yul\":19126:19127   */\n      0x00\n        /* \"#utility.yul\":19115:19124   */\n      dup4\n        /* \"#utility.yul\":19111:19128   */\n      add\n        /* \"#utility.yul\":19102:19108   */\n      dup6\n        /* \"#utility.yul\":19058:19129   */\n      tag_307\n      jump\t// in\n    tag_541:\n        /* \"#utility.yul\":19139:19211   */\n      tag_542\n        /* \"#utility.yul\":19207:19209   */\n      0x20\n        /* \"#utility.yul\":19196:19205   */\n      dup4\n        /* \"#utility.yul\":19192:19210   */\n      add\n        /* \"#utility.yul\":19183:19189   */\n      dup5\n        /* \"#utility.yul\":19139:19211   */\n      tag_308\n      jump\t// in\n    tag_542:\n        /* \"#utility.yul\":18886:19218   */\n      swap4\n      swap3\n      pop\n      pop\n      pop\n      jump\t// out\n        /* \"#utility.yul\":19224:19434   */\n    tag_155:\n        /* \"#utility.yul\":19311:19315   */\n      0x00\n        /* \"#utility.yul\":19349:19351   */\n      0x20\n        /* \"#utility.yul\":19338:19347   */\n      dup3\n        /* \"#utility.yul\":19334:19352   */\n      add\n        /* \"#utility.yul\":19326:19352   */\n      swap1\n      pop\n        /* \"#utility.yul\":19362:19427   */\n      tag_544\n        /* \"#utility.yul\":19424:19425   */\n      0x00\n        /* \"#utility.yul\":19413:19422   */\n      dup4\n        /* \"#utility.yul\":19409:19426   */\n      add\n        /* \"#utility.yul\":19400:19406   */\n      dup5\n        /* \"#utility.yul\":19362:19427   */\n      tag_311\n      jump\t// in\n    tag_544:\n        /* \"#utility.yul\":19224:19434   */\n      swap3\n      swap2\n      pop\n      pop\n      jump\t// out\n        /* \"#utility.yul\":19440:19599   */\n    tag_344:\n        /* \"#utility.yul\":19580:19591   */\n      0x6e6f742070617274790000000000000000000000000000000000000000000000\n        /* \"#utility.yul\":19576:19577   */\n      0x00\n        /* \"#utility.yul\":19568:19574   */\n      dup3\n        /* \"#utility.yul\":19564:19578   */\n      add\n        /* \"#utility.yul\":19557:19592   */\n      mstore\n        /* \"#utility.yul\":19440:19599   */\n      pop\n      jump\t// out\n        /* \"#utility.yul\":19605:19970   */\n    tag_345:\n        /* \"#utility.yul\":19747:19750   */\n      0x00\n        /* \"#utility.yul\":19768:19834   */\n      tag_547\n        /* \"#utility.yul\":19832:19833   */\n      0x09\n        /* \"#utility.yul\":19827:19830   */\n      dup4\n        /* \"#utility.yul\":19768:19834   */\n      tag_324\n      jump\t// in\n    tag_547:\n        /* \"#utility.yul\":19761:19834   */\n      swap2\n      pop\n        /* \"#utility.yul\":19843:19936   */\n      tag_548\n        /* \"#utility.yul\":19932:19935   */\n      dup3\n        /* \"#utility.yul\":19843:19936   */\n      tag_344\n      jump\t// in\n    tag_548:\n        /* \"#utility.yul\":19961:19963   */\n      0x20\n        /* \"#utility.yul\":19956:19959   */\n      dup3\n        /* \"#utility.yul\":19952:19964   */\n      add\n        /* \"#utility.yul\":19945:19964   */\n      swap1\n      pop\n        /* \"#utility.yul\":19605:19970   */\n      swap2\n      swap1\n      pop\n      jump\t// out\n        /* \"#utility.yul\":19976:20395   */\n    tag_169:\n        /* \"#utility.yul\":20142:20146   */\n      0x00\n        /* \"#utility.yul\":20180:20182   */\n      0x20\n        /* \"#utility.yul\":20169:20178   */\n      dup3\n        /* \"#utility.yul\":20165:20183   */\n      add\n        /* \"#utility.yul\":20157:20183   */\n      swap1\n      pop\n        /* \"#utility.yul\":20229:20238   */\n      dup2\n        /* \"#utility.yul\":20223:20227   */\n      dup2\n        /* \"#utility.yul\":20219:20239   */\n      sub\n        /* \"#utility.yul\":20215:20216   */\n      0x00\n        /* \"#utility.yul\":20204:20213   */\n      dup4\n        /* \"#utility.yul\":20200:20217   */\n      add\n        /* \"#utility.yul\":20193:20240   */\n      mstore\n        /* \"#utility.yul\":20257:20388   */\n      tag_550\n        /* \"#utility.yul\":20383:20387   */\n      dup2\n        /* \"#utility.yul\":20257:20388   */\n      tag_345\n      jump\t// in\n    tag_550:\n        /* \"#utility.yul\":20249:20388   */\n      swap1\n      pop\n        /* \"#utility.yul\":19976:20395   */\n      swap2\n      swap1\n      pop\n      jump\t// out\n        /* \"#utility.yul\":20401:20560   */\n    tag_346:\n        /* \"#utility.yul\":20541:20552   */\n      0x66696e616c697a65640000000000000000000000000000000000000000000000\n        /* \"#utility.yul\":20537:20538   */\n      0x00\n        /* \"#utility.yul\":20529:20535   */\n      dup3\n        /* \"#utility.yul\":20525:20539   */\n      add\n        /* \"#utility.yul\":20518:20553   */\n      mstore\n        /* \"#utility.yul\":20401:20560   */\n      pop\n      jump\t// out\n        /* \"#utility.yul\":20566:20931   */\n    tag_347:\n        /* \"#utility.yul\":20708:20711   */\n      0x00\n        /* \"#utility.yul\":20729:20795   */\n      tag_553\n        /* \"#utility.yul\":20793:20794   */\n      0x09\n        /* \"#utility.yul\":20788:20791   */\n      dup4\n        /* \"#utility.yul\":20729:20795   */\n      tag_324\n      jump\t// in\n    tag_553:\n        /* \"#utility.yul\":20722:20795   */\n      swap2\n      pop\n        /* \"#utility.yul\":20804:20897   */\n      tag_554\n        /* \"#utility.yul\":20893:20896   */\n      dup3\n        /* \"#utility.yul\":20804:20897   */\n      tag_346\n      jump\t// in\n    tag_554:\n        /* \"#utility.yul\":20922:20924   */\n      0x20\n        /* \"#utility.yul\":20917:20920   */\n      dup3\n        /* \"#utility.yul\":20913:20925   */\n      add\n        /* \"#utility.yul\":20906:20925   */\n      swap1\n      pop\n        /* \"#utility.yul\":20566:20931   */\n      swap2\n      swap1\n      pop\n      jump\t// out\n        /* \"#utility.yul\":20937:21356   */\n    tag_181:\n        /* \"#utility.yul\":21103:21107   */\n      0x00\n        /* \"#utility.yul\":21141:21143   */\n      0x20\n        /* \"#utility.yul\":21130:21139   */\n      dup3\n        /* \"#utility.yul\":21126:21144   */\n      add\n        /* \"#utility.yul\":21118:21144   */\n      swap1\n      pop\n        /* \"#utility.yul\":21190:21199   */\n      dup2\n        /* \"#utility.yul\":21184:21188   */\n      dup2\n        /* \"#utility.yul\":21180:21200   */\n      sub\n        /* \"#utility.yul\":21176:21177   */\n      0x00\n        /* \"#utility.yul\":21165:21174   */\n      dup4\n        /* \"#utility.yul\":21161:21178   */\n      add\n        /* \"#utility.yul\":21154:21201   */\n      mstore\n        /* \"#utility.yul\":21218:21349   */\n      tag_556\n        /* \"#utility.yul\":21344:21348   */\n      dup2\n        /* \"#utility.yul\":21218:21349   */\n      tag_347\n      jump\t// in\n    tag_556:\n        /* \"#utility.yul\":21210:21349   */\n      swap1\n      pop\n        /* \"#utility.yul\":20937:21356   */\n      swap2\n      swap1\n      pop\n      jump\t// out\n        /* \"#utility.yul\":21362:21510   */\n    tag_348:\n        /* \"#utility.yul\":21460:21466   */\n      dup3\n        /* \"#utility.yul\":21455:21458   */\n      dup2\n        /* \"#utility.yul\":21450:21453   */\n      dup4\n        /* \"#utility.yul\":21437:21467   */\n      calldatacopy\n        /* \"#utility.yul\":21501:21502   */\n      0x00\n        /* \"#utility.yul\":21492:21498   */\n      dup4\n        /* \"#utility.yul\":21487:21490   */\n      dup4\n        /* \"#utility.yul\":21483:21499   */\n      add\n        /* \"#utility.yul\":21476:21503   */\n      mstore\n        /* \"#utility.yul\":21362:21510   */\n      pop\n      pop\n      pop\n      jump\t// out\n        /* \"#utility.yul\":21516:21618   */\n    tag_349:\n        /* \"#utility.yul\":21557:21563   */\n      0x00\n        /* \"#utility.yul\":21608:21610   */\n      0x1f\n        /* \"#utility.yul\":21604:21611   */\n      not\n        /* \"#utility.yul\":21599:21601   */\n      0x1f\n        /* \"#utility.yul\":21592:21597   */\n      dup4\n        /* \"#utility.yul\":21588:21602   */\n      add\n        /* \"#utility.yul\":21584:21612   */\n      and\n        /* \"#utility.yul\":21574:21612   */\n      swap1\n      pop\n        /* \"#utility.yul\":21516:21618   */\n      swap2\n      swap1\n      pop\n      jump\t// out\n        /* \"#utility.yul\":21648:21965   */\n    tag_350:\n        /* \"#utility.yul\":21746:21749   */\n      0x00\n        /* \"#utility.yul\":21767:21838   */\n      tag_560\n        /* \"#utility.yul\":21831:21837   */\n      dup4\n        /* \"#utility.yul\":21826:21829   */\n      dup6\n        /* \"#utility.yul\":21767:21838   */\n      tag_324\n      jump\t// in\n    tag_560:\n        /* \"#utility.yul\":21760:21838   */\n      swap4\n      pop\n        /* \"#utility.yul\":21848:21904   */\n      tag_561\n        /* \"#utility.yul\":21897:21903   */\n      dup4\n        /* \"#utility.yul\":21892:21895   */\n      dup6\n        /* \"#utility.yul\":21885:21890   */\n      dup5\n        /* \"#utility.yul\":21848:21904   */\n      tag_348\n      jump\t// in\n    tag_561:\n        /* \"#utility.yul\":21929:21958   */\n      tag_562\n        /* \"#utility.yul\":21951:21957   */\n      dup4\n        /* \"#utility.yul\":21929:21958   */\n      tag_349\n      jump\t// in\n    tag_562:\n        /* \"#utility.yul\":21924:21927   */\n      dup5\n        /* \"#utility.yul\":21920:21959   */\n      add\n        /* \"#utility.yul\":21913:21959   */\n      swap1\n      pop\n        /* \"#utility.yul\":21648:21965   */\n      swap4\n      swap3\n      pop\n      pop\n      pop\n      jump\t// out\n        /* \"#utility.yul\":21971:22414   */\n    tag_185:\n        /* \"#utility.yul\":22122:22126   */\n      0x00\n        /* \"#utility.yul\":22160:22162   */\n      0x40\n        /* \"#utility.yul\":22149:22158   */\n      dup3\n        /* \"#utility.yul\":22145:22163   */\n      add\n        /* \"#utility.yul\":22137:22163   */\n      swap1\n      pop\n        /* \"#utility.yul\":22173:22244   */\n      tag_564\n        /* \"#utility.yul\":22241:22242   */\n      0x00\n        /* \"#utility.yul\":22230:22239   */\n      dup4\n        /* \"#utility.yul\":22226:22243   */\n      add\n        /* \"#utility.yul\":22217:22223   */\n      dup7\n        /* \"#utility.yul\":22173:22244   */\n      tag_307\n      jump\t// in\n    tag_564:\n        /* \"#utility.yul\":22291:22300   */\n      dup2\n        /* \"#utility.yul\":22285:22289   */\n      dup2\n        /* \"#utility.yul\":22281:22301   */\n      sub\n        /* \"#utility.yul\":22276:22278   */\n      0x20\n        /* \"#utility.yul\":22265:22274   */\n      dup4\n        /* \"#utility.yul\":22261:22279   */\n      add\n        /* \"#utility.yul\":22254:22302   */\n      mstore\n        /* \"#utility.yul\":22319:22407   */\n      tag_565\n        /* \"#utility.yul\":22402:22406   */\n      dup2\n        /* \"#utility.yul\":22393:22399   */\n      dup5\n        /* \"#utility.yul\":22385:22391   */\n      dup7\n        /* \"#utility.yul\":22319:22407   */\n      tag_350\n      jump\t// in\n    tag_565:\n        /* \"#utility.yul\":22311:22407   */\n      swap1\n      pop\n        /* \"#utility.yul\":21971:22414   */\n      swap5\n      swap4\n      pop\n      pop\n      pop\n      pop\n      jump\t// out\n        /* \"#utility.yul\":22420:22568   */\n    tag_351:\n        /* \"#utility.yul\":22522:22533   */\n      0x00\n        /* \"#utility.yul\":22559:22562   */\n      dup2\n        /* \"#utility.yul\":22544:22562   */\n      swap1\n      pop\n        /* \"#utility.yul\":22420:22568   */\n      swap3\n      swap2\n      pop\n      pop\n      jump\t// out\n        /* \"#utility.yul\":22598:22928   */\n    tag_352:\n        /* \"#utility.yul\":22714:22717   */\n      0x00\n        /* \"#utility.yul\":22735:22824   */\n      tag_568\n        /* \"#utility.yul\":22817:22823   */\n      dup4\n        /* \"#utility.yul\":22812:22815   */\n      dup6\n        /* \"#utility.yul\":22735:22824   */\n      tag_351\n      jump\t// in\n    tag_568:\n        /* \"#utility.yul\":22728:22824   */\n      swap4\n      pop\n        /* \"#utility.yul\":22834:22890   */\n      tag_569\n        /* \"#utility.yul\":22883:22889   */\n      dup4\n        /* \"#utility.yul\":22878:22881   */\n      dup6\n        /* \"#utility.yul\":22871:22876   */\n      dup5\n        /* \"#utility.yul\":22834:22890   */\n      tag_348\n      jump\t// in\n    tag_569:\n        /* \"#utility.yul\":22915:22921   */\n      dup3\n        /* \"#utility.yul\":22910:22913   */\n      dup5\n        /* \"#utility.yul\":22906:22922   */\n      add\n        /* \"#utility.yul\":22899:22922   */\n      swap1\n      pop\n        /* \"#utility.yul\":22598:22928   */\n      swap4\n      swap3\n      pop\n      pop\n      pop\n      jump\t// out\n        /* \"#utility.yul\":22934:23229   */\n    tag_188:\n        /* \"#utility.yul\":23076:23079   */\n      0x00\n        /* \"#utility.yul\":23098:23203   */\n      tag_571\n        /* \"#utility.yul\":23199:23202   */\n      dup3\n        /* \"#utility.yul\":23190:23196   */\n      dup5\n        /* \"#utility.yul\":23182:23188   */\n      dup7\n        /* \"#utility.yul\":23098:23203   */\n      tag_352\n      jump\t// in\n    tag_571:\n        /* \"#utility.yul\":23091:23203   */\n      swap2\n      pop\n        /* \"#utility.yul\":23220:23223   */\n      dup2\n        /* \"#utility.yul\":23213:23223   */\n      swap1\n      pop\n        /* \"#utility.yul\":22934:23229   */\n      swap4\n      swap3\n      pop\n      pop\n      pop\n      jump\t// out\n        /* \"#utility.yul\":23235:23394   */\n    tag_353:\n        /* \"#utility.yul\":23375:23386   */\n      0x4e6f742062757965720000000000000000000000000000000000000000000000\n        /* \"#utility.yul\":23371:23372   */\n      0x00\n        /* \"#utility.yul\":23363:23369   */\n      dup3\n        /* \"#utility.yul\":23359:23373   */\n      add\n        /* \"#utility.yul\":23352:23387   */\n      mstore\n        /* \"#utility.yul\":23235:23394   */\n      pop\n      jump\t// out\n        /* \"#utility.yul\":23400:23765   */\n    tag_354:\n        /* \"#utility.yul\":23542:23545   */\n      0x00\n        /* \"#utility.yul\":23563:23629   */\n      tag_574\n        /* \"#utility.yul\":23627:23628   */\n      0x09\n        /* \"#utility.yul\":23622:23625   */\n      dup4\n        /* \"#utility.yul\":23563:23629   */\n      tag_324\n      jump\t// in\n    tag_574:\n        /* \"#utility.yul\":23556:23629   */\n      swap2\n      pop\n        /* \"#utility.yul\":23638:23731   */\n      tag_575\n        /* \"#utility.yul\":23727:23730   */\n      dup3\n        /* \"#utility.yul\":23638:23731   */\n      tag_353\n      jump\t// in\n    tag_575:\n        /* \"#utility.yul\":23756:23758   */\n      0x20\n        /* \"#utility.yul\":23751:23754   */\n      dup3\n        /* \"#utility.yul\":23747:23759   */\n      add\n        /* \"#utility.yul\":23740:23759   */\n      swap1\n      pop\n        /* \"#utility.yul\":23400:23765   */\n      swap2\n      swap1\n      pop\n      jump\t// out\n        /* \"#utility.yul\":23771:24190   */\n    tag_192:\n        /* \"#utility.yul\":23937:23941   */\n      0x00\n        /* \"#utility.yul\":23975:23977   */\n      0x20\n        /* \"#utility.yul\":23964:23973   */\n      dup3\n        /* \"#utility.yul\":23960:23978   */\n      add\n        /* \"#utility.yul\":23952:23978   */\n      swap1\n      pop\n        /* \"#utility.yul\":24024:24033   */\n      dup2\n        /* \"#utility.yul\":24018:24022   */\n      dup2\n        /* \"#utility.yul\":24014:24034   */\n      sub\n        /* \"#utility.yul\":24010:24011   */\n      0x00\n        /* \"#utility.yul\":23999:24008   */\n      dup4\n        /* \"#utility.yul\":23995:24012   */\n      add\n        /* \"#utility.yul\":23988:24035   */\n      mstore\n        /* \"#utility.yul\":24052:24183   */\n      tag_577\n        /* \"#utility.yul\":24178:24182   */\n      dup2\n        /* \"#utility.yul\":24052:24183   */\n      tag_354\n      jump\t// in\n    tag_577:\n        /* \"#utility.yul\":24044:24183   */\n      swap1\n      pop\n        /* \"#utility.yul\":23771:24190   */\n      swap2\n      swap1\n      pop\n      jump\t// out\n        /* \"#utility.yul\":24196:24357   */\n    tag_355:\n        /* \"#utility.yul\":24336:24349   */\n      0x726566756e64206661696c000000000000000000000000000000000000000000\n        /* \"#utility.yul\":24332:24333   */\n      0x00\n        /* \"#utility.yul\":24324:24330   */\n      dup3\n        /* \"#utility.yul\":24320:24334   */\n      add\n        /* \"#utility.yul\":24313:24350   */\n      mstore\n        /* \"#utility.yul\":24196:24357   */\n      pop\n      jump\t// out\n        /* \"#utility.yul\":24363:24729   */\n    tag_356:\n        /* \"#utility.yul\":24505:24508   */\n      0x00\n        /* \"#utility.yul\":24526:24593   */\n      tag_580\n        /* \"#utility.yul\":24590:24592   */\n      0x0b\n        /* \"#utility.yul\":24585:24588   */\n      dup4\n        /* \"#utility.yul\":24526:24593   */\n      tag_324\n      jump\t// in\n    tag_580:\n        /* \"#utility.yul\":24519:24593   */\n      swap2\n      pop\n        /* \"#utility.yul\":24602:24695   */\n      tag_581\n        /* \"#utility.yul\":24691:24694   */\n      dup3\n        /* \"#utility.yul\":24602:24695   */\n      tag_355\n      jump\t// in\n    tag_581:\n        /* \"#utility.yul\":24720:24722   */\n      0x20\n        /* \"#utility.yul\":24715:24718   */\n      dup3\n        /* \"#utility.yul\":24711:24723   */\n      add\n        /* \"#utility.yul\":24704:24723   */\n      swap1\n      pop\n        /* \"#utility.yul\":24363:24729   */\n      swap2\n      swap1\n      pop\n      jump\t// out\n        /* \"#utility.yul\":24735:25154   */\n    tag_212:\n        /* \"#utility.yul\":24901:24905   */\n      0x00\n        /* \"#utility.yul\":24939:24941   */\n      0x20\n        /* \"#utility.yul\":24928:24937   */\n      dup3\n        /* \"#utility.yul\":24924:24942   */\n      add\n        /* \"#utility.yul\":24916:24942   */\n      swap1\n      pop\n        /* \"#utility.yul\":24988:24997   */\n      dup2\n        /* \"#utility.yul\":24982:24986   */\n      dup2\n        /* \"#utility.yul\":24978:24998   */\n      sub\n        /* \"#utility.yul\":24974:24975   */\n      0x00\n        /* \"#utility.yul\":24963:24972   */\n      dup4\n        /* \"#utility.yul\":24959:24976   */\n      add\n        /* \"#utility.yul\":24952:24999   */\n      mstore\n        /* \"#utility.yul\":25016:25147   */\n      tag_583\n        /* \"#utility.yul\":25142:25146   */\n      dup2\n        /* \"#utility.yul\":25016:25147   */\n      tag_356\n      jump\t// in\n    tag_583:\n        /* \"#utility.yul\":25008:25147   */\n      swap1\n      pop\n        /* \"#utility.yul\":24735:25154   */\n      swap2\n      swap1\n      pop\n      jump\t// out\n        /* \"#utility.yul\":25160:25318   */\n    tag_357:\n        /* \"#utility.yul\":25300:25310   */\n      0x73656c6c65723d30000000000000000000000000000000000000000000000000\n        /* \"#utility.yul\":25296:25297   */\n      0x00\n        /* \"#utility.yul\":25288:25294   */\n      dup3\n        /* \"#utility.yul\":25284:25298   */\n      add\n        /* \"#utility.yul\":25277:25311   */\n      mstore\n        /* \"#utility.yul\":25160:25318   */\n      pop\n      jump\t// out\n        /* \"#utility.yul\":25324:25689   */\n    tag_358:\n        /* \"#utility.yul\":25466:25469   */\n      0x00\n        /* \"#utility.yul\":25487:25553   */\n      tag_586\n        /* \"#utility.yul\":25551:25552   */\n      0x08\n        /* \"#utility.yul\":25546:25549   */\n      dup4\n        /* \"#utility.yul\":25487:25553   */\n      tag_324\n      jump\t// in\n    tag_586:\n        /* \"#utility.yul\":25480:25553   */\n      swap2\n      pop\n        /* \"#utility.yul\":25562:25655   */\n      tag_587\n        /* \"#utility.yul\":25651:25654   */\n      dup3\n        /* \"#utility.yul\":25562:25655   */\n      tag_357\n      jump\t// in\n    tag_587:\n        /* \"#utility.yul\":25680:25682   */\n      0x20\n        /* \"#utility.yul\":25675:25678   */\n      dup3\n        /* \"#utility.yul\":25671:25683   */\n      add\n        /* \"#utility.yul\":25664:25683   */\n      swap1\n      pop\n        /* \"#utility.yul\":25324:25689   */\n      swap2\n      swap1\n      pop\n      jump\t// out\n        /* \"#utility.yul\":25695:26114   */\n    tag_217:\n        /* \"#utility.yul\":25861:25865   */\n      0x00\n        /* \"#utility.yul\":25899:25901   */\n      0x20\n        /* \"#utility.yul\":25888:25897   */\n      dup3\n        /* \"#utility.yul\":25884:25902   */\n      add\n        /* \"#utility.yul\":25876:25902   */\n      swap1\n      pop\n        /* \"#utility.yul\":25948:25957   */\n      dup2\n        /* \"#utility.yul\":25942:25946   */\n      dup2\n        /* \"#utility.yul\":25938:25958   */\n      sub\n        /* \"#utility.yul\":25934:25935   */\n      0x00\n        /* \"#utility.yul\":25923:25932   */\n      dup4\n        /* \"#utility.yul\":25919:25936   */\n      add\n        /* \"#utility.yul\":25912:25959   */\n      mstore\n        /* \"#utility.yul\":25976:26107   */\n      tag_589\n        /* \"#utility.yul\":26102:26106   */\n      dup2\n        /* \"#utility.yul\":25976:26107   */\n      tag_358\n      jump\t// in\n    tag_589:\n        /* \"#utility.yul\":25968:26107   */\n      swap1\n      pop\n        /* \"#utility.yul\":25695:26114   */\n      swap2\n      swap1\n      pop\n      jump\t// out\n        /* \"#utility.yul\":26120:26280   */\n    tag_359:\n        /* \"#utility.yul\":26260:26272   */\n      0x76657269666965723d3000000000000000000000000000000000000000000000\n        /* \"#utility.yul\":26256:26257   */\n      0x00\n        /* \"#utility.yul\":26248:26254   */\n      dup3\n        /* \"#utility.yul\":26244:26258   */\n      add\n        /* \"#utility.yul\":26237:26273   */\n      mstore\n        /* \"#utility.yul\":26120:26280   */\n      pop\n      jump\t// out\n        /* \"#utility.yul\":26286:26652   */\n    tag_360:\n        /* \"#utility.yul\":26428:26431   */\n      0x00\n        /* \"#utility.yul\":26449:26516   */\n      tag_592\n        /* \"#utility.yul\":26513:26515   */\n      0x0a\n        /* \"#utility.yul\":26508:26511   */\n      dup4\n        /* \"#utility.yul\":26449:26516   */\n      tag_324\n      jump\t// in\n    tag_592:\n        /* \"#utility.yul\":26442:26516   */\n      swap2\n      pop\n        /* \"#utility.yul\":26525:26618   */\n      tag_593\n        /* \"#utility.yul\":26614:26617   */\n      dup3\n        /* \"#utility.yul\":26525:26618   */\n      tag_359\n      jump\t// in\n    tag_593:\n        /* \"#utility.yul\":26643:26645   */\n      0x20\n        /* \"#utility.yul\":26638:26641   */\n      dup3\n        /* \"#utility.yul\":26634:26646   */\n      add\n        /* \"#utility.yul\":26627:26646   */\n      swap1\n      pop\n        /* \"#utility.yul\":26286:26652   */\n      swap2\n      swap1\n      pop\n      jump\t// out\n        /* \"#utility.yul\":26658:27077   */\n    tag_220:\n        /* \"#utility.yul\":26824:26828   */\n      0x00\n        /* \"#utility.yul\":26862:26864   */\n      0x20\n        /* \"#utility.yul\":26851:26860   */\n      dup3\n        /* \"#utility.yul\":26847:26865   */\n      add\n        /* \"#utility.yul\":26839:26865   */\n      swap1\n      pop\n        /* \"#utility.yul\":26911:26920   */\n      dup2\n        /* \"#utility.yul\":26905:26909   */\n      dup2\n        /* \"#utility.yul\":26901:26921   */\n      sub\n        /* \"#utility.yul\":26897:26898   */\n      0x00\n        /* \"#utility.yul\":26886:26895   */\n      dup4\n        /* \"#utility.yul\":26882:26899   */\n      add\n        /* \"#utility.yul\":26875:26922   */\n      mstore\n        /* \"#utility.yul\":26939:27070   */\n      tag_595\n        /* \"#utility.yul\":27065:27069   */\n      dup2\n        /* \"#utility.yul\":26939:27070   */\n      tag_360\n      jump\t// in\n    tag_595:\n        /* \"#utility.yul\":26931:27070   */\n      swap1\n      pop\n        /* \"#utility.yul\":26658:27077   */\n      swap2\n      swap1\n      pop\n      jump\t// out\n        /* \"#utility.yul\":27083:27241   */\n    tag_361:\n        /* \"#utility.yul\":27223:27233   */\n      0x6e6f2066756e6473000000000000000000000000000000000000000000000000\n        /* \"#utility.yul\":27219:27220   */\n      0x00\n        /* \"#utility.yul\":27211:27217   */\n      dup3\n        /* \"#utility.yul\":27207:27221   */\n      add\n        /* \"#utility.yul\":27200:27234   */\n      mstore\n        /* \"#utility.yul\":27083:27241   */\n      pop\n      jump\t// out\n        /* \"#utility.yul\":27247:27612   */\n    tag_362:\n        /* \"#utility.yul\":27389:27392   */\n      0x00\n        /* \"#utility.yul\":27410:27476   */\n      tag_598\n        /* \"#utility.yul\":27474:27475   */\n      0x08\n        /* \"#utility.yul\":27469:27472   */\n      dup4\n        /* \"#utility.yul\":27410:27476   */\n      tag_324\n      jump\t// in\n    tag_598:\n        /* \"#utility.yul\":27403:27476   */\n      swap2\n      pop\n        /* \"#utility.yul\":27485:27578   */\n      tag_599\n        /* \"#utility.yul\":27574:27577   */\n      dup3\n        /* \"#utility.yul\":27485:27578   */\n      tag_361\n      jump\t// in\n    tag_599:\n        /* \"#utility.yul\":27603:27605   */\n      0x20\n        /* \"#utility.yul\":27598:27601   */\n      dup3\n        /* \"#utility.yul\":27594:27606   */\n      add\n        /* \"#utility.yul\":27587:27606   */\n      swap1\n      pop\n        /* \"#utility.yul\":27247:27612   */\n      swap2\n      swap1\n      pop\n      jump\t// out\n        /* \"#utility.yul\":27618:28037   */\n    tag_223:\n        /* \"#utility.yul\":27784:27788   */\n      0x00\n        /* \"#utility.yul\":27822:27824   */\n      0x20\n        /* \"#utility.yul\":27811:27820   */\n      dup3\n        /* \"#utility.yul\":27807:27825   */\n      add\n        /* \"#utility.yul\":27799:27825   */\n      swap1\n      pop\n        /* \"#utility.yul\":27871:27880   */\n      dup2\n        /* \"#utility.yul\":27865:27869   */\n      dup2\n        /* \"#utility.yul\":27861:27881   */\n      sub\n        /* \"#utility.yul\":27857:27858   */\n      0x00\n        /* \"#utility.yul\":27846:27855   */\n      dup4\n        /* \"#utility.yul\":27842:27859   */\n      add\n        /* \"#utility.yul\":27835:27882   */\n      mstore\n        /* \"#utility.yul\":27899:28030   */\n      tag_601\n        /* \"#utility.yul\":28025:28029   */\n      dup2\n        /* \"#utility.yul\":27899:28030   */\n      tag_362\n      jump\t// in\n    tag_601:\n        /* \"#utility.yul\":27891:28030   */\n      swap1\n      pop\n        /* \"#utility.yul\":27618:28037   */\n      swap2\n      swap1\n      pop\n      jump\t// out\n        /* \"#utility.yul\":28043:28223   */\n    tag_363:\n        /* \"#utility.yul\":28091:28168   */\n      0x4e487b7100000000000000000000000000000000000000000000000000000000\n        /* \"#utility.yul\":28088:28089   */\n      0x00\n        /* \"#utility.yul\":28081:28169   */\n      mstore\n        /* \"#utility.yul\":28188:28192   */\n      0x11\n        /* \"#utility.yul\":28185:28186   */\n      0x04\n        /* \"#utility.yul\":28178:28193   */\n      mstore\n        /* \"#utility.yul\":28212:28216   */\n      0x24\n        /* \"#utility.yul\":28209:28210   */\n      0x00\n        /* \"#utility.yul\":28202:28217   */\n      revert\n        /* \"#utility.yul\":28229:28462   */\n    tag_225:\n        /* \"#utility.yul\":28268:28271   */\n      0x00\n        /* \"#utility.yul\":28291:28315   */\n      tag_604\n        /* \"#utility.yul\":28309:28314   */\n      dup3\n        /* \"#utility.yul\":28291:28315   */\n      tag_299\n      jump\t// in\n    tag_604:\n        /* \"#utility.yul\":28282:28315   */\n      swap2\n      pop\n        /* \"#utility.yul\":28337:28403   */\n      0xffffffffffffffffffffffffffffffffffffffffffffffffffffffffffffffff\n        /* \"#utility.yul\":28330:28335   */\n      dup3\n        /* \"#utility.yul\":28327:28404   */\n      sub\n        /* \"#utility.yul\":28324:28427   */\n      tag_605\n      jumpi\n        /* \"#utility.yul\":28407:28425   */\n      tag_606\n      tag_363\n      jump\t// in\n    tag_606:\n        /* \"#utility.yul\":28324:28427   */\n    tag_605:\n        /* \"#utility.yul\":28454:28455   */\n      0x01\n        /* \"#utility.yul\":28447:28452   */\n      dup3\n        /* \"#utility.yul\":28443:28456   */\n      add\n        /* \"#utility.yul\":28436:28456   */\n      swap1\n      pop\n        /* \"#utility.yul\":28229:28462   */\n      swap2\n      swap1\n      pop\n      jump\t// out\n        /* \"#utility.yul\":28468:28628   */\n    tag_364:\n        /* \"#utility.yul\":28608:28620   */\n      0x4e6f742073656c6c657200000000000000000000000000000000000000000000\n        /* \"#utility.yul\":28604:28605   */\n      0x00\n        /* \"#utility.yul\":28596:28602   */\n      dup3\n        /* \"#utility.yul\":28592:28606   */\n      add\n        /* \"#utility.yul\":28585:28621   */\n      mstore\n        /* \"#utility.yul\":28468:28628   */\n      pop\n      jump\t// out\n        /* \"#utility.yul\":28634:29000   */\n    tag_365:\n        /* \"#utility.yul\":28776:28779   */\n      0x00\n        /* \"#utility.yul\":28797:28864   */\n      tag_609\n        /* \"#utility.yul\":28861:28863   */\n      0x0a\n        /* \"#utility.yul\":28856:28859   */\n      dup4\n        /* \"#utility.yul\":28797:28864   */\n      tag_324\n      jump\t// in\n    tag_609:\n        /* \"#utility.yul\":28790:28864   */\n      swap2\n      pop\n        /* \"#utility.yul\":28873:28966   */\n      tag_610\n        /* \"#utility.yul\":28962:28965   */\n      dup3\n        /* \"#utility.yul\":28873:28966   */\n      tag_364\n      jump\t// in\n    tag_610:\n        /* \"#utility.yul\":28991:28993   */\n      0x20\n        /* \"#utility.yul\":28986:28989   */\n      dup3\n        /* \"#utility.yul\":28982:28994   */\n      add\n        /* \"#utility.yul\":28975:28994   */\n      swap1\n      pop\n        /* \"#utility.yul\":28634:29000   */\n      swap2\n      swap1\n      pop\n      jump\t// out\n        /* \"#utility.yul\":29006:29425   */\n    tag_235:\n        /* \"#utility.yul\":29172:29176   */\n      0x00\n        /* \"#utility.yul\":29210:29212   */\n      0x20\n        /* \"#utility.yul\":29199:29208   */\n      dup3\n        /* \"#utility.yul\":29195:29213   */\n      add\n        /* \"#utility.yul\":29187:29213   */\n      swap1\n      pop\n        /* \"#utility.yul\":29259:29268   */\n      dup2\n        /* \"#utility.yul\":29253:29257   */\n      dup2\n        /* \"#utility.yul\":29249:29269   */\n      sub\n        /* \"#utility.yul\":29245:29246   */\n      0x00\n        /* \"#utility.yul\":29234:29243   */\n      dup4\n        /* \"#utility.yul\":29230:29247   */\n      add\n        /* \"#utility.yul\":29223:29270   */\n      mstore\n        /* \"#utility.yul\":29287:29418   */\n      tag_612\n        /* \"#utility.yul\":29413:29417   */\n      dup2\n        /* \"#utility.yul\":29287:29418   */\n      tag_365\n      jump\t// in\n    tag_612:\n        /* \"#utility.yul\":29279:29418   */\n      swap1\n      pop\n        /* \"#utility.yul\":29006:29425   */\n      swap2\n      swap1\n      pop\n      jump\t// out\n        /* \"#utility.yul\":29431:29593   */\n    tag_366:\n        /* \"#utility.yul\":29571:29585   */\n      0x72656c65617365206661696c0000000000000000000000000000000000000000\n        /* \"#utility.yul\":29567:29568   */\n      0x00\n        /* \"#utility.yul\":29559:29565   */\n      dup3\n        /* \"#utility.yul\":29555:29569   */\n      add\n        /* \"#utility.yul\":29548:29586   */\n      mstore\n        /* \"#utility.yul\":29431:29593   */\n      pop\n      jump\t// out\n        /* \"#utility.yul\":29599:29965   */\n    tag_367:\n        /* \"#utility.yul\":29741:29744   */\n      0x00\n        /* \"#utility.yul\":29762:29829   */\n      tag_615\n        /* \"#utility.yul\":29826:29828   */\n      0x0c\n        /* \"#utility.yul\":29821:29824   */\n      dup4\n        /* \"#utility.yul\":29762:29829   */\n      tag_324\n      jump\t// in\n    tag_615:\n        /* \"#utility.yul\":29755:29829   */\n      swap2\n      pop\n        /* \"#utility.yul\":29838:29931   */\n      tag_616\n        /* \"#utility.yul\":29927:29930   */\n      dup3\n        /* \"#utility.yul\":29838:29931   */\n      tag_366\n      jump\t// in\n    tag_616:\n        /* \"#utility.yul\":29956:29958   */\n      0x20\n        /* \"#utility.yul\":29951:29954   */\n      dup3\n        /* \"#utility.yul\":29947:29959   */\n      add\n        /* \"#utility.yul\":29940:29959   */\n      swap1\n      pop\n        /* \"#utility.yul\":29599:29965   */\n      swap2\n      swap1\n      pop\n      jump\t// out\n        /* \"#utility.yul\":29971:30390   */\n    tag_294:\n        /* \"#utility.yul\":30137:30141   */\n      0x00\n        /* \"#utility.yul\":30175:30177   */\n      0x20\n        /* \"#utility.yul\":30164:30173   */\n      dup3\n        /* \"#utility.yul\":30160:30178   */\n      add\n        /* \"#utility.yul\":30152:30178   */\n      swap1\n      pop\n        /* \"#utility.yul\":30224:30233   */\n      dup2\n        /* \"#utility.yul\":30218:30222   */\n      dup2\n        /* \"#utility.yul\":30214:30234   */\n      sub\n        /* \"#utility.yul\":30210:30211   */\n      0x00\n        /* \"#utility.yul\":30199:30208   */\n      dup4\n        /* \"#utility.yul\":30195:30212   */\n      add\n        /* \"#utility.yul\":30188:30235   */\n      mstore\n        /* \"#utility.yul\":30252:30383   */\n      tag_618\n        /* \"#utility.yul\":30378:30382   */\n      dup2\n        /* \"#utility.yul\":30252:30383   */\n      tag_367\n      jump\t// in\n    tag_618:\n        /* \"#utility.yul\":30244:30383   */\n      swap1\n      pop\n        /* \"#utility.yul\":29971:30390   */\n      swap2\n      swap1\n      pop\n      jump\t// out\n\n    auxdata: 0xa2646970667358221220e3541240212f66c8fcff31b2975986d83ffc5955be10fdd740f1a43bfbedab8964736f6c634300081e0033\n}\n",
				"bytecode": {
					"linkReferences": {},
					"object": "60a060405234801561000f575f5ffd5b50604051612d4c380380612d4c83398181016040528101906100319190610137565b5f73ffffffffffffffffffffffffffffffffffffffff168173ffffffffffffffffffffffffffffffffffffffff160361009f576040517f08c379a0000000000000000000000000000000000000000000000000000000008152600401610096906101bc565b60405180910390fd5b8073ffffffffffffffffffffffffffffffffffffffff1660808173ffffffffffffffffffffffffffffffffffffffff1681525050506101da565b5f5ffd5b5f73ffffffffffffffffffffffffffffffffffffffff82169050919050565b5f610106826100dd565b9050919050565b610116816100fc565b8114610120575f5ffd5b50565b5f815190506101318161010d565b92915050565b5f6020828403121561014c5761014b6100d9565b5b5f61015984828501610123565b91505092915050565b5f82825260208201905092915050565b7f617262697465723d3000000000000000000000000000000000000000000000005f82015250565b5f6101a6600983610162565b91506101b182610172565b602082019050919050565b5f6020820190508181035f8301526101d38161019a565b9050919050565b608051612b536101f95f395f81816107000152611af20152612b535ff3fe6080604052600436106100c5575f3560e01c8063766954b41161007e578063eed90d6b11610058578063eed90d6b1461028b578063f71edf3b146102b3578063faf08906146102db578063fe25e00a14610303576100cc565b8063766954b4146101f7578063c6df189d14610233578063e59b0c5b1461025b576100cc565b8063052548c8146100d05780631e6c598e146100f85780632db25e051461013b57806334b25ee21461017d5780635aef573c146101a557806361b8ce8c146101cd576100cc565b366100cc57005b5f5ffd5b3480156100db575f5ffd5b506100f660048036038101906100f19190611ddd565b61032d565b005b348015610103575f5ffd5b5061011e60048036038101906101199190611e1b565b610569565b604051610132989796959493929190611f30565b60405180910390f35b348015610146575f5ffd5b50610161600480360381019061015c9190611e1b565b610630565b6040516101749796959493929190611fac565b60405180910390f35b348015610188575f5ffd5b506101a3600480360381019061019e9190612043565b6106fe565b005b3480156101b0575f5ffd5b506101cb60048036038101906101c691906120e2565b610c6b565b005b3480156101d8575f5ffd5b506101e1610e91565b6040516101ee919061213f565b60405180910390f35b348015610202575f5ffd5b5061021d60048036038101906102189190612158565b610e96565b60405161022a91906121a3565b60405180910390f35b34801561023e575f5ffd5b5061025960048036038101906102549190611e1b565b610ec8565b005b610275600480360381019061027091906121e6565b6111f6565b604051610282919061213f565b60405180910390f35b348015610296575f5ffd5b506102b160048036038101906102ac9190611e1b565b6115d0565b005b3480156102be575f5ffd5b506102d960048036038101906102d49190611ddd565b61176c565b005b3480156102e6575f5ffd5b5061030160048036038101906102fc9190611e1b565b61191b565b005b34801561030e575f5ffd5b50610317611af0565b6040516103249190612257565b60405180910390f35b8160015f8281526020019081526020015f206002015f9054906101000a900473ffffffffffffffffffffffffffffffffffffffff1673ffffffffffffffffffffffffffffffffffffffff163373ffffffffffffffffffffffffffffffffffffffff16146103cf576040517f08c379a00000000000000000000000000000000000000000000000000000000081526004016103c6906122ca565b60405180910390fd5b8260018060068111156103e5576103e4611ebd565b5b60015f8481526020019081526020015f2060050160029054906101000a900460ff16600681111561041957610418611ebd565b5b14610459576040517f08c379a000000000000000000000000000000000000000000000000000000000815260040161045090612332565b60405180910390fd5b5f60015f8781526020019081526020015f209050806005015f9054906101000a900460ff166104bd576040517f08c379a00000000000000000000000000000000000000000000000000000000081526004016104b49061239a565b60405180910390fd5b80600401548514610503576040517f08c379a00000000000000000000000000000000000000000000000000000000081526004016104fa90612402565b60405180910390fd5b60018160050160016101000a81548160ff021916908315150217905550857f6460c7b22727aa661cf23c166059400511ecae1285793c3456c535a4dbbe4e4e8660405161055091906121a3565b60405180910390a261056186611b14565b505050505050565b6001602052805f5260405f205f91509050805f015f9054906101000a900473ffffffffffffffffffffffffffffffffffffffff1690806001015f9054906101000a900473ffffffffffffffffffffffffffffffffffffffff1690806002015f9054906101000a900473ffffffffffffffffffffffffffffffffffffffff1690806003015490806004015490806005015f9054906101000a900460ff16908060050160019054906101000a900460ff16908060050160029054906101000a900460ff16905088565b5f5f5f5f5f5f5f5f60015f8a81526020019081526020015f209050805f015f9054906101000a900473ffffffffffffffffffffffffffffffffffffffff16816001015f9054906101000a900473ffffffffffffffffffffffffffffffffffffffff16826002015f9054906101000a900473ffffffffffffffffffffffffffffffffffffffff16836003015484600401548560050160019054906101000a900460ff168660050160029054906101000a900460ff16975097509750975097509750975050919395979092949650565b7f000000000000000000000000000000000000000000000000000000000000000073ffffffffffffffffffffffffffffffffffffffff163373ffffffffffffffffffffffffffffffffffffffff161461078c576040517f08c379a00000000000000000000000000000000000000000000000000000000081526004016107839061246a565b60405180910390fd5b60025f9054906101000a900460ff16156107db576040517f08c379a00000000000000000000000000000000000000000000000000000000081526004016107d2906124d2565b60405180910390fd5b600160025f6101000a81548160ff0219169083151502179055505f60015f8481526020019081526020015f2090506005600681111561081d5761081c611ebd565b5b8160050160029054906101000a900460ff16600681111561084157610840611ebd565b5b148061088257506001600681111561085c5761085b611ebd565b5b8160050160029054906101000a900460ff1660068111156108805761087f611ebd565b5b145b806108c257506002600681111561089c5761089b611ebd565b5b8160050160029054906101000a900460ff1660068111156108c0576108bf611ebd565b5b145b806109025750600360068111156108dc576108db611ebd565b5b8160050160029054906101000a900460ff166006811115610900576108ff611ebd565b5b145b610941576040517f08c379a00000000000000000000000000000000000000000000000000000000081526004016109389061253a565b60405180910390fd5b5f816003015490505f826003018190555060048260050160026101000a81548160ff0219169083600681111561097a57610979611ebd565b5b02179055508215610aec575f826001015f9054906101000a900473ffffffffffffffffffffffffffffffffffffffff1673ffffffffffffffffffffffffffffffffffffffff16826040516109cd90612585565b5f6040518083038185875af1925050503d805f8114610a07576040519150601f19603f3d011682016040523d82523d5f602084013e610a0c565b606091505b5050905080610a50576040517f08c379a0000000000000000000000000000000000000000000000000000000008152600401610a47906125e3565b60405180910390fd5b847f21d71db5be59bb9fa133895586b7404307dd33fb93b16db09dc6f1d9d7d231b0846001015f9054906101000a900473ffffffffffffffffffffffffffffffffffffffff1684604051610aa5929190612601565b60405180910390a2847f5a87909bff68caaaaf0b3fd9c74eeccc928832f879315e5c6fb7a73612f26c0c6001604051610ade9190612628565b60405180910390a250610c4c565b5f825f015f9054906101000a900473ffffffffffffffffffffffffffffffffffffffff1673ffffffffffffffffffffffffffffffffffffffff1682604051610b3390612585565b5f6040518083038185875af1925050503d805f8114610b6d576040519150601f19603f3d011682016040523d82523d5f602084013e610b72565b606091505b5050905080610bb6576040517f08c379a0000000000000000000000000000000000000000000000000000000008152600401610bad906125e3565b60405180910390fd5b847f7ca5472b7ea78c2c0141c5a12ee6d170cf4ce8ed06be3d22c8252ddfc7a6a2c4845f015f9054906101000a900473ffffffffffffffffffffffffffffffffffffffff1684604051610c0a929190612601565b60405180910390a2847f5a87909bff68caaaaf0b3fd9c74eeccc928832f879315e5c6fb7a73612f26c0c5f604051610c429190612628565b60405180910390a2505b50505f60025f6101000a81548160ff0219169083151502179055505050565b5f60015f8581526020019081526020015f209050805f015f9054906101000a900473ffffffffffffffffffffffffffffffffffffffff1673ffffffffffffffffffffffffffffffffffffffff163373ffffffffffffffffffffffffffffffffffffffff161480610d295750806001015f9054906101000a900473ffffffffffffffffffffffffffffffffffffffff1673ffffffffffffffffffffffffffffffffffffffff163373ffffffffffffffffffffffffffffffffffffffff16145b610d68576040517f08c379a0000000000000000000000000000000000000000000000000000000008152600401610d5f9061268b565b60405180910390fd5b60046006811115610d7c57610d7b611ebd565b5b8160050160029054906101000a900460ff166006811115610da057610d9f611ebd565b5b14158015610de35750600680811115610dbc57610dbb611ebd565b5b8160050160029054906101000a900460ff166006811115610de057610ddf611ebd565b5b14155b610e22576040517f08c379a0000000000000000000000000000000000000000000000000000000008152600401610e19906126f3565b60405180910390fd5b60058160050160026101000a81548160ff02191690836006811115610e4a57610e49611ebd565b5b0217905550837f1b84372106d77c6daea0dda35bbc0229d10a83f58ec899092884925193682341338585604051610e839392919061275b565b60405180910390a250505050565b5f5481565b5f8282604051602001610eaa9291906127b9565b60405160208183030381529060405280519060200120905092915050565b8060015f8281526020019081526020015f205f015f9054906101000a900473ffffffffffffffffffffffffffffffffffffffff1673ffffffffffffffffffffffffffffffffffffffff163373ffffffffffffffffffffffffffffffffffffffff1614610f69576040517f08c379a0000000000000000000000000000000000000000000000000000000008152600401610f609061281b565b60405180910390fd5b816001806006811115610f7f57610f7e611ebd565b5b60015f8481526020019081526020015f2060050160029054906101000a900460ff166006811115610fb357610fb2611ebd565b5b14610ff3576040517f08c379a0000000000000000000000000000000000000000000000000000000008152600401610fea90612332565b60405180910390fd5b60025f9054906101000a900460ff1615611042576040517f08c379a0000000000000000000000000000000000000000000000000000000008152600401611039906124d2565b60405180910390fd5b600160025f6101000a81548160ff0219169083151502179055505f60015f8681526020019081526020015f2090505f816003015490505f826003018190555060068260050160026101000a81548160ff021916908360068111156110a9576110a8611ebd565b5b02179055505f825f015f9054906101000a900473ffffffffffffffffffffffffffffffffffffffff1673ffffffffffffffffffffffffffffffffffffffff16826040516110f590612585565b5f6040518083038185875af1925050503d805f811461112f576040519150601f19603f3d011682016040523d82523d5f602084013e611134565b606091505b5050905080611178576040517f08c379a000000000000000000000000000000000000000000000000000000000815260040161116f90612883565b60405180910390fd5b867f7ca5472b7ea78c2c0141c5a12ee6d170cf4ce8ed06be3d22c8252ddfc7a6a2c4845f015f9054906101000a900473ffffffffffffffffffffffffffffffffffffffff16846040516111cc929190612601565b60405180910390a25050505f60025f6101000a81548160ff02191690831515021790555050505050565b5f5f73ffffffffffffffffffffffffffffffffffffffff168573ffffffffffffffffffffffffffffffffffffffff1603611265576040517f08c379a000000000000000000000000000000000000000000000000000000000815260040161125c906128eb565b60405180910390fd5b5f73ffffffffffffffffffffffffffffffffffffffff168473ffffffffffffffffffffffffffffffffffffffff16036112d3576040517f08c379a00000000000000000000000000000000000000000000000000000000081526004016112ca90612953565b60405180910390fd5b5f3411611315576040517f08c379a000000000000000000000000000000000000000000000000000000000815260040161130c906129bb565b60405180910390fd5b5f5f81548092919061132690612a06565b9190505590506040518061010001604052803373ffffffffffffffffffffffffffffffffffffffff1681526020018673ffffffffffffffffffffffffffffffffffffffff1681526020018573ffffffffffffffffffffffffffffffffffffffff1681526020013481526020015f5f1b81526020015f151581526020015f15158152602001600160068111156113be576113bd611ebd565b5b81525060015f8381526020019081526020015f205f820151815f015f6101000a81548173ffffffffffffffffffffffffffffffffffffffff021916908373ffffffffffffffffffffffffffffffffffffffff1602179055506020820151816001015f6101000a81548173ffffffffffffffffffffffffffffffffffffffff021916908373ffffffffffffffffffffffffffffffffffffffff1602179055506040820151816002015f6101000a81548173ffffffffffffffffffffffffffffffffffffffff021916908373ffffffffffffffffffffffffffffffffffffffff160217905550606082015181600301556080820151816004015560a0820151816005015f6101000a81548160ff02191690831515021790555060c08201518160050160016101000a81548160ff02191690831515021790555060e08201518160050160026101000a81548160ff021916908360068111156115205761151f611ebd565b5b02179055509050508473ffffffffffffffffffffffffffffffffffffffff163373ffffffffffffffffffffffffffffffffffffffff16827f90846260728abf36a9983412ea7d8b6a892838e7ab2ba6113c00fa97f056117f8734604051611588929190612601565b60405180910390a4807f06da3309189fa49284f335d2c2bcb4cb0b8ad2a59ad92a9bdebeeb8f1ceba511346040516115c0919061213f565b60405180910390a2949350505050565b8060015f8281526020019081526020015f206001015f9054906101000a900473ffffffffffffffffffffffffffffffffffffffff1673ffffffffffffffffffffffffffffffffffffffff163373ffffffffffffffffffffffffffffffffffffffff1614611672576040517f08c379a000000000000000000000000000000000000000000000000000000000815260040161166990612a97565b60405180910390fd5b81600180600681111561168857611687611ebd565b5b60015f8481526020019081526020015f2060050160029054906101000a900460ff1660068111156116bc576116bb611ebd565b5b146116fc576040517f08c379a00000000000000000000000000000000000000000000000000000000081526004016116f390612332565b60405180910390fd5b600260015f8681526020019081526020015f2060050160026101000a81548160ff0219169083600681111561173457611733611ebd565b5b0217905550837ff00b9a5725b80c54016f42114f6ed7792d22eecb116011c4afac29c57bef6c9560405160405180910390a250505050565b8160015f8281526020019081526020015f206001015f9054906101000a900473ffffffffffffffffffffffffffffffffffffffff1673ffffffffffffffffffffffffffffffffffffffff163373ffffffffffffffffffffffffffffffffffffffff161461180e576040517f08c379a000000000000000000000000000000000000000000000000000000000815260040161180590612a97565b60405180910390fd5b82600180600681111561182457611823611ebd565b5b60015f8481526020019081526020015f2060050160029054906101000a900460ff16600681111561185857611857611ebd565b5b14611898576040517f08c379a000000000000000000000000000000000000000000000000000000000815260040161188f90612332565b60405180910390fd5b8360015f8781526020019081526020015f20600401819055506001805f8781526020019081526020015f206005015f6101000a81548160ff021916908315150217905550847fd6494bedb357dffd9e25f00de1d75ae98e06fb208d2a7f9830ebb2a628be23dd8560405161190c91906121a3565b60405180910390a25050505050565b8060015f8281526020019081526020015f205f015f9054906101000a900473ffffffffffffffffffffffffffffffffffffffff1673ffffffffffffffffffffffffffffffffffffffff163373ffffffffffffffffffffffffffffffffffffffff16146119bc576040517f08c379a00000000000000000000000000000000000000000000000000000000081526004016119b39061281b565b60405180910390fd5b5f60015f8481526020019081526020015f209050600260068111156119e4576119e3611ebd565b5b8160050160029054906101000a900460ff166006811115611a0857611a07611ebd565b5b1480611a49575060016006811115611a2357611a22611ebd565b5b8160050160029054906101000a900460ff166006811115611a4757611a46611ebd565b5b145b611a88576040517f08c379a0000000000000000000000000000000000000000000000000000000008152600401611a7f9061253a565b60405180910390fd5b60038160050160026101000a81548160ff02191690836006811115611ab057611aaf611ebd565b5b0217905550827ffcc296b8bdd64e3f1d1faadef50cb2d6550f645316330fe57cb1dd7e0612ead060405160405180910390a2611aeb83611b14565b505050565b7f000000000000000000000000000000000000000000000000000000000000000081565b60025f9054906101000a900460ff1615611b63576040517f08c379a0000000000000000000000000000000000000000000000000000000008152600401611b5a906124d2565b60405180910390fd5b600160025f6101000a81548160ff0219169083151502179055505f60015f8381526020019081526020015f2090508060050160019054906101000a900460ff168015611be4575060036006811115611bbe57611bbd611ebd565b5b8160050160029054906101000a900460ff166006811115611be257611be1611ebd565b5b145b15611d52575f816003015490505f826003018190555060048260050160026101000a81548160ff02191690836006811115611c2257611c21611ebd565b5b02179055505f826001015f9054906101000a900473ffffffffffffffffffffffffffffffffffffffff1673ffffffffffffffffffffffffffffffffffffffff1682604051611c6f90612585565b5f6040518083038185875af1925050503d805f8114611ca9576040519150601f19603f3d011682016040523d82523d5f602084013e611cae565b606091505b5050905080611cf2576040517f08c379a0000000000000000000000000000000000000000000000000000000008152600401611ce990612aff565b60405180910390fd5b837f21d71db5be59bb9fa133895586b7404307dd33fb93b16db09dc6f1d9d7d231b0846001015f9054906101000a900473ffffffffffffffffffffffffffffffffffffffff1684604051611d47929190612601565b60405180910390a250505b505f60025f6101000a81548160ff02191690831515021790555050565b5f5ffd5b5f5ffd5b5f819050919050565b611d8981611d77565b8114611d93575f5ffd5b50565b5f81359050611da481611d80565b92915050565b5f819050919050565b611dbc81611daa565b8114611dc6575f5ffd5b50565b5f81359050611dd781611db3565b92915050565b5f5f60408385031215611df357611df2611d6f565b5b5f611e0085828601611d96565b9250506020611e1185828601611dc9565b9150509250929050565b5f60208284031215611e3057611e2f611d6f565b5b5f611e3d84828501611d96565b91505092915050565b5f73ffffffffffffffffffffffffffffffffffffffff82169050919050565b5f611e6f82611e46565b9050919050565b611e7f81611e65565b82525050565b611e8e81611d77565b82525050565b611e9d81611daa565b82525050565b5f8115159050919050565b611eb781611ea3565b82525050565b7f4e487b71000000000000000000000000000000000000000000000000000000005f52602160045260245ffd5b60078110611efb57611efa611ebd565b5b50565b5f819050611f0b82611eea565b919050565b5f611f1a82611efe565b9050919050565b611f2a81611f10565b82525050565b5f61010082019050611f445f83018b611e76565b611f51602083018a611e76565b611f5e6040830189611e76565b611f6b6060830188611e85565b611f786080830187611e94565b611f8560a0830186611eae565b611f9260c0830185611eae565b611f9f60e0830184611f21565b9998505050505050505050565b5f60e082019050611fbf5f83018a611e76565b611fcc6020830189611e76565b611fd96040830188611e76565b611fe66060830187611e85565b611ff36080830186611e94565b61200060a0830185611eae565b61200d60c0830184611f21565b98975050505050505050565b61202281611ea3565b811461202c575f5ffd5b50565b5f8135905061203d81612019565b92915050565b5f5f6040838503121561205957612058611d6f565b5b5f61206685828601611d96565b92505060206120778582860161202f565b9150509250929050565b5f5ffd5b5f5ffd5b5f5ffd5b5f5f83601f8401126120a2576120a1612081565b5b8235905067ffffffffffffffff8111156120bf576120be612085565b5b6020830191508360018202830111156120db576120da612089565b5b9250929050565b5f5f5f604084860312156120f9576120f8611d6f565b5b5f61210686828701611d96565b935050602084013567ffffffffffffffff81111561212757612126611d73565b5b6121338682870161208d565b92509250509250925092565b5f6020820190506121525f830184611e85565b92915050565b5f5f6020838503121561216e5761216d611d6f565b5b5f83013567ffffffffffffffff81111561218b5761218a611d73565b5b6121978582860161208d565b92509250509250929050565b5f6020820190506121b65f830184611e94565b92915050565b6121c581611e65565b81146121cf575f5ffd5b50565b5f813590506121e0816121bc565b92915050565b5f5f5f5f606085870312156121fe576121fd611d6f565b5b5f61220b878288016121d2565b945050602061221c878288016121d2565b935050604085013567ffffffffffffffff81111561223d5761223c611d73565b5b6122498782880161208d565b925092505092959194509250565b5f60208201905061226a5f830184611e76565b92915050565b5f82825260208201905092915050565b7f4e6f7420766572696669657200000000000000000000000000000000000000005f82015250565b5f6122b4600c83612270565b91506122bf82612280565b602082019050919050565b5f6020820190508181035f8301526122e1816122a8565b9050919050565b7f42616420737461746500000000000000000000000000000000000000000000005f82015250565b5f61231c600983612270565b9150612327826122e8565b602082019050919050565b5f6020820190508181035f83015261234981612310565b9050919050565b7f646f63206e6f74207365740000000000000000000000000000000000000000005f82015250565b5f612384600b83612270565b915061238f82612350565b602082019050919050565b5f6020820190508181035f8301526123b181612378565b9050919050565b7f68617368206d69736d61746368000000000000000000000000000000000000005f82015250565b5f6123ec600d83612270565b91506123f7826123b8565b602082019050919050565b5f6020820190508181035f830152612419816123e0565b9050919050565b7f4e6f7420617262697465720000000000000000000000000000000000000000005f82015250565b5f612454600b83612270565b915061245f82612420565b602082019050919050565b5f6020820190508181035f83015261248181612448565b9050919050565b7f5265656e7472616e6379000000000000000000000000000000000000000000005f82015250565b5f6124bc600a83612270565b91506124c782612488565b602082019050919050565b5f6020820190508181035f8301526124e9816124b0565b9050919050565b7f62616420737461746500000000000000000000000000000000000000000000005f82015250565b5f612524600983612270565b915061252f826124f0565b602082019050919050565b5f6020820190508181035f83015261255181612518565b9050919050565b5f81905092915050565b50565b5f6125705f83612558565b915061257b82612562565b5f82019050919050565b5f61258f82612565565b9150819050919050565b7f73656e64206661696c00000000000000000000000000000000000000000000005f82015250565b5f6125cd600983612270565b91506125d882612599565b602082019050919050565b5f6020820190508181035f8301526125fa816125c1565b9050919050565b5f6040820190506126145f830185611e76565b6126216020830184611e85565b9392505050565b5f60208201905061263b5f830184611eae565b92915050565b7f6e6f7420706172747900000000000000000000000000000000000000000000005f82015250565b5f612675600983612270565b915061268082612641565b602082019050919050565b5f6020820190508181035f8301526126a281612669565b9050919050565b7f66696e616c697a656400000000000000000000000000000000000000000000005f82015250565b5f6126dd600983612270565b91506126e8826126a9565b602082019050919050565b5f6020820190508181035f83015261270a816126d1565b9050919050565b828183375f83830152505050565b5f601f19601f8301169050919050565b5f61273a8385612270565b9350612747838584612711565b6127508361271f565b840190509392505050565b5f60408201905061276e5f830186611e76565b818103602083015261278181848661272f565b9050949350505050565b5f81905092915050565b5f6127a0838561278b565b93506127ad838584612711565b82840190509392505050565b5f6127c5828486612795565b91508190509392505050565b7f4e6f7420627579657200000000000000000000000000000000000000000000005f82015250565b5f612805600983612270565b9150612810826127d1565b602082019050919050565b5f6020820190508181035f830152612832816127f9565b9050919050565b7f726566756e64206661696c0000000000000000000000000000000000000000005f82015250565b5f61286d600b83612270565b915061287882612839565b602082019050919050565b5f6020820190508181035f83015261289a81612861565b9050919050565b7f73656c6c65723d300000000000000000000000000000000000000000000000005f82015250565b5f6128d5600883612270565b91506128e0826128a1565b602082019050919050565b5f6020820190508181035f830152612902816128c9565b9050919050565b7f76657269666965723d30000000000000000000000000000000000000000000005f82015250565b5f61293d600a83612270565b915061294882612909565b602082019050919050565b5f6020820190508181035f83015261296a81612931565b9050919050565b7f6e6f2066756e64730000000000000000000000000000000000000000000000005f82015250565b5f6129a5600883612270565b91506129b082612971565b602082019050919050565b5f6020820190508181035f8301526129d281612999565b9050919050565b7f4e487b71000000000000000000000000000000000000000000000000000000005f52601160045260245ffd5b5f612a1082611d77565b91507fffffffffffffffffffffffffffffffffffffffffffffffffffffffffffffffff8203612a4257612a416129d9565b5b600182019050919050565b7f4e6f742073656c6c6572000000000000000000000000000000000000000000005f82015250565b5f612a81600a83612270565b9150612a8c82612a4d565b602082019050919050565b5f6020820190508181035f830152612aae81612a75565b9050919050565b7f72656c65617365206661696c00000000000000000000000000000000000000005f82015250565b5f612ae9600c83612270565b9150612af482612ab5565b602082019050919050565b5f6020820190508181035f830152612b1681612add565b905091905056fea2646970667358221220e3541240212f66c8fcff31b2975986d83ffc5955be10fdd740f1a43bfbedab8964736f6c634300081e0033",
					"opcodes": "PUSH1 0xA0 PUSH1 0x40 MSTORE CALLVALUE DUP1 ISZERO PUSH2 0xF JUMPI PUSH0 PUSH0 REVERT JUMPDEST POP PUSH1 0x40 MLOAD PUSH2 0x2D4C CODESIZE SUB DUP1 PUSH2 0x2D4C DUP4 CODECOPY DUP2 DUP2 ADD PUSH1 0x40 MSTORE DUP2 ADD SWAP1 PUSH2 0x31 SWAP2 SWAP1 PUSH2 0x137 JUMP JUMPDEST PUSH0 PUSH20 0xFFFFFFFFFFFFFFFFFFFFFFFFFFFFFFFFFFFFFFFF AND DUP2 PUSH20 0xFFFFFFFFFFFFFFFFFFFFFFFFFFFFFFFFFFFFFFFF AND SUB PUSH2 0x9F JUMPI PUSH1 0x40 MLOAD PUSH32 0x8C379A000000000000000000000000000000000000000000000000000000000 DUP2 MSTORE PUSH1 0x4 ADD PUSH2 0x96 SWAP1 PUSH2 0x1BC JUMP JUMPDEST PUSH1 0x40 MLOAD DUP1 SWAP2 SUB SWAP1 REVERT JUMPDEST DUP1 PUSH20 0xFFFFFFFFFFFFFFFFFFFFFFFFFFFFFFFFFFFFFFFF AND PUSH1 0x80 DUP2 PUSH20 0xFFFFFFFFFFFFFFFFFFFFFFFFFFFFFFFFFFFFFFFF AND DUP2 MSTORE POP POP POP PUSH2 0x1DA JUMP JUMPDEST PUSH0 PUSH0 REVERT JUMPDEST PUSH0 PUSH20 0xFFFFFFFFFFFFFFFFFFFFFFFFFFFFFFFFFFFFFFFF DUP3 AND SWAP1 POP SWAP2 SWAP1 POP JUMP JUMPDEST PUSH0 PUSH2 0x106 DUP3 PUSH2 0xDD JUMP JUMPDEST SWAP1 POP SWAP2 SWAP1 POP JUMP JUMPDEST PUSH2 0x116 DUP2 PUSH2 0xFC JUMP JUMPDEST DUP2 EQ PUSH2 0x120 JUMPI PUSH0 PUSH0 REVERT JUMPDEST POP JUMP JUMPDEST PUSH0 DUP2 MLOAD SWAP1 POP PUSH2 0x131 DUP2 PUSH2 0x10D JUMP JUMPDEST SWAP3 SWAP2 POP POP JUMP JUMPDEST PUSH0 PUSH1 0x20 DUP3 DUP5 SUB SLT ISZERO PUSH2 0x14C JUMPI PUSH2 0x14B PUSH2 0xD9 JUMP JUMPDEST JUMPDEST PUSH0 PUSH2 0x159 DUP5 DUP3 DUP6 ADD PUSH2 0x123 JUMP JUMPDEST SWAP2 POP POP SWAP3 SWAP2 POP POP JUMP JUMPDEST PUSH0 DUP3 DUP3 MSTORE PUSH1 0x20 DUP3 ADD SWAP1 POP SWAP3 SWAP2 POP POP JUMP JUMPDEST PUSH32 0x617262697465723D300000000000000000000000000000000000000000000000 PUSH0 DUP3 ADD MSTORE POP JUMP JUMPDEST PUSH0 PUSH2 0x1A6 PUSH1 0x9 DUP4 PUSH2 0x162 JUMP JUMPDEST SWAP2 POP PUSH2 0x1B1 DUP3 PUSH2 0x172 JUMP JUMPDEST PUSH1 0x20 DUP3 ADD SWAP1 POP SWAP2 SWAP1 POP JUMP JUMPDEST PUSH0 PUSH1 0x20 DUP3 ADD SWAP1 POP DUP2 DUP2 SUB PUSH0 DUP4 ADD MSTORE PUSH2 0x1D3 DUP2 PUSH2 0x19A JUMP JUMPDEST SWAP1 POP SWAP2 SWAP1 POP JUMP JUMPDEST PUSH1 0x80 MLOAD PUSH2 0x2B53 PUSH2 0x1F9 PUSH0 CODECOPY PUSH0 DUP2 DUP2 PUSH2 0x700 ADD MSTORE PUSH2 0x1AF2 ADD MSTORE PUSH2 0x2B53 PUSH0 RETURN INVALID PUSH1 0x80 PUSH1 0x40 MSTORE PUSH1 0x4 CALLDATASIZE LT PUSH2 0xC5 JUMPI PUSH0 CALLDATALOAD PUSH1 0xE0 SHR DUP1 PUSH4 0x766954B4 GT PUSH2 0x7E JUMPI DUP1 PUSH4 0xEED90D6B GT PUSH2 0x58 JUMPI DUP1 PUSH4 0xEED90D6B EQ PUSH2 0x28B JUMPI DUP1 PUSH4 0xF71EDF3B EQ PUSH2 0x2B3 JUMPI DUP1 PUSH4 0xFAF08906 EQ PUSH2 0x2DB JUMPI DUP1 PUSH4 0xFE25E00A EQ PUSH2 0x303 JUMPI PUSH2 0xCC JUMP JUMPDEST DUP1 PUSH4 0x766954B4 EQ PUSH2 0x1F7 JUMPI DUP1 PUSH4 0xC6DF189D EQ PUSH2 0x233 JUMPI DUP1 PUSH4 0xE59B0C5B EQ PUSH2 0x25B JUMPI PUSH2 0xCC JUMP JUMPDEST DUP1 PUSH4 0x52548C8 EQ PUSH2 0xD0 JUMPI DUP1 PUSH4 0x1E6C598E EQ PUSH2 0xF8 JUMPI DUP1 PUSH4 0x2DB25E05 EQ PUSH2 0x13B JUMPI DUP1 PUSH4 0x34B25EE2 EQ PUSH2 0x17D JUMPI DUP1 PUSH4 0x5AEF573C EQ PUSH2 0x1A5 JUMPI DUP1 PUSH4 0x61B8CE8C EQ PUSH2 0x1CD JUMPI PUSH2 0xCC JUMP JUMPDEST CALLDATASIZE PUSH2 0xCC JUMPI STOP JUMPDEST PUSH0 PUSH0 REVERT JUMPDEST CALLVALUE DUP1 ISZERO PUSH2 0xDB JUMPI PUSH0 PUSH0 REVERT JUMPDEST POP PUSH2 0xF6 PUSH1 0x4 DUP1 CALLDATASIZE SUB DUP2 ADD SWAP1 PUSH2 0xF1 SWAP2 SWAP1 PUSH2 0x1DDD JUMP JUMPDEST PUSH2 0x32D JUMP JUMPDEST STOP JUMPDEST CALLVALUE DUP1 ISZERO PUSH2 0x103 JUMPI PUSH0 PUSH0 REVERT JUMPDEST POP PUSH2 0x11E PUSH1 0x4 DUP1 CALLDATASIZE SUB DUP2 ADD SWAP1 PUSH2 0x119 SWAP2 SWAP1 PUSH2 0x1E1B JUMP JUMPDEST PUSH2 0x569 JUMP JUMPDEST PUSH1 0x40 MLOAD PUSH2 0x132 SWAP9 SWAP8 SWAP7 SWAP6 SWAP5 SWAP4 SWAP3 SWAP2 SWAP1 PUSH2 0x1F30 JUMP JUMPDEST PUSH1 0x40 MLOAD DUP1 SWAP2 SUB SWAP1 RETURN JUMPDEST CALLVALUE DUP1 ISZERO PUSH2 0x146 JUMPI PUSH0 PUSH0 REVERT JUMPDEST POP PUSH2 0x161 PUSH1 0x4 DUP1 CALLDATASIZE SUB DUP2 ADD SWAP1 PUSH2 0x15C SWAP2 SWAP1 PUSH2 0x1E1B JUMP JUMPDEST PUSH2 0x630 JUMP JUMPDEST PUSH1 0x40 MLOAD PUSH2 0x174 SWAP8 SWAP7 SWAP6 SWAP5 SWAP4 SWAP3 SWAP2 SWAP1 PUSH2 0x1FAC JUMP JUMPDEST PUSH1 0x40 MLOAD DUP1 SWAP2 SUB SWAP1 RETURN JUMPDEST CALLVALUE DUP1 ISZERO PUSH2 0x188 JUMPI PUSH0 PUSH0 REVERT JUMPDEST POP PUSH2 0x1A3 PUSH1 0x4 DUP1 CALLDATASIZE SUB DUP2 ADD SWAP1 PUSH2 0x19E SWAP2 SWAP1 PUSH2 0x2043 JUMP JUMPDEST PUSH2 0x6FE JUMP JUMPDEST STOP JUMPDEST CALLVALUE DUP1 ISZERO PUSH2 0x1B0 JUMPI PUSH0 PUSH0 REVERT JUMPDEST POP PUSH2 0x1CB PUSH1 0x4 DUP1 CALLDATASIZE SUB DUP2 ADD SWAP1 PUSH2 0x1C6 SWAP2 SWAP1 PUSH2 0x20E2 JUMP JUMPDEST PUSH2 0xC6B JUMP JUMPDEST STOP JUMPDEST CALLVALUE DUP1 ISZERO PUSH2 0x1D8 JUMPI PUSH0 PUSH0 REVERT JUMPDEST POP PUSH2 0x1E1 PUSH2 0xE91 JUMP JUMPDEST PUSH1 0x40 MLOAD PUSH2 0x1EE SWAP2 SWAP1 PUSH2 0x213F JUMP JUMPDEST PUSH1 0x40 MLOAD DUP1 SWAP2 SUB SWAP1 RETURN JUMPDEST CALLVALUE DUP1 ISZERO PUSH2 0x202 JUMPI PUSH0 PUSH0 REVERT JUMPDEST POP PUSH2 0x21D PUSH1 0x4 DUP1 CALLDATASIZE SUB DUP2 ADD SWAP1 PUSH2 0x218 SWAP2 SWAP1 PUSH2 0x2158 JUMP JUMPDEST PUSH2 0xE96 JUMP JUMPDEST PUSH1 0x40 MLOAD PUSH2 0x22A SWAP2 SWAP1 PUSH2 0x21A3 JUMP JUMPDEST PUSH1 0x40 MLOAD DUP1 SWAP2 SUB SWAP1 RETURN JUMPDEST CALLVALUE DUP1 ISZERO PUSH2 0x23E JUMPI PUSH0 PUSH0 REVERT JUMPDEST POP PUSH2 0x259 PUSH1 0x4 DUP1 CALLDATASIZE SUB DUP2 ADD SWAP1 PUSH2 0x254 SWAP2 SWAP1 PUSH2 0x1E1B JUMP JUMPDEST PUSH2 0xEC8 JUMP JUMPDEST STOP JUMPDEST PUSH2 0x275 PUSH1 0x4 DUP1 CALLDATASIZE SUB DUP2 ADD SWAP1 PUSH2 0x270 SWAP2 SWAP1 PUSH2 0x21E6 JUMP JUMPDEST PUSH2 0x11F6 JUMP JUMPDEST PUSH1 0x40 MLOAD PUSH2 0x282 SWAP2 SWAP1 PUSH2 0x213F JUMP JUMPDEST PUSH1 0x40 MLOAD DUP1 SWAP2 SUB SWAP1 RETURN JUMPDEST CALLVALUE DUP1 ISZERO PUSH2 0x296 JUMPI PUSH0 PUSH0 REVERT JUMPDEST POP PUSH2 0x2B1 PUSH1 0x4 DUP1 CALLDATASIZE SUB DUP2 ADD SWAP1 PUSH2 0x2AC SWAP2 SWAP1 PUSH2 0x1E1B JUMP JUMPDEST PUSH2 0x15D0 JUMP JUMPDEST STOP JUMPDEST CALLVALUE DUP1 ISZERO PUSH2 0x2BE JUMPI PUSH0 PUSH0 REVERT JUMPDEST POP PUSH2 0x2D9 PUSH1 0x4 DUP1 CALLDATASIZE SUB DUP2 ADD SWAP1 PUSH2 0x2D4 SWAP2 SWAP1 PUSH2 0x1DDD JUMP JUMPDEST PUSH2 0x176C JUMP JUMPDEST STOP JUMPDEST CALLVALUE DUP1 ISZERO PUSH2 0x2E6 JUMPI PUSH0 PUSH0 REVERT JUMPDEST POP PUSH2 0x301 PUSH1 0x4 DUP1 CALLDATASIZE SUB DUP2 ADD SWAP1 PUSH2 0x2FC SWAP2 SWAP1 PUSH2 0x1E1B JUMP JUMPDEST PUSH2 0x191B JUMP JUMPDEST STOP JUMPDEST CALLVALUE DUP1 ISZERO PUSH2 0x30E JUMPI PUSH0 PUSH0 REVERT JUMPDEST POP PUSH2 0x317 PUSH2 0x1AF0 JUMP JUMPDEST PUSH1 0x40 MLOAD PUSH2 0x324 SWAP2 SWAP1 PUSH2 0x2257 JUMP JUMPDEST PUSH1 0x40 MLOAD DUP1 SWAP2 SUB SWAP1 RETURN JUMPDEST DUP2 PUSH1 0x1 PUSH0 DUP3 DUP2 MSTORE PUSH1 0x20 ADD SWAP1 DUP2 MSTORE PUSH1 0x20 ADD PUSH0 KECCAK256 PUSH1 0x2 ADD PUSH0 SWAP1 SLOAD SWAP1 PUSH2 0x100 EXP SWAP1 DIV PUSH20 0xFFFFFFFFFFFFFFFFFFFFFFFFFFFFFFFFFFFFFFFF AND PUSH20 0xFFFFFFFFFFFFFFFFFFFFFFFFFFFFFFFFFFFFFFFF AND CALLER PUSH20 0xFFFFFFFFFFFFFFFFFFFFFFFFFFFFFFFFFFFFFFFF AND EQ PUSH2 0x3CF JUMPI PUSH1 0x40 MLOAD PUSH32 0x8C379A000000000000000000000000000000000000000000000000000000000 DUP2 MSTORE PUSH1 0x4 ADD PUSH2 0x3C6 SWAP1 PUSH2 0x22CA JUMP JUMPDEST PUSH1 0x40 MLOAD DUP1 SWAP2 SUB SWAP1 REVERT JUMPDEST DUP3 PUSH1 0x1 DUP1 PUSH1 0x6 DUP2 GT ISZERO PUSH2 0x3E5 JUMPI PUSH2 0x3E4 PUSH2 0x1EBD JUMP JUMPDEST JUMPDEST PUSH1 0x1 PUSH0 DUP5 DUP2 MSTORE PUSH1 0x20 ADD SWAP1 DUP2 MSTORE PUSH1 0x20 ADD PUSH0 KECCAK256 PUSH1 0x5 ADD PUSH1 0x2 SWAP1 SLOAD SWAP1 PUSH2 0x100 EXP SWAP1 DIV PUSH1 0xFF AND PUSH1 0x6 DUP2 GT ISZERO PUSH2 0x419 JUMPI PUSH2 0x418 PUSH2 0x1EBD JUMP JUMPDEST JUMPDEST EQ PUSH2 0x459 JUMPI PUSH1 0x40 MLOAD PUSH32 0x8C379A000000000000000000000000000000000000000000000000000000000 DUP2 MSTORE PUSH1 0x4 ADD PUSH2 0x450 SWAP1 PUSH2 0x2332 JUMP JUMPDEST PUSH1 0x40 MLOAD DUP1 SWAP2 SUB SWAP1 REVERT JUMPDEST PUSH0 PUSH1 0x1 PUSH0 DUP8 DUP2 MSTORE PUSH1 0x20 ADD SWAP1 DUP2 MSTORE PUSH1 0x20 ADD PUSH0 KECCAK256 SWAP1 POP DUP1 PUSH1 0x5 ADD PUSH0 SWAP1 SLOAD SWAP1 PUSH2 0x100 EXP SWAP1 DIV PUSH1 0xFF AND PUSH2 0x4BD JUMPI PUSH1 0x40 MLOAD PUSH32 0x8C379A000000000000000000000000000000000000000000000000000000000 DUP2 MSTORE PUSH1 0x4 ADD PUSH2 0x4B4 SWAP1 PUSH2 0x239A JUMP JUMPDEST PUSH1 0x40 MLOAD DUP1 SWAP2 SUB SWAP1 REVERT JUMPDEST DUP1 PUSH1 0x4 ADD SLOAD DUP6 EQ PUSH2 0x503 JUMPI PUSH1 0x40 MLOAD PUSH32 0x8C379A000000000000000000000000000000000000000000000000000000000 DUP2 MSTORE PUSH1 0x4 ADD PUSH2 0x4FA SWAP1 PUSH2 0x2402 JUMP JUMPDEST PUSH1 0x40 MLOAD DUP1 SWAP2 SUB SWAP1 REVERT JUMPDEST PUSH1 0x1 DUP2 PUSH1 0x5 ADD PUSH1 0x1 PUSH2 0x100 EXP DUP2 SLOAD DUP2 PUSH1 0xFF MUL NOT AND SWAP1 DUP4 ISZERO ISZERO MUL OR SWAP1 SSTORE POP DUP6 PUSH32 0x6460C7B22727AA661CF23C166059400511ECAE1285793C3456C535A4DBBE4E4E DUP7 PUSH1 0x40 MLOAD PUSH2 0x550 SWAP2 SWAP1 PUSH2 0x21A3 JUMP JUMPDEST PUSH1 0x40 MLOAD DUP1 SWAP2 SUB SWAP1 LOG2 PUSH2 0x561 DUP7 PUSH2 0x1B14 JUMP JUMPDEST POP POP POP POP POP POP JUMP JUMPDEST PUSH1 0x1 PUSH1 0x20 MSTORE DUP1 PUSH0 MSTORE PUSH1 0x40 PUSH0 KECCAK256 PUSH0 SWAP2 POP SWAP1 POP DUP1 PUSH0 ADD PUSH0 SWAP1 SLOAD SWAP1 PUSH2 0x100 EXP SWAP1 DIV PUSH20 0xFFFFFFFFFFFFFFFFFFFFFFFFFFFFFFFFFFFFFFFF AND SWAP1 DUP1 PUSH1 0x1 ADD PUSH0 SWAP1 SLOAD SWAP1 PUSH2 0x100 EXP SWAP1 DIV PUSH20 0xFFFFFFFFFFFFFFFFFFFFFFFFFFFFFFFFFFFFFFFF AND SWAP1 DUP1 PUSH1 0x2 ADD PUSH0 SWAP1 SLOAD SWAP1 PUSH2 0x100 EXP SWAP1 DIV PUSH20 0xFFFFFFFFFFFFFFFFFFFFFFFFFFFFFFFFFFFFFFFF AND SWAP1 DUP1 PUSH1 0x3 ADD SLOAD SWAP1 DUP1 PUSH1 0x4 ADD SLOAD SWAP1 DUP1 PUSH1 0x5 ADD PUSH0 SWAP1 SLOAD SWAP1 PUSH2 0x100 EXP SWAP1 DIV PUSH1 0xFF AND SWAP1 DUP1 PUSH1 0x5 ADD PUSH1 0x1 SWAP1 SLOAD SWAP1 PUSH2 0x100 EXP SWAP1 DIV PUSH1 0xFF AND SWAP1 DUP1 PUSH1 0x5 ADD PUSH1 0x2 SWAP1 SLOAD SWAP1 PUSH2 0x100 EXP SWAP1 DIV PUSH1 0xFF AND SWAP1 POP DUP9 JUMP JUMPDEST PUSH0 PUSH0 PUSH0 PUSH0 PUSH0 PUSH0 PUSH0 PUSH0 PUSH1 0x1 PUSH0 DUP11 DUP2 MSTORE PUSH1 0x20 ADD SWAP1 DUP2 MSTORE PUSH1 0x20 ADD PUSH0 KECCAK256 SWAP1 POP DUP1 PUSH0 ADD PUSH0 SWAP1 SLOAD SWAP1 PUSH2 0x100 EXP SWAP1 DIV PUSH20 0xFFFFFFFFFFFFFFFFFFFFFFFFFFFFFFFFFFFFFFFF AND DUP2 PUSH1 0x1 ADD PUSH0 SWAP1 SLOAD SWAP1 PUSH2 0x100 EXP SWAP1 DIV PUSH20 0xFFFFFFFFFFFFFFFFFFFFFFFFFFFFFFFFFFFFFFFF AND DUP3 PUSH1 0x2 ADD PUSH0 SWAP1 SLOAD SWAP1 PUSH2 0x100 EXP SWAP1 DIV PUSH20 0xFFFFFFFFFFFFFFFFFFFFFFFFFFFFFFFFFFFFFFFF AND DUP4 PUSH1 0x3 ADD SLOAD DUP5 PUSH1 0x4 ADD SLOAD DUP6 PUSH1 0x5 ADD PUSH1 0x1 SWAP1 SLOAD SWAP1 PUSH2 0x100 EXP SWAP1 DIV PUSH1 0xFF AND DUP7 PUSH1 0x5 ADD PUSH1 0x2 SWAP1 SLOAD SWAP1 PUSH2 0x100 EXP SWAP1 DIV PUSH1 0xFF AND SWAP8 POP SWAP8 POP SWAP8 POP SWAP8 POP SWAP8 POP SWAP8 POP SWAP8 POP POP SWAP2 SWAP4 SWAP6 SWAP8 SWAP1 SWAP3 SWAP5 SWAP7 POP JUMP JUMPDEST PUSH32 0x0 PUSH20 0xFFFFFFFFFFFFFFFFFFFFFFFFFFFFFFFFFFFFFFFF AND CALLER PUSH20 0xFFFFFFFFFFFFFFFFFFFFFFFFFFFFFFFFFFFFFFFF AND EQ PUSH2 0x78C JUMPI PUSH1 0x40 MLOAD PUSH32 0x8C379A000000000000000000000000000000000000000000000000000000000 DUP2 MSTORE PUSH1 0x4 ADD PUSH2 0x783 SWAP1 PUSH2 0x246A JUMP JUMPDEST PUSH1 0x40 MLOAD DUP1 SWAP2 SUB SWAP1 REVERT JUMPDEST PUSH1 0x2 PUSH0 SWAP1 SLOAD SWAP1 PUSH2 0x100 EXP SWAP1 DIV PUSH1 0xFF AND ISZERO PUSH2 0x7DB JUMPI PUSH1 0x40 MLOAD PUSH32 0x8C379A000000000000000000000000000000000000000000000000000000000 DUP2 MSTORE PUSH1 0x4 ADD PUSH2 0x7D2 SWAP1 PUSH2 0x24D2 JUMP JUMPDEST PUSH1 0x40 MLOAD DUP1 SWAP2 SUB SWAP1 REVERT JUMPDEST PUSH1 0x1 PUSH1 0x2 PUSH0 PUSH2 0x100 EXP DUP2 SLOAD DUP2 PUSH1 0xFF MUL NOT AND SWAP1 DUP4 ISZERO ISZERO MUL OR SWAP1 SSTORE POP PUSH0 PUSH1 0x1 PUSH0 DUP5 DUP2 MSTORE PUSH1 0x20 ADD SWAP1 DUP2 MSTORE PUSH1 0x20 ADD PUSH0 KECCAK256 SWAP1 POP PUSH1 0x5 PUSH1 0x6 DUP2 GT ISZERO PUSH2 0x81D JUMPI PUSH2 0x81C PUSH2 0x1EBD JUMP JUMPDEST JUMPDEST DUP2 PUSH1 0x5 ADD PUSH1 0x2 SWAP1 SLOAD SWAP1 PUSH2 0x100 EXP SWAP1 DIV PUSH1 0xFF AND PUSH1 0x6 DUP2 GT ISZERO PUSH2 0x841 JUMPI PUSH2 0x840 PUSH2 0x1EBD JUMP JUMPDEST JUMPDEST EQ DUP1 PUSH2 0x882 JUMPI POP PUSH1 0x1 PUSH1 0x6 DUP2 GT ISZERO PUSH2 0x85C JUMPI PUSH2 0x85B PUSH2 0x1EBD JUMP JUMPDEST JUMPDEST DUP2 PUSH1 0x5 ADD PUSH1 0x2 SWAP1 SLOAD SWAP1 PUSH2 0x100 EXP SWAP1 DIV PUSH1 0xFF AND PUSH1 0x6 DUP2 GT ISZERO PUSH2 0x880 JUMPI PUSH2 0x87F PUSH2 0x1EBD JUMP JUMPDEST JUMPDEST EQ JUMPDEST DUP1 PUSH2 0x8C2 JUMPI POP PUSH1 0x2 PUSH1 0x6 DUP2 GT ISZERO PUSH2 0x89C JUMPI PUSH2 0x89B PUSH2 0x1EBD JUMP JUMPDEST JUMPDEST DUP2 PUSH1 0x5 ADD PUSH1 0x2 SWAP1 SLOAD SWAP1 PUSH2 0x100 EXP SWAP1 DIV PUSH1 0xFF AND PUSH1 0x6 DUP2 GT ISZERO PUSH2 0x8C0 JUMPI PUSH2 0x8BF PUSH2 0x1EBD JUMP JUMPDEST JUMPDEST EQ JUMPDEST DUP1 PUSH2 0x902 JUMPI POP PUSH1 0x3 PUSH1 0x6 DUP2 GT ISZERO PUSH2 0x8DC JUMPI PUSH2 0x8DB PUSH2 0x1EBD JUMP JUMPDEST JUMPDEST DUP2 PUSH1 0x5 ADD PUSH1 0x2 SWAP1 SLOAD SWAP1 PUSH2 0x100 EXP SWAP1 DIV PUSH1 0xFF AND PUSH1 0x6 DUP2 GT ISZERO PUSH2 0x900 JUMPI PUSH2 0x8FF PUSH2 0x1EBD JUMP JUMPDEST JUMPDEST EQ JUMPDEST PUSH2 0x941 JUMPI PUSH1 0x40 MLOAD PUSH32 0x8C379A000000000000000000000000000000000000000000000000000000000 DUP2 MSTORE PUSH1 0x4 ADD PUSH2 0x938 SWAP1 PUSH2 0x253A JUMP JUMPDEST PUSH1 0x40 MLOAD DUP1 SWAP2 SUB SWAP1 REVERT JUMPDEST PUSH0 DUP2 PUSH1 0x3 ADD SLOAD SWAP1 POP PUSH0 DUP3 PUSH1 0x3 ADD DUP2 SWAP1 SSTORE POP PUSH1 0x4 DUP3 PUSH1 0x5 ADD PUSH1 0x2 PUSH2 0x100 EXP DUP2 SLOAD DUP2 PUSH1 0xFF MUL NOT AND SWAP1 DUP4 PUSH1 0x6 DUP2 GT ISZERO PUSH2 0x97A JUMPI PUSH2 0x979 PUSH2 0x1EBD JUMP JUMPDEST JUMPDEST MUL OR SWAP1 SSTORE POP DUP3 ISZERO PUSH2 0xAEC JUMPI PUSH0 DUP3 PUSH1 0x1 ADD PUSH0 SWAP1 SLOAD SWAP1 PUSH2 0x100 EXP SWAP1 DIV PUSH20 0xFFFFFFFFFFFFFFFFFFFFFFFFFFFFFFFFFFFFFFFF AND PUSH20 0xFFFFFFFFFFFFFFFFFFFFFFFFFFFFFFFFFFFFFFFF AND DUP3 PUSH1 0x40 MLOAD PUSH2 0x9CD SWAP1 PUSH2 0x2585 JUMP JUMPDEST PUSH0 PUSH1 0x40 MLOAD DUP1 DUP4 SUB DUP2 DUP6 DUP8 GAS CALL SWAP3 POP POP POP RETURNDATASIZE DUP1 PUSH0 DUP2 EQ PUSH2 0xA07 JUMPI PUSH1 0x40 MLOAD SWAP2 POP PUSH1 0x1F NOT PUSH1 0x3F RETURNDATASIZE ADD AND DUP3 ADD PUSH1 0x40 MSTORE RETURNDATASIZE DUP3 MSTORE RETURNDATASIZE PUSH0 PUSH1 0x20 DUP5 ADD RETURNDATACOPY PUSH2 0xA0C JUMP JUMPDEST PUSH1 0x60 SWAP2 POP JUMPDEST POP POP SWAP1 POP DUP1 PUSH2 0xA50 JUMPI PUSH1 0x40 MLOAD PUSH32 0x8C379A000000000000000000000000000000000000000000000000000000000 DUP2 MSTORE PUSH1 0x4 ADD PUSH2 0xA47 SWAP1 PUSH2 0x25E3 JUMP JUMPDEST PUSH1 0x40 MLOAD DUP1 SWAP2 SUB SWAP1 REVERT JUMPDEST DUP5 PUSH32 0x21D71DB5BE59BB9FA133895586B7404307DD33FB93B16DB09DC6F1D9D7D231B0 DUP5 PUSH1 0x1 ADD PUSH0 SWAP1 SLOAD SWAP1 PUSH2 0x100 EXP SWAP1 DIV PUSH20 0xFFFFFFFFFFFFFFFFFFFFFFFFFFFFFFFFFFFFFFFF AND DUP5 PUSH1 0x40 MLOAD PUSH2 0xAA5 SWAP3 SWAP2 SWAP1 PUSH2 0x2601 JUMP JUMPDEST PUSH1 0x40 MLOAD DUP1 SWAP2 SUB SWAP1 LOG2 DUP5 PUSH32 0x5A87909BFF68CAAAAF0B3FD9C74EECCC928832F879315E5C6FB7A73612F26C0C PUSH1 0x1 PUSH1 0x40 MLOAD PUSH2 0xADE SWAP2 SWAP1 PUSH2 0x2628 JUMP JUMPDEST PUSH1 0x40 MLOAD DUP1 SWAP2 SUB SWAP1 LOG2 POP PUSH2 0xC4C JUMP JUMPDEST PUSH0 DUP3 PUSH0 ADD PUSH0 SWAP1 SLOAD SWAP1 PUSH2 0x100 EXP SWAP1 DIV PUSH20 0xFFFFFFFFFFFFFFFFFFFFFFFFFFFFFFFFFFFFFFFF AND PUSH20 0xFFFFFFFFFFFFFFFFFFFFFFFFFFFFFFFFFFFFFFFF AND DUP3 PUSH1 0x40 MLOAD PUSH2 0xB33 SWAP1 PUSH2 0x2585 JUMP JUMPDEST PUSH0 PUSH1 0x40 MLOAD DUP1 DUP4 SUB DUP2 DUP6 DUP8 GAS CALL SWAP3 POP POP POP RETURNDATASIZE DUP1 PUSH0 DUP2 EQ PUSH2 0xB6D JUMPI PUSH1 0x40 MLOAD SWAP2 POP PUSH1 0x1F NOT PUSH1 0x3F RETURNDATASIZE ADD AND DUP3 ADD PUSH1 0x40 MSTORE RETURNDATASIZE DUP3 MSTORE RETURNDATASIZE PUSH0 PUSH1 0x20 DUP5 ADD RETURNDATACOPY PUSH2 0xB72 JUMP JUMPDEST PUSH1 0x60 SWAP2 POP JUMPDEST POP POP SWAP1 POP DUP1 PUSH2 0xBB6 JUMPI PUSH1 0x40 MLOAD PUSH32 0x8C379A000000000000000000000000000000000000000000000000000000000 DUP2 MSTORE PUSH1 0x4 ADD PUSH2 0xBAD SWAP1 PUSH2 0x25E3 JUMP JUMPDEST PUSH1 0x40 MLOAD DUP1 SWAP2 SUB SWAP1 REVERT JUMPDEST DUP5 PUSH32 0x7CA5472B7EA78C2C0141C5A12EE6D170CF4CE8ED06BE3D22C8252DDFC7A6A2C4 DUP5 PUSH0 ADD PUSH0 SWAP1 SLOAD SWAP1 PUSH2 0x100 EXP SWAP1 DIV PUSH20 0xFFFFFFFFFFFFFFFFFFFFFFFFFFFFFFFFFFFFFFFF AND DUP5 PUSH1 0x40 MLOAD PUSH2 0xC0A SWAP3 SWAP2 SWAP1 PUSH2 0x2601 JUMP JUMPDEST PUSH1 0x40 MLOAD DUP1 SWAP2 SUB SWAP1 LOG2 DUP5 PUSH32 0x5A87909BFF68CAAAAF0B3FD9C74EECCC928832F879315E5C6FB7A73612F26C0C PUSH0 PUSH1 0x40 MLOAD PUSH2 0xC42 SWAP2 SWAP1 PUSH2 0x2628 JUMP JUMPDEST PUSH1 0x40 MLOAD DUP1 SWAP2 SUB SWAP1 LOG2 POP JUMPDEST POP POP PUSH0 PUSH1 0x2 PUSH0 PUSH2 0x100 EXP DUP2 SLOAD DUP2 PUSH1 0xFF MUL NOT AND SWAP1 DUP4 ISZERO ISZERO MUL OR SWAP1 SSTORE POP POP POP JUMP JUMPDEST PUSH0 PUSH1 0x1 PUSH0 DUP6 DUP2 MSTORE PUSH1 0x20 ADD SWAP1 DUP2 MSTORE PUSH1 0x20 ADD PUSH0 KECCAK256 SWAP1 POP DUP1 PUSH0 ADD PUSH0 SWAP1 SLOAD SWAP1 PUSH2 0x100 EXP SWAP1 DIV PUSH20 0xFFFFFFFFFFFFFFFFFFFFFFFFFFFFFFFFFFFFFFFF AND PUSH20 0xFFFFFFFFFFFFFFFFFFFFFFFFFFFFFFFFFFFFFFFF AND CALLER PUSH20 0xFFFFFFFFFFFFFFFFFFFFFFFFFFFFFFFFFFFFFFFF AND EQ DUP1 PUSH2 0xD29 JUMPI POP DUP1 PUSH1 0x1 ADD PUSH0 SWAP1 SLOAD SWAP1 PUSH2 0x100 EXP SWAP1 DIV PUSH20 0xFFFFFFFFFFFFFFFFFFFFFFFFFFFFFFFFFFFFFFFF AND PUSH20 0xFFFFFFFFFFFFFFFFFFFFFFFFFFFFFFFFFFFFFFFF AND CALLER PUSH20 0xFFFFFFFFFFFFFFFFFFFFFFFFFFFFFFFFFFFFFFFF AND EQ JUMPDEST PUSH2 0xD68 JUMPI PUSH1 0x40 MLOAD PUSH32 0x8C379A000000000000000000000000000000000000000000000000000000000 DUP2 MSTORE PUSH1 0x4 ADD PUSH2 0xD5F SWAP1 PUSH2 0x268B JUMP JUMPDEST PUSH1 0x40 MLOAD DUP1 SWAP2 SUB SWAP1 REVERT JUMPDEST PUSH1 0x4 PUSH1 0x6 DUP2 GT ISZERO PUSH2 0xD7C JUMPI PUSH2 0xD7B PUSH2 0x1EBD JUMP JUMPDEST JUMPDEST DUP2 PUSH1 0x5 ADD PUSH1 0x2 SWAP1 SLOAD SWAP1 PUSH2 0x100 EXP SWAP1 DIV PUSH1 0xFF AND PUSH1 0x6 DUP2 GT ISZERO PUSH2 0xDA0 JUMPI PUSH2 0xD9F PUSH2 0x1EBD JUMP JUMPDEST JUMPDEST EQ ISZERO DUP1 ISZERO PUSH2 0xDE3 JUMPI POP PUSH1 0x6 DUP1 DUP2 GT ISZERO PUSH2 0xDBC JUMPI PUSH2 0xDBB PUSH2 0x1EBD JUMP JUMPDEST JUMPDEST DUP2 PUSH1 0x5 ADD PUSH1 0x2 SWAP1 SLOAD SWAP1 PUSH2 0x100 EXP SWAP1 DIV PUSH1 0xFF AND PUSH1 0x6 DUP2 GT ISZERO PUSH2 0xDE0 JUMPI PUSH2 0xDDF PUSH2 0x1EBD JUMP JUMPDEST JUMPDEST EQ ISZERO JUMPDEST PUSH2 0xE22 JUMPI PUSH1 0x40 MLOAD PUSH32 0x8C379A000000000000000000000000000000000000000000000000000000000 DUP2 MSTORE PUSH1 0x4 ADD PUSH2 0xE19 SWAP1 PUSH2 0x26F3 JUMP JUMPDEST PUSH1 0x40 MLOAD DUP1 SWAP2 SUB SWAP1 REVERT JUMPDEST PUSH1 0x5 DUP2 PUSH1 0x5 ADD PUSH1 0x2 PUSH2 0x100 EXP DUP2 SLOAD DUP2 PUSH1 0xFF MUL NOT AND SWAP1 DUP4 PUSH1 0x6 DUP2 GT ISZERO PUSH2 0xE4A JUMPI PUSH2 0xE49 PUSH2 0x1EBD JUMP JUMPDEST JUMPDEST MUL OR SWAP1 SSTORE POP DUP4 PUSH32 0x1B84372106D77C6DAEA0DDA35BBC0229D10A83F58EC899092884925193682341 CALLER DUP6 DUP6 PUSH1 0x40 MLOAD PUSH2 0xE83 SWAP4 SWAP3 SWAP2 SWAP1 PUSH2 0x275B JUMP JUMPDEST PUSH1 0x40 MLOAD DUP1 SWAP2 SUB SWAP1 LOG2 POP POP POP POP JUMP JUMPDEST PUSH0 SLOAD DUP2 JUMP JUMPDEST PUSH0 DUP3 DUP3 PUSH1 0x40 MLOAD PUSH1 0x20 ADD PUSH2 0xEAA SWAP3 SWAP2 SWAP1 PUSH2 0x27B9 JUMP JUMPDEST PUSH1 0x40 MLOAD PUSH1 0x20 DUP2 DUP4 SUB SUB DUP2 MSTORE SWAP1 PUSH1 0x40 MSTORE DUP1 MLOAD SWAP1 PUSH1 0x20 ADD KECCAK256 SWAP1 POP SWAP3 SWAP2 POP POP JUMP JUMPDEST DUP1 PUSH1 0x1 PUSH0 DUP3 DUP2 MSTORE PUSH1 0x20 ADD SWAP1 DUP2 MSTORE PUSH1 0x20 ADD PUSH0 KECCAK256 PUSH0 ADD PUSH0 SWAP1 SLOAD SWAP1 PUSH2 0x100 EXP SWAP1 DIV PUSH20 0xFFFFFFFFFFFFFFFFFFFFFFFFFFFFFFFFFFFFFFFF AND PUSH20 0xFFFFFFFFFFFFFFFFFFFFFFFFFFFFFFFFFFFFFFFF AND CALLER PUSH20 0xFFFFFFFFFFFFFFFFFFFFFFFFFFFFFFFFFFFFFFFF AND EQ PUSH2 0xF69 JUMPI PUSH1 0x40 MLOAD PUSH32 0x8C379A000000000000000000000000000000000000000000000000000000000 DUP2 MSTORE PUSH1 0x4 ADD PUSH2 0xF60 SWAP1 PUSH2 0x281B JUMP JUMPDEST PUSH1 0x40 MLOAD DUP1 SWAP2 SUB SWAP1 REVERT JUMPDEST DUP2 PUSH1 0x1 DUP1 PUSH1 0x6 DUP2 GT ISZERO PUSH2 0xF7F JUMPI PUSH2 0xF7E PUSH2 0x1EBD JUMP JUMPDEST JUMPDEST PUSH1 0x1 PUSH0 DUP5 DUP2 MSTORE PUSH1 0x20 ADD SWAP1 DUP2 MSTORE PUSH1 0x20 ADD PUSH0 KECCAK256 PUSH1 0x5 ADD PUSH1 0x2 SWAP1 SLOAD SWAP1 PUSH2 0x100 EXP SWAP1 DIV PUSH1 0xFF AND PUSH1 0x6 DUP2 GT ISZERO PUSH2 0xFB3 JUMPI PUSH2 0xFB2 PUSH2 0x1EBD JUMP JUMPDEST JUMPDEST EQ PUSH2 0xFF3 JUMPI PUSH1 0x40 MLOAD PUSH32 0x8C379A000000000000000000000000000000000000000000000000000000000 DUP2 MSTORE PUSH1 0x4 ADD PUSH2 0xFEA SWAP1 PUSH2 0x2332 JUMP JUMPDEST PUSH1 0x40 MLOAD DUP1 SWAP2 SUB SWAP1 REVERT JUMPDEST PUSH1 0x2 PUSH0 SWAP1 SLOAD SWAP1 PUSH2 0x100 EXP SWAP1 DIV PUSH1 0xFF AND ISZERO PUSH2 0x1042 JUMPI PUSH1 0x40 MLOAD PUSH32 0x8C379A000000000000000000000000000000000000000000000000000000000 DUP2 MSTORE PUSH1 0x4 ADD PUSH2 0x1039 SWAP1 PUSH2 0x24D2 JUMP JUMPDEST PUSH1 0x40 MLOAD DUP1 SWAP2 SUB SWAP1 REVERT JUMPDEST PUSH1 0x1 PUSH1 0x2 PUSH0 PUSH2 0x100 EXP DUP2 SLOAD DUP2 PUSH1 0xFF MUL NOT AND SWAP1 DUP4 ISZERO ISZERO MUL OR SWAP1 SSTORE POP PUSH0 PUSH1 0x1 PUSH0 DUP7 DUP2 MSTORE PUSH1 0x20 ADD SWAP1 DUP2 MSTORE PUSH1 0x20 ADD PUSH0 KECCAK256 SWAP1 POP PUSH0 DUP2 PUSH1 0x3 ADD SLOAD SWAP1 POP PUSH0 DUP3 PUSH1 0x3 ADD DUP2 SWAP1 SSTORE POP PUSH1 0x6 DUP3 PUSH1 0x5 ADD PUSH1 0x2 PUSH2 0x100 EXP DUP2 SLOAD DUP2 PUSH1 0xFF MUL NOT AND SWAP1 DUP4 PUSH1 0x6 DUP2 GT ISZERO PUSH2 0x10A9 JUMPI PUSH2 0x10A8 PUSH2 0x1EBD JUMP JUMPDEST JUMPDEST MUL OR SWAP1 SSTORE POP PUSH0 DUP3 PUSH0 ADD PUSH0 SWAP1 SLOAD SWAP1 PUSH2 0x100 EXP SWAP1 DIV PUSH20 0xFFFFFFFFFFFFFFFFFFFFFFFFFFFFFFFFFFFFFFFF AND PUSH20 0xFFFFFFFFFFFFFFFFFFFFFFFFFFFFFFFFFFFFFFFF AND DUP3 PUSH1 0x40 MLOAD PUSH2 0x10F5 SWAP1 PUSH2 0x2585 JUMP JUMPDEST PUSH0 PUSH1 0x40 MLOAD DUP1 DUP4 SUB DUP2 DUP6 DUP8 GAS CALL SWAP3 POP POP POP RETURNDATASIZE DUP1 PUSH0 DUP2 EQ PUSH2 0x112F JUMPI PUSH1 0x40 MLOAD SWAP2 POP PUSH1 0x1F NOT PUSH1 0x3F RETURNDATASIZE ADD AND DUP3 ADD PUSH1 0x40 MSTORE RETURNDATASIZE DUP3 MSTORE RETURNDATASIZE PUSH0 PUSH1 0x20 DUP5 ADD RETURNDATACOPY PUSH2 0x1134 JUMP JUMPDEST PUSH1 0x60 SWAP2 POP JUMPDEST POP POP SWAP1 POP DUP1 PUSH2 0x1178 JUMPI PUSH1 0x40 MLOAD PUSH32 0x8C379A000000000000000000000000000000000000000000000000000000000 DUP2 MSTORE PUSH1 0x4 ADD PUSH2 0x116F SWAP1 PUSH2 0x2883 JUMP JUMPDEST PUSH1 0x40 MLOAD DUP1 SWAP2 SUB SWAP1 REVERT JUMPDEST DUP7 PUSH32 0x7CA5472B7EA78C2C0141C5A12EE6D170CF4CE8ED06BE3D22C8252DDFC7A6A2C4 DUP5 PUSH0 ADD PUSH0 SWAP1 SLOAD SWAP1 PUSH2 0x100 EXP SWAP1 DIV PUSH20 0xFFFFFFFFFFFFFFFFFFFFFFFFFFFFFFFFFFFFFFFF AND DUP5 PUSH1 0x40 MLOAD PUSH2 0x11CC SWAP3 SWAP2 SWAP1 PUSH2 0x2601 JUMP JUMPDEST PUSH1 0x40 MLOAD DUP1 SWAP2 SUB SWAP1 LOG2 POP POP POP PUSH0 PUSH1 0x2 PUSH0 PUSH2 0x100 EXP DUP2 SLOAD DUP2 PUSH1 0xFF MUL NOT AND SWAP1 DUP4 ISZERO ISZERO MUL OR SWAP1 SSTORE POP POP POP POP POP JUMP JUMPDEST PUSH0 PUSH0 PUSH20 0xFFFFFFFFFFFFFFFFFFFFFFFFFFFFFFFFFFFFFFFF AND DUP6 PUSH20 0xFFFFFFFFFFFFFFFFFFFFFFFFFFFFFFFFFFFFFFFF AND SUB PUSH2 0x1265 JUMPI PUSH1 0x40 MLOAD PUSH32 0x8C379A000000000000000000000000000000000000000000000000000000000 DUP2 MSTORE PUSH1 0x4 ADD PUSH2 0x125C SWAP1 PUSH2 0x28EB JUMP JUMPDEST PUSH1 0x40 MLOAD DUP1 SWAP2 SUB SWAP1 REVERT JUMPDEST PUSH0 PUSH20 0xFFFFFFFFFFFFFFFFFFFFFFFFFFFFFFFFFFFFFFFF AND DUP5 PUSH20 0xFFFFFFFFFFFFFFFFFFFFFFFFFFFFFFFFFFFFFFFF AND SUB PUSH2 0x12D3 JUMPI PUSH1 0x40 MLOAD PUSH32 0x8C379A000000000000000000000000000000000000000000000000000000000 DUP2 MSTORE PUSH1 0x4 ADD PUSH2 0x12CA SWAP1 PUSH2 0x2953 JUMP JUMPDEST PUSH1 0x40 MLOAD DUP1 SWAP2 SUB SWAP1 REVERT JUMPDEST PUSH0 CALLVALUE GT PUSH2 0x1315 JUMPI PUSH1 0x40 MLOAD PUSH32 0x8C379A000000000000000000000000000000000000000000000000000000000 DUP2 MSTORE PUSH1 0x4 ADD PUSH2 0x130C SWAP1 PUSH2 0x29BB JUMP JUMPDEST PUSH1 0x40 MLOAD DUP1 SWAP2 SUB SWAP1 REVERT JUMPDEST PUSH0 PUSH0 DUP2 SLOAD DUP1 SWAP3 SWAP2 SWAP1 PUSH2 0x1326 SWAP1 PUSH2 0x2A06 JUMP JUMPDEST SWAP2 SWAP1 POP SSTORE SWAP1 POP PUSH1 0x40 MLOAD DUP1 PUSH2 0x100 ADD PUSH1 0x40 MSTORE DUP1 CALLER PUSH20 0xFFFFFFFFFFFFFFFFFFFFFFFFFFFFFFFFFFFFFFFF AND DUP2 MSTORE PUSH1 0x20 ADD DUP7 PUSH20 0xFFFFFFFFFFFFFFFFFFFFFFFFFFFFFFFFFFFFFFFF AND DUP2 MSTORE PUSH1 0x20 ADD DUP6 PUSH20 0xFFFFFFFFFFFFFFFFFFFFFFFFFFFFFFFFFFFFFFFF AND DUP2 MSTORE PUSH1 0x20 ADD CALLVALUE DUP2 MSTORE PUSH1 0x20 ADD PUSH0 PUSH0 SHL DUP2 MSTORE PUSH1 0x20 ADD PUSH0 ISZERO ISZERO DUP2 MSTORE PUSH1 0x20 ADD PUSH0 ISZERO ISZERO DUP2 MSTORE PUSH1 0x20 ADD PUSH1 0x1 PUSH1 0x6 DUP2 GT ISZERO PUSH2 0x13BE JUMPI PUSH2 0x13BD PUSH2 0x1EBD JUMP JUMPDEST JUMPDEST DUP2 MSTORE POP PUSH1 0x1 PUSH0 DUP4 DUP2 MSTORE PUSH1 0x20 ADD SWAP1 DUP2 MSTORE PUSH1 0x20 ADD PUSH0 KECCAK256 PUSH0 DUP3 ADD MLOAD DUP2 PUSH0 ADD PUSH0 PUSH2 0x100 EXP DUP2 SLOAD DUP2 PUSH20 0xFFFFFFFFFFFFFFFFFFFFFFFFFFFFFFFFFFFFFFFF MUL NOT AND SWAP1 DUP4 PUSH20 0xFFFFFFFFFFFFFFFFFFFFFFFFFFFFFFFFFFFFFFFF AND MUL OR SWAP1 SSTORE POP PUSH1 0x20 DUP3 ADD MLOAD DUP2 PUSH1 0x1 ADD PUSH0 PUSH2 0x100 EXP DUP2 SLOAD DUP2 PUSH20 0xFFFFFFFFFFFFFFFFFFFFFFFFFFFFFFFFFFFFFFFF MUL NOT AND SWAP1 DUP4 PUSH20 0xFFFFFFFFFFFFFFFFFFFFFFFFFFFFFFFFFFFFFFFF AND MUL OR SWAP1 SSTORE POP PUSH1 0x40 DUP3 ADD MLOAD DUP2 PUSH1 0x2 ADD PUSH0 PUSH2 0x100 EXP DUP2 SLOAD DUP2 PUSH20 0xFFFFFFFFFFFFFFFFFFFFFFFFFFFFFFFFFFFFFFFF MUL NOT AND SWAP1 DUP4 PUSH20 0xFFFFFFFFFFFFFFFFFFFFFFFFFFFFFFFFFFFFFFFF AND MUL OR SWAP1 SSTORE POP PUSH1 0x60 DUP3 ADD MLOAD DUP2 PUSH1 0x3 ADD SSTORE PUSH1 0x80 DUP3 ADD MLOAD DUP2 PUSH1 0x4 ADD SSTORE PUSH1 0xA0 DUP3 ADD MLOAD DUP2 PUSH1 0x5 ADD PUSH0 PUSH2 0x100 EXP DUP2 SLOAD DUP2 PUSH1 0xFF MUL NOT AND SWAP1 DUP4 ISZERO ISZERO MUL OR SWAP1 SSTORE POP PUSH1 0xC0 DUP3 ADD MLOAD DUP2 PUSH1 0x5 ADD PUSH1 0x1 PUSH2 0x100 EXP DUP2 SLOAD DUP2 PUSH1 0xFF MUL NOT AND SWAP1 DUP4 ISZERO ISZERO MUL OR SWAP1 SSTORE POP PUSH1 0xE0 DUP3 ADD MLOAD DUP2 PUSH1 0x5 ADD PUSH1 0x2 PUSH2 0x100 EXP DUP2 SLOAD DUP2 PUSH1 0xFF MUL NOT AND SWAP1 DUP4 PUSH1 0x6 DUP2 GT ISZERO PUSH2 0x1520 JUMPI PUSH2 0x151F PUSH2 0x1EBD JUMP JUMPDEST JUMPDEST MUL OR SWAP1 SSTORE POP SWAP1 POP POP DUP5 PUSH20 0xFFFFFFFFFFFFFFFFFFFFFFFFFFFFFFFFFFFFFFFF AND CALLER PUSH20 0xFFFFFFFFFFFFFFFFFFFFFFFFFFFFFFFFFFFFFFFF AND DUP3 PUSH32 0x90846260728ABF36A9983412EA7D8B6A892838E7AB2BA6113C00FA97F056117F DUP8 CALLVALUE PUSH1 0x40 MLOAD PUSH2 0x1588 SWAP3 SWAP2 SWAP1 PUSH2 0x2601 JUMP JUMPDEST PUSH1 0x40 MLOAD DUP1 SWAP2 SUB SWAP1 LOG4 DUP1 PUSH32 0x6DA3309189FA49284F335D2C2BCB4CB0B8AD2A59AD92A9BDEBEEB8F1CEBA511 CALLVALUE PUSH1 0x40 MLOAD PUSH2 0x15C0 SWAP2 SWAP1 PUSH2 0x213F JUMP JUMPDEST PUSH1 0x40 MLOAD DUP1 SWAP2 SUB SWAP1 LOG2 SWAP5 SWAP4 POP POP POP POP JUMP JUMPDEST DUP1 PUSH1 0x1 PUSH0 DUP3 DUP2 MSTORE PUSH1 0x20 ADD SWAP1 DUP2 MSTORE PUSH1 0x20 ADD PUSH0 KECCAK256 PUSH1 0x1 ADD PUSH0 SWAP1 SLOAD SWAP1 PUSH2 0x100 EXP SWAP1 DIV PUSH20 0xFFFFFFFFFFFFFFFFFFFFFFFFFFFFFFFFFFFFFFFF AND PUSH20 0xFFFFFFFFFFFFFFFFFFFFFFFFFFFFFFFFFFFFFFFF AND CALLER PUSH20 0xFFFFFFFFFFFFFFFFFFFFFFFFFFFFFFFFFFFFFFFF AND EQ PUSH2 0x1672 JUMPI PUSH1 0x40 MLOAD PUSH32 0x8C379A000000000000000000000000000000000000000000000000000000000 DUP2 MSTORE PUSH1 0x4 ADD PUSH2 0x1669 SWAP1 PUSH2 0x2A97 JUMP JUMPDEST PUSH1 0x40 MLOAD DUP1 SWAP2 SUB SWAP1 REVERT JUMPDEST DUP2 PUSH1 0x1 DUP1 PUSH1 0x6 DUP2 GT ISZERO PUSH2 0x1688 JUMPI PUSH2 0x1687 PUSH2 0x1EBD JUMP JUMPDEST JUMPDEST PUSH1 0x1 PUSH0 DUP5 DUP2 MSTORE PUSH1 0x20 ADD SWAP1 DUP2 MSTORE PUSH1 0x20 ADD PUSH0 KECCAK256 PUSH1 0x5 ADD PUSH1 0x2 SWAP1 SLOAD SWAP1 PUSH2 0x100 EXP SWAP1 DIV PUSH1 0xFF AND PUSH1 0x6 DUP2 GT ISZERO PUSH2 0x16BC JUMPI PUSH2 0x16BB PUSH2 0x1EBD JUMP JUMPDEST JUMPDEST EQ PUSH2 0x16FC JUMPI PUSH1 0x40 MLOAD PUSH32 0x8C379A000000000000000000000000000000000000000000000000000000000 DUP2 MSTORE PUSH1 0x4 ADD PUSH2 0x16F3 SWAP1 PUSH2 0x2332 JUMP JUMPDEST PUSH1 0x40 MLOAD DUP1 SWAP2 SUB SWAP1 REVERT JUMPDEST PUSH1 0x2 PUSH1 0x1 PUSH0 DUP7 DUP2 MSTORE PUSH1 0x20 ADD SWAP1 DUP2 MSTORE PUSH1 0x20 ADD PUSH0 KECCAK256 PUSH1 0x5 ADD PUSH1 0x2 PUSH2 0x100 EXP DUP2 SLOAD DUP2 PUSH1 0xFF MUL NOT AND SWAP1 DUP4 PUSH1 0x6 DUP2 GT ISZERO PUSH2 0x1734 JUMPI PUSH2 0x1733 PUSH2 0x1EBD JUMP JUMPDEST JUMPDEST MUL OR SWAP1 SSTORE POP DUP4 PUSH32 0xF00B9A5725B80C54016F42114F6ED7792D22EECB116011C4AFAC29C57BEF6C95 PUSH1 0x40 MLOAD PUSH1 0x40 MLOAD DUP1 SWAP2 SUB SWAP1 LOG2 POP POP POP POP JUMP JUMPDEST DUP2 PUSH1 0x1 PUSH0 DUP3 DUP2 MSTORE PUSH1 0x20 ADD SWAP1 DUP2 MSTORE PUSH1 0x20 ADD PUSH0 KECCAK256 PUSH1 0x1 ADD PUSH0 SWAP1 SLOAD SWAP1 PUSH2 0x100 EXP SWAP1 DIV PUSH20 0xFFFFFFFFFFFFFFFFFFFFFFFFFFFFFFFFFFFFFFFF AND PUSH20 0xFFFFFFFFFFFFFFFFFFFFFFFFFFFFFFFFFFFFFFFF AND CALLER PUSH20 0xFFFFFFFFFFFFFFFFFFFFFFFFFFFFFFFFFFFFFFFF AND EQ PUSH2 0x180E JUMPI PUSH1 0x40 MLOAD PUSH32 0x8C379A000000000000000000000000000000000000000000000000000000000 DUP2 MSTORE PUSH1 0x4 ADD PUSH2 0x1805 SWAP1 PUSH2 0x2A97 JUMP JUMPDEST PUSH1 0x40 MLOAD DUP1 SWAP2 SUB SWAP1 REVERT JUMPDEST DUP3 PUSH1 0x1 DUP1 PUSH1 0x6 DUP2 GT ISZERO PUSH2 0x1824 JUMPI PUSH2 0x1823 PUSH2 0x1EBD JUMP JUMPDEST JUMPDEST PUSH1 0x1 PUSH0 DUP5 DUP2 MSTORE PUSH1 0x20 ADD SWAP1 DUP2 MSTORE PUSH1 0x20 ADD PUSH0 KECCAK256 PUSH1 0x5 ADD PUSH1 0x2 SWAP1 SLOAD SWAP1 PUSH2 0x100 EXP SWAP1 DIV PUSH1 0xFF AND PUSH1 0x6 DUP2 GT ISZERO PUSH2 0x1858 JUMPI PUSH2 0x1857 PUSH2 0x1EBD JUMP JUMPDEST JUMPDEST EQ PUSH2 0x1898 JUMPI PUSH1 0x40 MLOAD PUSH32 0x8C379A000000000000000000000000000000000000000000000000000000000 DUP2 MSTORE PUSH1 0x4 ADD PUSH2 0x188F SWAP1 PUSH2 0x2332 JUMP JUMPDEST PUSH1 0x40 MLOAD DUP1 SWAP2 SUB SWAP1 REVERT JUMPDEST DUP4 PUSH1 0x1 PUSH0 DUP8 DUP2 MSTORE PUSH1 0x20 ADD SWAP1 DUP2 MSTORE PUSH1 0x20 ADD PUSH0 KECCAK256 PUSH1 0x4 ADD DUP2 SWAP1 SSTORE POP PUSH1 0x1 DUP1 PUSH0 DUP8 DUP2 MSTORE PUSH1 0x20 ADD SWAP1 DUP2 MSTORE PUSH1 0x20 ADD PUSH0 KECCAK256 PUSH1 0x5 ADD PUSH0 PUSH2 0x100 EXP DUP2 SLOAD DUP2 PUSH1 0xFF MUL NOT AND SWAP1 DUP4 ISZERO ISZERO MUL OR SWAP1 SSTORE POP DUP5 PUSH32 0xD6494BEDB357DFFD9E25F00DE1D75AE98E06FB208D2A7F9830EBB2A628BE23DD DUP6 PUSH1 0x40 MLOAD PUSH2 0x190C SWAP2 SWAP1 PUSH2 0x21A3 JUMP JUMPDEST PUSH1 0x40 MLOAD DUP1 SWAP2 SUB SWAP1 LOG2 POP POP POP POP POP JUMP JUMPDEST DUP1 PUSH1 0x1 PUSH0 DUP3 DUP2 MSTORE PUSH1 0x20 ADD SWAP1 DUP2 MSTORE PUSH1 0x20 ADD PUSH0 KECCAK256 PUSH0 ADD PUSH0 SWAP1 SLOAD SWAP1 PUSH2 0x100 EXP SWAP1 DIV PUSH20 0xFFFFFFFFFFFFFFFFFFFFFFFFFFFFFFFFFFFFFFFF AND PUSH20 0xFFFFFFFFFFFFFFFFFFFFFFFFFFFFFFFFFFFFFFFF AND CALLER PUSH20 0xFFFFFFFFFFFFFFFFFFFFFFFFFFFFFFFFFFFFFFFF AND EQ PUSH2 0x19BC JUMPI PUSH1 0x40 MLOAD PUSH32 0x8C379A000000000000000000000000000000000000000000000000000000000 DUP2 MSTORE PUSH1 0x4 ADD PUSH2 0x19B3 SWAP1 PUSH2 0x281B JUMP JUMPDEST PUSH1 0x40 MLOAD DUP1 SWAP2 SUB SWAP1 REVERT JUMPDEST PUSH0 PUSH1 0x1 PUSH0 DUP5 DUP2 MSTORE PUSH1 0x20 ADD SWAP1 DUP2 MSTORE PUSH1 0x20 ADD PUSH0 KECCAK256 SWAP1 POP PUSH1 0x2 PUSH1 0x6 DUP2 GT ISZERO PUSH2 0x19E4 JUMPI PUSH2 0x19E3 PUSH2 0x1EBD JUMP JUMPDEST JUMPDEST DUP2 PUSH1 0x5 ADD PUSH1 0x2 SWAP1 SLOAD SWAP1 PUSH2 0x100 EXP SWAP1 DIV PUSH1 0xFF AND PUSH1 0x6 DUP2 GT ISZERO PUSH2 0x1A08 JUMPI PUSH2 0x1A07 PUSH2 0x1EBD JUMP JUMPDEST JUMPDEST EQ DUP1 PUSH2 0x1A49 JUMPI POP PUSH1 0x1 PUSH1 0x6 DUP2 GT ISZERO PUSH2 0x1A23 JUMPI PUSH2 0x1A22 PUSH2 0x1EBD JUMP JUMPDEST JUMPDEST DUP2 PUSH1 0x5 ADD PUSH1 0x2 SWAP1 SLOAD SWAP1 PUSH2 0x100 EXP SWAP1 DIV PUSH1 0xFF AND PUSH1 0x6 DUP2 GT ISZERO PUSH2 0x1A47 JUMPI PUSH2 0x1A46 PUSH2 0x1EBD JUMP JUMPDEST JUMPDEST EQ JUMPDEST PUSH2 0x1A88 JUMPI PUSH1 0x40 MLOAD PUSH32 0x8C379A000000000000000000000000000000000000000000000000000000000 DUP2 MSTORE PUSH1 0x4 ADD PUSH2 0x1A7F SWAP1 PUSH2 0x253A JUMP JUMPDEST PUSH1 0x40 MLOAD DUP1 SWAP2 SUB SWAP1 REVERT JUMPDEST PUSH1 0x3 DUP2 PUSH1 0x5 ADD PUSH1 0x2 PUSH2 0x100 EXP DUP2 SLOAD DUP2 PUSH1 0xFF MUL NOT AND SWAP1 DUP4 PUSH1 0x6 DUP2 GT ISZERO PUSH2 0x1AB0 JUMPI PUSH2 0x1AAF PUSH2 0x1EBD JUMP JUMPDEST JUMPDEST MUL OR SWAP1 SSTORE POP DUP3 PUSH32 0xFCC296B8BDD64E3F1D1FAADEF50CB2D6550F645316330FE57CB1DD7E0612EAD0 PUSH1 0x40 MLOAD PUSH1 0x40 MLOAD DUP1 SWAP2 SUB SWAP1 LOG2 PUSH2 0x1AEB DUP4 PUSH2 0x1B14 JUMP JUMPDEST POP POP POP JUMP JUMPDEST PUSH32 0x0 DUP2 JUMP JUMPDEST PUSH1 0x2 PUSH0 SWAP1 SLOAD SWAP1 PUSH2 0x100 EXP SWAP1 DIV PUSH1 0xFF AND ISZERO PUSH2 0x1B63 JUMPI PUSH1 0x40 MLOAD PUSH32 0x8C379A000000000000000000000000000000000000000000000000000000000 DUP2 MSTORE PUSH1 0x4 ADD PUSH2 0x1B5A SWAP1 PUSH2 0x24D2 JUMP JUMPDEST PUSH1 0x40 MLOAD DUP1 SWAP2 SUB SWAP1 REVERT JUMPDEST PUSH1 0x1 PUSH1 0x2 PUSH0 PUSH2 0x100 EXP DUP2 SLOAD DUP2 PUSH1 0xFF MUL NOT AND SWAP1 DUP4 ISZERO ISZERO MUL OR SWAP1 SSTORE POP PUSH0 PUSH1 0x1 PUSH0 DUP4 DUP2 MSTORE PUSH1 0x20 ADD SWAP1 DUP2 MSTORE PUSH1 0x20 ADD PUSH0 KECCAK256 SWAP1 POP DUP1 PUSH1 0x5 ADD PUSH1 0x1 SWAP1 SLOAD SWAP1 PUSH2 0x100 EXP SWAP1 DIV PUSH1 0xFF AND DUP1 ISZERO PUSH2 0x1BE4 JUMPI POP PUSH1 0x3 PUSH1 0x6 DUP2 GT ISZERO PUSH2 0x1BBE JUMPI PUSH2 0x1BBD PUSH2 0x1EBD JUMP JUMPDEST JUMPDEST DUP2 PUSH1 0x5 ADD PUSH1 0x2 SWAP1 SLOAD SWAP1 PUSH2 0x100 EXP SWAP1 DIV PUSH1 0xFF AND PUSH1 0x6 DUP2 GT ISZERO PUSH2 0x1BE2 JUMPI PUSH2 0x1BE1 PUSH2 0x1EBD JUMP JUMPDEST JUMPDEST EQ JUMPDEST ISZERO PUSH2 0x1D52 JUMPI PUSH0 DUP2 PUSH1 0x3 ADD SLOAD SWAP1 POP PUSH0 DUP3 PUSH1 0x3 ADD DUP2 SWAP1 SSTORE POP PUSH1 0x4 DUP3 PUSH1 0x5 ADD PUSH1 0x2 PUSH2 0x100 EXP DUP2 SLOAD DUP2 PUSH1 0xFF MUL NOT AND SWAP1 DUP4 PUSH1 0x6 DUP2 GT ISZERO PUSH2 0x1C22 JUMPI PUSH2 0x1C21 PUSH2 0x1EBD JUMP JUMPDEST JUMPDEST MUL OR SWAP1 SSTORE POP PUSH0 DUP3 PUSH1 0x1 ADD PUSH0 SWAP1 SLOAD SWAP1 PUSH2 0x100 EXP SWAP1 DIV PUSH20 0xFFFFFFFFFFFFFFFFFFFFFFFFFFFFFFFFFFFFFFFF AND PUSH20 0xFFFFFFFFFFFFFFFFFFFFFFFFFFFFFFFFFFFFFFFF AND DUP3 PUSH1 0x40 MLOAD PUSH2 0x1C6F SWAP1 PUSH2 0x2585 JUMP JUMPDEST PUSH0 PUSH1 0x40 MLOAD DUP1 DUP4 SUB DUP2 DUP6 DUP8 GAS CALL SWAP3 POP POP POP RETURNDATASIZE DUP1 PUSH0 DUP2 EQ PUSH2 0x1CA9 JUMPI PUSH1 0x40 MLOAD SWAP2 POP PUSH1 0x1F NOT PUSH1 0x3F RETURNDATASIZE ADD AND DUP3 ADD PUSH1 0x40 MSTORE RETURNDATASIZE DUP3 MSTORE RETURNDATASIZE PUSH0 PUSH1 0x20 DUP5 ADD RETURNDATACOPY PUSH2 0x1CAE JUMP JUMPDEST PUSH1 0x60 SWAP2 POP JUMPDEST POP POP SWAP1 POP DUP1 PUSH2 0x1CF2 JUMPI PUSH1 0x40 MLOAD PUSH32 0x8C379A000000000000000000000000000000000000000000000000000000000 DUP2 MSTORE PUSH1 0x4 ADD PUSH2 0x1CE9 SWAP1 PUSH2 0x2AFF JUMP JUMPDEST PUSH1 0x40 MLOAD DUP1 SWAP2 SUB SWAP1 REVERT JUMPDEST DUP4 PUSH32 0x21D71DB5BE59BB9FA133895586B7404307DD33FB93B16DB09DC6F1D9D7D231B0 DUP5 PUSH1 0x1 ADD PUSH0 SWAP1 SLOAD SWAP1 PUSH2 0x100 EXP SWAP1 DIV PUSH20 0xFFFFFFFFFFFFFFFFFFFFFFFFFFFFFFFFFFFFFFFF AND DUP5 PUSH1 0x40 MLOAD PUSH2 0x1D47 SWAP3 SWAP2 SWAP1 PUSH2 0x2601 JUMP JUMPDEST PUSH1 0x40 MLOAD DUP1 SWAP2 SUB SWAP1 LOG2 POP POP JUMPDEST POP PUSH0 PUSH1 0x2 PUSH0 PUSH2 0x100 EXP DUP2 SLOAD DUP2 PUSH1 0xFF MUL NOT AND SWAP1 DUP4 ISZERO ISZERO MUL OR SWAP1 SSTORE POP POP JUMP JUMPDEST PUSH0 PUSH0 REVERT JUMPDEST PUSH0 PUSH0 REVERT JUMPDEST PUSH0 DUP2 SWAP1 POP SWAP2 SWAP1 POP JUMP JUMPDEST PUSH2 0x1D89 DUP2 PUSH2 0x1D77 JUMP JUMPDEST DUP2 EQ PUSH2 0x1D93 JUMPI PUSH0 PUSH0 REVERT JUMPDEST POP JUMP JUMPDEST PUSH0 DUP2 CALLDATALOAD SWAP1 POP PUSH2 0x1DA4 DUP2 PUSH2 0x1D80 JUMP JUMPDEST SWAP3 SWAP2 POP POP JUMP JUMPDEST PUSH0 DUP2 SWAP1 POP SWAP2 SWAP1 POP JUMP JUMPDEST PUSH2 0x1DBC DUP2 PUSH2 0x1DAA JUMP JUMPDEST DUP2 EQ PUSH2 0x1DC6 JUMPI PUSH0 PUSH0 REVERT JUMPDEST POP JUMP JUMPDEST PUSH0 DUP2 CALLDATALOAD SWAP1 POP PUSH2 0x1DD7 DUP2 PUSH2 0x1DB3 JUMP JUMPDEST SWAP3 SWAP2 POP POP JUMP JUMPDEST PUSH0 PUSH0 PUSH1 0x40 DUP4 DUP6 SUB SLT ISZERO PUSH2 0x1DF3 JUMPI PUSH2 0x1DF2 PUSH2 0x1D6F JUMP JUMPDEST JUMPDEST PUSH0 PUSH2 0x1E00 DUP6 DUP3 DUP7 ADD PUSH2 0x1D96 JUMP JUMPDEST SWAP3 POP POP PUSH1 0x20 PUSH2 0x1E11 DUP6 DUP3 DUP7 ADD PUSH2 0x1DC9 JUMP JUMPDEST SWAP2 POP POP SWAP3 POP SWAP3 SWAP1 POP JUMP JUMPDEST PUSH0 PUSH1 0x20 DUP3 DUP5 SUB SLT ISZERO PUSH2 0x1E30 JUMPI PUSH2 0x1E2F PUSH2 0x1D6F JUMP JUMPDEST JUMPDEST PUSH0 PUSH2 0x1E3D DUP5 DUP3 DUP6 ADD PUSH2 0x1D96 JUMP JUMPDEST SWAP2 POP POP SWAP3 SWAP2 POP POP JUMP JUMPDEST PUSH0 PUSH20 0xFFFFFFFFFFFFFFFFFFFFFFFFFFFFFFFFFFFFFFFF DUP3 AND SWAP1 POP SWAP2 SWAP1 POP JUMP JUMPDEST PUSH0 PUSH2 0x1E6F DUP3 PUSH2 0x1E46 JUMP JUMPDEST SWAP1 POP SWAP2 SWAP1 POP JUMP JUMPDEST PUSH2 0x1E7F DUP2 PUSH2 0x1E65 JUMP JUMPDEST DUP3 MSTORE POP POP JUMP JUMPDEST PUSH2 0x1E8E DUP2 PUSH2 0x1D77 JUMP JUMPDEST DUP3 MSTORE POP POP JUMP JUMPDEST PUSH2 0x1E9D DUP2 PUSH2 0x1DAA JUMP JUMPDEST DUP3 MSTORE POP POP JUMP JUMPDEST PUSH0 DUP2 ISZERO ISZERO SWAP1 POP SWAP2 SWAP1 POP JUMP JUMPDEST PUSH2 0x1EB7 DUP2 PUSH2 0x1EA3 JUMP JUMPDEST DUP3 MSTORE POP POP JUMP JUMPDEST PUSH32 0x4E487B7100000000000000000000000000000000000000000000000000000000 PUSH0 MSTORE PUSH1 0x21 PUSH1 0x4 MSTORE PUSH1 0x24 PUSH0 REVERT JUMPDEST PUSH1 0x7 DUP2 LT PUSH2 0x1EFB JUMPI PUSH2 0x1EFA PUSH2 0x1EBD JUMP JUMPDEST JUMPDEST POP JUMP JUMPDEST PUSH0 DUP2 SWAP1 POP PUSH2 0x1F0B DUP3 PUSH2 0x1EEA JUMP JUMPDEST SWAP2 SWAP1 POP JUMP JUMPDEST PUSH0 PUSH2 0x1F1A DUP3 PUSH2 0x1EFE JUMP JUMPDEST SWAP1 POP SWAP2 SWAP1 POP JUMP JUMPDEST PUSH2 0x1F2A DUP2 PUSH2 0x1F10 JUMP JUMPDEST DUP3 MSTORE POP POP JUMP JUMPDEST PUSH0 PUSH2 0x100 DUP3 ADD SWAP1 POP PUSH2 0x1F44 PUSH0 DUP4 ADD DUP12 PUSH2 0x1E76 JUMP JUMPDEST PUSH2 0x1F51 PUSH1 0x20 DUP4 ADD DUP11 PUSH2 0x1E76 JUMP JUMPDEST PUSH2 0x1F5E PUSH1 0x40 DUP4 ADD DUP10 PUSH2 0x1E76 JUMP JUMPDEST PUSH2 0x1F6B PUSH1 0x60 DUP4 ADD DUP9 PUSH2 0x1E85 JUMP JUMPDEST PUSH2 0x1F78 PUSH1 0x80 DUP4 ADD DUP8 PUSH2 0x1E94 JUMP JUMPDEST PUSH2 0x1F85 PUSH1 0xA0 DUP4 ADD DUP7 PUSH2 0x1EAE JUMP JUMPDEST PUSH2 0x1F92 PUSH1 0xC0 DUP4 ADD DUP6 PUSH2 0x1EAE JUMP JUMPDEST PUSH2 0x1F9F PUSH1 0xE0 DUP4 ADD DUP5 PUSH2 0x1F21 JUMP JUMPDEST SWAP10 SWAP9 POP POP POP POP POP POP POP POP POP JUMP JUMPDEST PUSH0 PUSH1 0xE0 DUP3 ADD SWAP1 POP PUSH2 0x1FBF PUSH0 DUP4 ADD DUP11 PUSH2 0x1E76 JUMP JUMPDEST PUSH2 0x1FCC PUSH1 0x20 DUP4 ADD DUP10 PUSH2 0x1E76 JUMP JUMPDEST PUSH2 0x1FD9 PUSH1 0x40 DUP4 ADD DUP9 PUSH2 0x1E76 JUMP JUMPDEST PUSH2 0x1FE6 PUSH1 0x60 DUP4 ADD DUP8 PUSH2 0x1E85 JUMP JUMPDEST PUSH2 0x1FF3 PUSH1 0x80 DUP4 ADD DUP7 PUSH2 0x1E94 JUMP JUMPDEST PUSH2 0x2000 PUSH1 0xA0 DUP4 ADD DUP6 PUSH2 0x1EAE JUMP JUMPDEST PUSH2 0x200D PUSH1 0xC0 DUP4 ADD DUP5 PUSH2 0x1F21 JUMP JUMPDEST SWAP9 SWAP8 POP POP POP POP POP POP POP POP JUMP JUMPDEST PUSH2 0x2022 DUP2 PUSH2 0x1EA3 JUMP JUMPDEST DUP2 EQ PUSH2 0x202C JUMPI PUSH0 PUSH0 REVERT JUMPDEST POP JUMP JUMPDEST PUSH0 DUP2 CALLDATALOAD SWAP1 POP PUSH2 0x203D DUP2 PUSH2 0x2019 JUMP JUMPDEST SWAP3 SWAP2 POP POP JUMP JUMPDEST PUSH0 PUSH0 PUSH1 0x40 DUP4 DUP6 SUB SLT ISZERO PUSH2 0x2059 JUMPI PUSH2 0x2058 PUSH2 0x1D6F JUMP JUMPDEST JUMPDEST PUSH0 PUSH2 0x2066 DUP6 DUP3 DUP7 ADD PUSH2 0x1D96 JUMP JUMPDEST SWAP3 POP POP PUSH1 0x20 PUSH2 0x2077 DUP6 DUP3 DUP7 ADD PUSH2 0x202F JUMP JUMPDEST SWAP2 POP POP SWAP3 POP SWAP3 SWAP1 POP JUMP JUMPDEST PUSH0 PUSH0 REVERT JUMPDEST PUSH0 PUSH0 REVERT JUMPDEST PUSH0 PUSH0 REVERT JUMPDEST PUSH0 PUSH0 DUP4 PUSH1 0x1F DUP5 ADD SLT PUSH2 0x20A2 JUMPI PUSH2 0x20A1 PUSH2 0x2081 JUMP JUMPDEST JUMPDEST DUP3 CALLDATALOAD SWAP1 POP PUSH8 0xFFFFFFFFFFFFFFFF DUP2 GT ISZERO PUSH2 0x20BF JUMPI PUSH2 0x20BE PUSH2 0x2085 JUMP JUMPDEST JUMPDEST PUSH1 0x20 DUP4 ADD SWAP2 POP DUP4 PUSH1 0x1 DUP3 MUL DUP4 ADD GT ISZERO PUSH2 0x20DB JUMPI PUSH2 0x20DA PUSH2 0x2089 JUMP JUMPDEST JUMPDEST SWAP3 POP SWAP3 SWAP1 POP JUMP JUMPDEST PUSH0 PUSH0 PUSH0 PUSH1 0x40 DUP5 DUP7 SUB SLT ISZERO PUSH2 0x20F9 JUMPI PUSH2 0x20F8 PUSH2 0x1D6F JUMP JUMPDEST JUMPDEST PUSH0 PUSH2 0x2106 DUP7 DUP3 DUP8 ADD PUSH2 0x1D96 JUMP JUMPDEST SWAP4 POP POP PUSH1 0x20 DUP5 ADD CALLDATALOAD PUSH8 0xFFFFFFFFFFFFFFFF DUP2 GT ISZERO PUSH2 0x2127 JUMPI PUSH2 0x2126 PUSH2 0x1D73 JUMP JUMPDEST JUMPDEST PUSH2 0x2133 DUP7 DUP3 DUP8 ADD PUSH2 0x208D JUMP JUMPDEST SWAP3 POP SWAP3 POP POP SWAP3 POP SWAP3 POP SWAP3 JUMP JUMPDEST PUSH0 PUSH1 0x20 DUP3 ADD SWAP1 POP PUSH2 0x2152 PUSH0 DUP4 ADD DUP5 PUSH2 0x1E85 JUMP JUMPDEST SWAP3 SWAP2 POP POP JUMP JUMPDEST PUSH0 PUSH0 PUSH1 0x20 DUP4 DUP6 SUB SLT ISZERO PUSH2 0x216E JUMPI PUSH2 0x216D PUSH2 0x1D6F JUMP JUMPDEST JUMPDEST PUSH0 DUP4 ADD CALLDATALOAD PUSH8 0xFFFFFFFFFFFFFFFF DUP2 GT ISZERO PUSH2 0x218B JUMPI PUSH2 0x218A PUSH2 0x1D73 JUMP JUMPDEST JUMPDEST PUSH2 0x2197 DUP6 DUP3 DUP7 ADD PUSH2 0x208D JUMP JUMPDEST SWAP3 POP SWAP3 POP POP SWAP3 POP SWAP3 SWAP1 POP JUMP JUMPDEST PUSH0 PUSH1 0x20 DUP3 ADD SWAP1 POP PUSH2 0x21B6 PUSH0 DUP4 ADD DUP5 PUSH2 0x1E94 JUMP JUMPDEST SWAP3 SWAP2 POP POP JUMP JUMPDEST PUSH2 0x21C5 DUP2 PUSH2 0x1E65 JUMP JUMPDEST DUP2 EQ PUSH2 0x21CF JUMPI PUSH0 PUSH0 REVERT JUMPDEST POP JUMP JUMPDEST PUSH0 DUP2 CALLDATALOAD SWAP1 POP PUSH2 0x21E0 DUP2 PUSH2 0x21BC JUMP JUMPDEST SWAP3 SWAP2 POP POP JUMP JUMPDEST PUSH0 PUSH0 PUSH0 PUSH0 PUSH1 0x60 DUP6 DUP8 SUB SLT ISZERO PUSH2 0x21FE JUMPI PUSH2 0x21FD PUSH2 0x1D6F JUMP JUMPDEST JUMPDEST PUSH0 PUSH2 0x220B DUP8 DUP3 DUP9 ADD PUSH2 0x21D2 JUMP JUMPDEST SWAP5 POP POP PUSH1 0x20 PUSH2 0x221C DUP8 DUP3 DUP9 ADD PUSH2 0x21D2 JUMP JUMPDEST SWAP4 POP POP PUSH1 0x40 DUP6 ADD CALLDATALOAD PUSH8 0xFFFFFFFFFFFFFFFF DUP2 GT ISZERO PUSH2 0x223D JUMPI PUSH2 0x223C PUSH2 0x1D73 JUMP JUMPDEST JUMPDEST PUSH2 0x2249 DUP8 DUP3 DUP9 ADD PUSH2 0x208D JUMP JUMPDEST SWAP3 POP SWAP3 POP POP SWAP3 SWAP6 SWAP2 SWAP5 POP SWAP3 POP JUMP JUMPDEST PUSH0 PUSH1 0x20 DUP3 ADD SWAP1 POP PUSH2 0x226A PUSH0 DUP4 ADD DUP5 PUSH2 0x1E76 JUMP JUMPDEST SWAP3 SWAP2 POP POP JUMP JUMPDEST PUSH0 DUP3 DUP3 MSTORE PUSH1 0x20 DUP3 ADD SWAP1 POP SWAP3 SWAP2 POP POP JUMP JUMPDEST PUSH32 0x4E6F742076657269666965720000000000000000000000000000000000000000 PUSH0 DUP3 ADD MSTORE POP JUMP JUMPDEST PUSH0 PUSH2 0x22B4 PUSH1 0xC DUP4 PUSH2 0x2270 JUMP JUMPDEST SWAP2 POP PUSH2 0x22BF DUP3 PUSH2 0x2280 JUMP JUMPDEST PUSH1 0x20 DUP3 ADD SWAP1 POP SWAP2 SWAP1 POP JUMP JUMPDEST PUSH0 PUSH1 0x20 DUP3 ADD SWAP1 POP DUP2 DUP2 SUB PUSH0 DUP4 ADD MSTORE PUSH2 0x22E1 DUP2 PUSH2 0x22A8 JUMP JUMPDEST SWAP1 POP SWAP2 SWAP1 POP JUMP JUMPDEST PUSH32 0x4261642073746174650000000000000000000000000000000000000000000000 PUSH0 DUP3 ADD MSTORE POP JUMP JUMPDEST PUSH0 PUSH2 0x231C PUSH1 0x9 DUP4 PUSH2 0x2270 JUMP JUMPDEST SWAP2 POP PUSH2 0x2327 DUP3 PUSH2 0x22E8 JUMP JUMPDEST PUSH1 0x20 DUP3 ADD SWAP1 POP SWAP2 SWAP1 POP JUMP JUMPDEST PUSH0 PUSH1 0x20 DUP3 ADD SWAP1 POP DUP2 DUP2 SUB PUSH0 DUP4 ADD MSTORE PUSH2 0x2349 DUP2 PUSH2 0x2310 JUMP JUMPDEST SWAP1 POP SWAP2 SWAP1 POP JUMP JUMPDEST PUSH32 0x646F63206E6F7420736574000000000000000000000000000000000000000000 PUSH0 DUP3 ADD MSTORE POP JUMP JUMPDEST PUSH0 PUSH2 0x2384 PUSH1 0xB DUP4 PUSH2 0x2270 JUMP JUMPDEST SWAP2 POP PUSH2 0x238F DUP3 PUSH2 0x2350 JUMP JUMPDEST PUSH1 0x20 DUP3 ADD SWAP1 POP SWAP2 SWAP1 POP JUMP JUMPDEST PUSH0 PUSH1 0x20 DUP3 ADD SWAP1 POP DUP2 DUP2 SUB PUSH0 DUP4 ADD MSTORE PUSH2 0x23B1 DUP2 PUSH2 0x2378 JUMP JUMPDEST SWAP1 POP SWAP2 SWAP1 POP JUMP JUMPDEST PUSH32 0x68617368206D69736D6174636800000000000000000000000000000000000000 PUSH0 DUP3 ADD MSTORE POP JUMP JUMPDEST PUSH0 PUSH2 0x23EC PUSH1 0xD DUP4 PUSH2 0x2270 JUMP JUMPDEST SWAP2 POP PUSH2 0x23F7 DUP3 PUSH2 0x23B8 JUMP JUMPDEST PUSH1 0x20 DUP3 ADD SWAP1 POP SWAP2 SWAP1 POP JUMP JUMPDEST PUSH0 PUSH1 0x20 DUP3 ADD SWAP1 POP DUP2 DUP2 SUB PUSH0 DUP4 ADD MSTORE PUSH2 0x2419 DUP2 PUSH2 0x23E0 JUMP JUMPDEST SWAP1 POP SWAP2 SWAP1 POP JUMP JUMPDEST PUSH32 0x4E6F742061726269746572000000000000000000000000000000000000000000 PUSH0 DUP3 ADD MSTORE POP JUMP JUMPDEST PUSH0 PUSH2 0x2454 PUSH1 0xB DUP4 PUSH2 0x2270 JUMP JUMPDEST SWAP2 POP PUSH2 0x245F DUP3 PUSH2 0x2420 JUMP JUMPDEST PUSH1 0x20 DUP3 ADD SWAP1 POP SWAP2 SWAP1 POP JUMP JUMPDEST PUSH0 PUSH1 0x20 DUP3 ADD SWAP1 POP DUP2 DUP2 SUB PUSH0 DUP4 ADD MSTORE PUSH2 0x2481 DUP2 PUSH2 0x2448 JUMP JUMPDEST SWAP1 POP SWAP2 SWAP1 POP JUMP JUMPDEST PUSH32 0x5265656E7472616E637900000000000000000000000000000000000000000000 PUSH0 DUP3 ADD MSTORE POP JUMP JUMPDEST PUSH0 PUSH2 0x24BC PUSH1 0xA DUP4 PUSH2 0x2270 JUMP JUMPDEST SWAP2 POP PUSH2 0x24C7 DUP3 PUSH2 0x2488 JUMP JUMPDEST PUSH1 0x20 DUP3 ADD SWAP1 POP SWAP2 SWAP1 POP JUMP JUMPDEST PUSH0 PUSH1 0x20 DUP3 ADD SWAP1 POP DUP2 DUP2 SUB PUSH0 DUP4 ADD MSTORE PUSH2 0x24E9 DUP2 PUSH2 0x24B0 JUMP JUMPDEST SWAP1 POP SWAP2 SWAP1 POP JUMP JUMPDEST PUSH32 0x6261642073746174650000000000000000000000000000000000000000000000 PUSH0 DUP3 ADD MSTORE POP JUMP JUMPDEST PUSH0 PUSH2 0x2524 PUSH1 0x9 DUP4 PUSH2 0x2270 JUMP JUMPDEST SWAP2 POP PUSH2 0x252F DUP3 PUSH2 0x24F0 JUMP JUMPDEST PUSH1 0x20 DUP3 ADD SWAP1 POP SWAP2 SWAP1 POP JUMP JUMPDEST PUSH0 PUSH1 0x20 DUP3 ADD SWAP1 POP DUP2 DUP2 SUB PUSH0 DUP4 ADD MSTORE PUSH2 0x2551 DUP2 PUSH2 0x2518 JUMP JUMPDEST SWAP1 POP SWAP2 SWAP1 POP JUMP JUMPDEST PUSH0 DUP2 SWAP1 POP SWAP3 SWAP2 POP POP JUMP JUMPDEST POP JUMP JUMPDEST PUSH0 PUSH2 0x2570 PUSH0 DUP4 PUSH2 0x2558 JUMP JUMPDEST SWAP2 POP PUSH2 0x257B DUP3 PUSH2 0x2562 JUMP JUMPDEST PUSH0 DUP3 ADD SWAP1 POP SWAP2 SWAP1 POP JUMP JUMPDEST PUSH0 PUSH2 0x258F DUP3 PUSH2 0x2565 JUMP JUMPDEST SWAP2 POP DUP2 SWAP1 POP SWAP2 SWAP1 POP JUMP JUMPDEST PUSH32 0x73656E64206661696C0000000000000000000000000000000000000000000000 PUSH0 DUP3 ADD MSTORE POP JUMP JUMPDEST PUSH0 PUSH2 0x25CD PUSH1 0x9 DUP4 PUSH2 0x2270 JUMP JUMPDEST SWAP2 POP PUSH2 0x25D8 DUP3 PUSH2 0x2599 JUMP JUMPDEST PUSH1 0x20 DUP3 ADD SWAP1 POP SWAP2 SWAP1 POP JUMP JUMPDEST PUSH0 PUSH1 0x20 DUP3 ADD SWAP1 POP DUP2 DUP2 SUB PUSH0 DUP4 ADD MSTORE PUSH2 0x25FA DUP2 PUSH2 0x25C1 JUMP JUMPDEST SWAP1 POP SWAP2 SWAP1 POP JUMP JUMPDEST PUSH0 PUSH1 0x40 DUP3 ADD SWAP1 POP PUSH2 0x2614 PUSH0 DUP4 ADD DUP6 PUSH2 0x1E76 JUMP JUMPDEST PUSH2 0x2621 PUSH1 0x20 DUP4 ADD DUP5 PUSH2 0x1E85 JUMP JUMPDEST SWAP4 SWAP3 POP POP POP JUMP JUMPDEST PUSH0 PUSH1 0x20 DUP3 ADD SWAP1 POP PUSH2 0x263B PUSH0 DUP4 ADD DUP5 PUSH2 0x1EAE JUMP JUMPDEST SWAP3 SWAP2 POP POP JUMP JUMPDEST PUSH32 0x6E6F742070617274790000000000000000000000000000000000000000000000 PUSH0 DUP3 ADD MSTORE POP JUMP JUMPDEST PUSH0 PUSH2 0x2675 PUSH1 0x9 DUP4 PUSH2 0x2270 JUMP JUMPDEST SWAP2 POP PUSH2 0x2680 DUP3 PUSH2 0x2641 JUMP JUMPDEST PUSH1 0x20 DUP3 ADD SWAP1 POP SWAP2 SWAP1 POP JUMP JUMPDEST PUSH0 PUSH1 0x20 DUP3 ADD SWAP1 POP DUP2 DUP2 SUB PUSH0 DUP4 ADD MSTORE PUSH2 0x26A2 DUP2 PUSH2 0x2669 JUMP JUMPDEST SWAP1 POP SWAP2 SWAP1 POP JUMP JUMPDEST PUSH32 0x66696E616C697A65640000000000000000000000000000000000000000000000 PUSH0 DUP3 ADD MSTORE POP JUMP JUMPDEST PUSH0 PUSH2 0x26DD PUSH1 0x9 DUP4 PUSH2 0x2270 JUMP JUMPDEST SWAP2 POP PUSH2 0x26E8 DUP3 PUSH2 0x26A9 JUMP JUMPDEST PUSH1 0x20 DUP3 ADD SWAP1 POP SWAP2 SWAP1 POP JUMP JUMPDEST PUSH0 PUSH1 0x20 DUP3 ADD SWAP1 POP DUP2 DUP2 SUB PUSH0 DUP4 ADD MSTORE PUSH2 0x270A DUP2 PUSH2 0x26D1 JUMP JUMPDEST SWAP1 POP SWAP2 SWAP1 POP JUMP JUMPDEST DUP3 DUP2 DUP4 CALLDATACOPY PUSH0 DUP4 DUP4 ADD MSTORE POP POP POP JUMP JUMPDEST PUSH0 PUSH1 0x1F NOT PUSH1 0x1F DUP4 ADD AND SWAP1 POP SWAP2 SWAP1 POP JUMP JUMPDEST PUSH0 PUSH2 0x273A DUP4 DUP6 PUSH2 0x2270 JUMP JUMPDEST SWAP4 POP PUSH2 0x2747 DUP4 DUP6 DUP5 PUSH2 0x2711 JUMP JUMPDEST PUSH2 0x2750 DUP4 PUSH2 0x271F JUMP JUMPDEST DUP5 ADD SWAP1 POP SWAP4 SWAP3 POP POP POP JUMP JUMPDEST PUSH0 PUSH1 0x40 DUP3 ADD SWAP1 POP PUSH2 0x276E PUSH0 DUP4 ADD DUP7 PUSH2 0x1E76 JUMP JUMPDEST DUP2 DUP2 SUB PUSH1 0x20 DUP4 ADD MSTORE PUSH2 0x2781 DUP2 DUP5 DUP7 PUSH2 0x272F JUMP JUMPDEST SWAP1 POP SWAP5 SWAP4 POP POP POP POP JUMP JUMPDEST PUSH0 DUP2 SWAP1 POP SWAP3 SWAP2 POP POP JUMP JUMPDEST PUSH0 PUSH2 0x27A0 DUP4 DUP6 PUSH2 0x278B JUMP JUMPDEST SWAP4 POP PUSH2 0x27AD DUP4 DUP6 DUP5 PUSH2 0x2711 JUMP JUMPDEST DUP3 DUP5 ADD SWAP1 POP SWAP4 SWAP3 POP POP POP JUMP JUMPDEST PUSH0 PUSH2 0x27C5 DUP3 DUP5 DUP7 PUSH2 0x2795 JUMP JUMPDEST SWAP2 POP DUP2 SWAP1 POP SWAP4 SWAP3 POP POP POP JUMP JUMPDEST PUSH32 0x4E6F742062757965720000000000000000000000000000000000000000000000 PUSH0 DUP3 ADD MSTORE POP JUMP JUMPDEST PUSH0 PUSH2 0x2805 PUSH1 0x9 DUP4 PUSH2 0x2270 JUMP JUMPDEST SWAP2 POP PUSH2 0x2810 DUP3 PUSH2 0x27D1 JUMP JUMPDEST PUSH1 0x20 DUP3 ADD SWAP1 POP SWAP2 SWAP1 POP JUMP JUMPDEST PUSH0 PUSH1 0x20 DUP3 ADD SWAP1 POP DUP2 DUP2 SUB PUSH0 DUP4 ADD MSTORE PUSH2 0x2832 DUP2 PUSH2 0x27F9 JUMP JUMPDEST SWAP1 POP SWAP2 SWAP1 POP JUMP JUMPDEST PUSH32 0x726566756E64206661696C000000000000000000000000000000000000000000 PUSH0 DUP3 ADD MSTORE POP JUMP JUMPDEST PUSH0 PUSH2 0x286D PUSH1 0xB DUP4 PUSH2 0x2270 JUMP JUMPDEST SWAP2 POP PUSH2 0x2878 DUP3 PUSH2 0x2839 JUMP JUMPDEST PUSH1 0x20 DUP3 ADD SWAP1 POP SWAP2 SWAP1 POP JUMP JUMPDEST PUSH0 PUSH1 0x20 DUP3 ADD SWAP1 POP DUP2 DUP2 SUB PUSH0 DUP4 ADD MSTORE PUSH2 0x289A DUP2 PUSH2 0x2861 JUMP JUMPDEST SWAP1 POP SWAP2 SWAP1 POP JUMP JUMPDEST PUSH32 0x73656C6C65723D30000000000000000000000000000000000000000000000000 PUSH0 DUP3 ADD MSTORE POP JUMP JUMPDEST PUSH0 PUSH2 0x28D5 PUSH1 0x8 DUP4 PUSH2 0x2270 JUMP JUMPDEST SWAP2 POP PUSH2 0x28E0 DUP3 PUSH2 0x28A1 JUMP JUMPDEST PUSH1 0x20 DUP3 ADD SWAP1 POP SWAP2 SWAP1 POP JUMP JUMPDEST PUSH0 PUSH1 0x20 DUP3 ADD SWAP1 POP DUP2 DUP2 SUB PUSH0 DUP4 ADD MSTORE PUSH2 0x2902 DUP2 PUSH2 0x28C9 JUMP JUMPDEST SWAP1 POP SWAP2 SWAP1 POP JUMP JUMPDEST PUSH32 0x76657269666965723D3000000000000000000000000000000000000000000000 PUSH0 DUP3 ADD MSTORE POP JUMP JUMPDEST PUSH0 PUSH2 0x293D PUSH1 0xA DUP4 PUSH2 0x2270 JUMP JUMPDEST SWAP2 POP PUSH2 0x2948 DUP3 PUSH2 0x2909 JUMP JUMPDEST PUSH1 0x20 DUP3 ADD SWAP1 POP SWAP2 SWAP1 POP JUMP JUMPDEST PUSH0 PUSH1 0x20 DUP3 ADD SWAP1 POP DUP2 DUP2 SUB PUSH0 DUP4 ADD MSTORE PUSH2 0x296A DUP2 PUSH2 0x2931 JUMP JUMPDEST SWAP1 POP SWAP2 SWAP1 POP JUMP JUMPDEST PUSH32 0x6E6F2066756E6473000000000000000000000000000000000000000000000000 PUSH0 DUP3 ADD MSTORE POP JUMP JUMPDEST PUSH0 PUSH2 0x29A5 PUSH1 0x8 DUP4 PUSH2 0x2270 JUMP JUMPDEST SWAP2 POP PUSH2 0x29B0 DUP3 PUSH2 0x2971 JUMP JUMPDEST PUSH1 0x20 DUP3 ADD SWAP1 POP SWAP2 SWAP1 POP JUMP JUMPDEST PUSH0 PUSH1 0x20 DUP3 ADD SWAP1 POP DUP2 DUP2 SUB PUSH0 DUP4 ADD MSTORE PUSH2 0x29D2 DUP2 PUSH2 0x2999 JUMP JUMPDEST SWAP1 POP SWAP2 SWAP1 POP JUMP JUMPDEST PUSH32 0x4E487B7100000000000000000000000000000000000000000000000000000000 PUSH0 MSTORE PUSH1 0x11 PUSH1 0x4 MSTORE PUSH1 0x24 PUSH0 REVERT JUMPDEST PUSH0 PUSH2 0x2A10 DUP3 PUSH2 0x1D77 JUMP JUMPDEST SWAP2 POP PUSH32 0xFFFFFFFFFFFFFFFFFFFFFFFFFFFFFFFFFFFFFFFFFFFFFFFFFFFFFFFFFFFFFFFF DUP3 SUB PUSH2 0x2A42 JUMPI PUSH2 0x2A41 PUSH2 0x29D9 JUMP JUMPDEST JUMPDEST PUSH1 0x1 DUP3 ADD SWAP1 POP SWAP2 SWAP1 POP JUMP JUMPDEST PUSH32 0x4E6F742073656C6C657200000000000000000000000000000000000000000000 PUSH0 DUP3 ADD MSTORE POP JUMP JUMPDEST PUSH0 PUSH2 0x2A81 PUSH1 0xA DUP4 PUSH2 0x2270 JUMP JUMPDEST SWAP2 POP PUSH2 0x2A8C DUP3 PUSH2 0x2A4D JUMP JUMPDEST PUSH1 0x20 DUP3 ADD SWAP1 POP SWAP2 SWAP1 POP JUMP JUMPDEST PUSH0 PUSH1 0x20 DUP3 ADD SWAP1 POP DUP2 DUP2 SUB PUSH0 DUP4 ADD MSTORE PUSH2 0x2AAE DUP2 PUSH2 0x2A75 JUMP JUMPDEST SWAP1 POP SWAP2 SWAP1 POP JUMP JUMPDEST PUSH32 0x72656C65617365206661696C0000000000000000000000000000000000000000 PUSH0 DUP3 ADD MSTORE POP JUMP JUMPDEST PUSH0 PUSH2 0x2AE9 PUSH1 0xC DUP4 PUSH2 0x2270 JUMP JUMPDEST SWAP2 POP PUSH2 0x2AF4 DUP3 PUSH2 0x2AB5 JUMP JUMPDEST PUSH1 0x20 DUP3 ADD SWAP1 POP SWAP2 SWAP1 POP JUMP JUMPDEST PUSH0 PUSH1 0x20 DUP3 ADD SWAP1 POP DUP2 DUP2 SUB PUSH0 DUP4 ADD MSTORE PUSH2 0x2B16 DUP2 PUSH2 0x2ADD JUMP JUMPDEST SWAP1 POP SWAP2 SWAP1 POP JUMP INVALID LOG2 PUSH5 0x6970667358 0x22 SLT KECCAK256 CALLF 0x5412 BLOCKHASH 0x21 0x2F PUSH7 0xC8FCFF31B29759 DUP7 0xD8 EXTCODEHASH 0xFC MSIZE SSTORE 0xBE LT REVERT 0xD7 BLOCKHASH CALL LOG4 EXTCODESIZE EXTSTATICCALL 0xED 0xAB DUP10 PUSH5 0x736F6C6343 STOP ADDMOD 0x1E STOP CALLER "
				},
				"gasEstimates": {
					"creation": {
						"codeDepositCost": "2218200",
						"executionCost": "infinite",
						"totalCost": "infinite"
					},
					"external": {
						"arbiter()": "infinite",
						"cancelBeforeShipment(uint256)": "infinite",
						"confirmDelivered(uint256)": "infinite",
						"createTrade(address,address,string)": "infinite",
						"getTrade(uint256)": "infinite",
						"hashString(string)": "infinite",
						"markShipped(uint256)": "30606",
						"nextId()": "2535",
						"raiseDispute(uint256,string)": "infinite",
						"resolveDispute(uint256,bool)": "infinite",
						"setExpectedDocumentHash(uint256,bytes32)": "infinite",
						"trades(uint256)": "infinite",
						"verifyDocument(uint256,bytes32)": "infinite"
					},
					"internal": {
						"_trySettle(uint256)": "infinite"
					}
				},
				"methodIdentifiers": {
					"arbiter()": "fe25e00a",
					"cancelBeforeShipment(uint256)": "c6df189d",
					"confirmDelivered(uint256)": "faf08906",
					"createTrade(address,address,string)": "e59b0c5b",
					"getTrade(uint256)": "2db25e05",
					"hashString(string)": "766954b4",
					"markShipped(uint256)": "eed90d6b",
					"nextId()": "61b8ce8c",
					"raiseDispute(uint256,string)": "5aef573c",
					"resolveDispute(uint256,bool)": "34b25ee2",
					"setExpectedDocumentHash(uint256,bytes32)": "f71edf3b",
					"trades(uint256)": "1e6c598e",
					"verifyDocument(uint256,bytes32)": "052548c8"
				}
			},
			"storageLayout": {
				"storage": [
					{
						"astId": 31,
						"contract": "TradeEscrow.sol:TradeEscrow",
						"label": "nextId",
						"offset": 0,
						"slot": "0",
						"type": "t_uint256"
					},
					{
						"astId": 36,
						"contract": "TradeEscrow.sol:TradeEscrow",
						"label": "trades",
						"offset": 0,
						"slot": "1",
						"type": "t_mapping(t_uint256,t_struct(Trade)27_storage)"
					},
					{
						"astId": 38,
						"contract": "TradeEscrow.sol:TradeEscrow",
						"label": "locked",
						"offset": 0,
						"slot": "2",
						"type": "t_bool"
					}
				],
				"types": {
					"t_address": {
						"encoding": "inplace",
						"label": "address",
						"numberOfBytes": "20"
					},
					"t_bool": {
						"encoding": "inplace",
						"label": "bool",
						"numberOfBytes": "1"
					},
					"t_bytes32": {
						"encoding": "inplace",
						"label": "bytes32",
						"numberOfBytes": "32"
					},
					"t_enum(State)9": {
						"encoding": "inplace",
						"label": "enum TradeEscrow.State",
						"numberOfBytes": "1"
					},
					"t_mapping(t_uint256,t_struct(Trade)27_storage)": {
						"encoding": "mapping",
						"key": "t_uint256",
						"label": "mapping(uint256 => struct TradeEscrow.Trade)",
						"numberOfBytes": "32",
						"value": "t_struct(Trade)27_storage"
					},
					"t_struct(Trade)27_storage": {
						"encoding": "inplace",
						"label": "struct TradeEscrow.Trade",
						"members": [
							{
								"astId": 11,
								"contract": "TradeEscrow.sol:TradeEscrow",
								"label": "buyer",
								"offset": 0,
								"slot": "0",
								"type": "t_address"
							},
							{
								"astId": 13,
								"contract": "TradeEscrow.sol:TradeEscrow",
								"label": "seller",
								"offset": 0,
								"slot": "1",
								"type": "t_address"
							},
							{
								"astId": 15,
								"contract": "TradeEscrow.sol:TradeEscrow",
								"label": "verifier",
								"offset": 0,
								"slot": "2",
								"type": "t_address"
							},
							{
								"astId": 17,
								"contract": "TradeEscrow.sol:TradeEscrow",
								"label": "amount",
								"offset": 0,
								"slot": "3",
								"type": "t_uint256"
							},
							{
								"astId": 19,
								"contract": "TradeEscrow.sol:TradeEscrow",
								"label": "expectedDocHash",
								"offset": 0,
								"slot": "4",
								"type": "t_bytes32"
							},
							{
								"astId": 21,
								"contract": "TradeEscrow.sol:TradeEscrow",
								"label": "docSet",
								"offset": 0,
								"slot": "5",
								"type": "t_bool"
							},
							{
								"astId": 23,
								"contract": "TradeEscrow.sol:TradeEscrow",
								"label": "docVerified",
								"offset": 1,
								"slot": "5",
								"type": "t_bool"
							},
							{
								"astId": 26,
								"contract": "TradeEscrow.sol:TradeEscrow",
								"label": "state",
								"offset": 2,
								"slot": "5",
								"type": "t_enum(State)9"
							}
						],
						"numberOfBytes": "192"
					},
					"t_uint256": {
						"encoding": "inplace",
						"label": "uint256",
						"numberOfBytes": "32"
					}
				}
			},
			"userdoc": {
				"kind": "user",
				"methods": {
					"cancelBeforeShipment(uint256)": {
						"notice": "Buyer can cancel and get a refund any time BEFORE the seller marks shipped"
					},
					"confirmDelivered(uint256)": {
						"notice": "Buyer confirms delivery"
					},
					"createTrade(address,address,string)": {
						"notice": "Buyer creates the trade and deposits funds in one step"
					},
					"getTrade(uint256)": {
						"notice": "Quick view helper for Remix"
					},
					"hashString(string)": {
						"notice": "Helper so you can compute the bytes32 hash for a document string right in Remix"
					},
					"markShipped(uint256)": {
						"notice": "Seller marks shipment dispatched"
					},
					"raiseDispute(uint256,string)": {
						"notice": "Either party can raise a dispute (arbiter will resolve)"
					},
					"resolveDispute(uint256,bool)": {
						"notice": "Arbiter decides outcome: release to seller or refund buyer"
					},
					"setExpectedDocumentHash(uint256,bytes32)": {
						"notice": "Seller specifies the document hash they expect to be verified (e.g., Bill of Lading)"
					},
					"verifyDocument(uint256,bytes32)": {
						"notice": "Verifier (seller or third-party) confirms the provided document by matching the hash"
					}
				},
				"version": 1
			}
		}
	}
}